{
  "contractName": "CertNftColl",
  "abi": [
    {
      "inputs": [
        {
          "internalType": "string",
          "name": "_name",
          "type": "string"
        },
        {
          "internalType": "string",
          "name": "_abre",
          "type": "string"
        },
        {
          "internalType": "uint256",
          "name": "_maxItems",
          "type": "uint256"
        }
      ],
      "stateMutability": "nonpayable",
      "type": "constructor"
    },
    {
      "anonymous": false,
      "inputs": [
        {
          "indexed": true,
          "internalType": "address",
          "name": "owner",
          "type": "address"
        },
        {
          "indexed": true,
          "internalType": "address",
          "name": "approved",
          "type": "address"
        },
        {
          "indexed": true,
          "internalType": "uint256",
          "name": "tokenId",
          "type": "uint256"
        }
      ],
      "name": "Approval",
      "type": "event"
    },
    {
      "anonymous": false,
      "inputs": [
        {
          "indexed": true,
          "internalType": "address",
          "name": "owner",
          "type": "address"
        },
        {
          "indexed": true,
          "internalType": "address",
          "name": "operator",
          "type": "address"
        },
        {
          "indexed": false,
          "internalType": "bool",
          "name": "approved",
          "type": "bool"
        }
      ],
      "name": "ApprovalForAll",
      "type": "event"
    },
    {
      "anonymous": false,
      "inputs": [
        {
          "indexed": false,
          "internalType": "uint256",
          "name": "_fromTokenId",
          "type": "uint256"
        },
        {
          "indexed": false,
          "internalType": "uint256",
          "name": "_toTokenId",
          "type": "uint256"
        }
      ],
      "name": "BatchMetadataUpdate",
      "type": "event"
    },
    {
      "anonymous": false,
      "inputs": [
        {
          "indexed": false,
          "internalType": "uint256",
          "name": "_tokenId",
          "type": "uint256"
        }
      ],
      "name": "MetadataUpdate",
      "type": "event"
    },
    {
      "anonymous": false,
      "inputs": [
        {
          "indexed": true,
          "internalType": "address",
          "name": "from",
          "type": "address"
        },
        {
          "indexed": true,
          "internalType": "address",
          "name": "to",
          "type": "address"
        },
        {
          "indexed": true,
          "internalType": "uint256",
          "name": "tokenId",
          "type": "uint256"
        }
      ],
      "name": "Transfer",
      "type": "event"
    },
    {
      "inputs": [
        {
          "internalType": "address",
          "name": "to",
          "type": "address"
        },
        {
          "internalType": "uint256",
          "name": "tokenId",
          "type": "uint256"
        }
      ],
      "name": "approve",
      "outputs": [],
      "stateMutability": "nonpayable",
      "type": "function"
    },
    {
      "inputs": [
        {
          "internalType": "address",
          "name": "owner",
          "type": "address"
        }
      ],
      "name": "balanceOf",
      "outputs": [
        {
          "internalType": "uint256",
          "name": "",
          "type": "uint256"
        }
      ],
      "stateMutability": "view",
      "type": "function"
    },
    {
      "inputs": [
        {
          "internalType": "uint256",
          "name": "tokenId",
          "type": "uint256"
        }
      ],
      "name": "getApproved",
      "outputs": [
        {
          "internalType": "address",
          "name": "",
          "type": "address"
        }
      ],
      "stateMutability": "view",
      "type": "function"
    },
    {
      "inputs": [
        {
          "internalType": "address",
          "name": "owner",
          "type": "address"
        },
        {
          "internalType": "address",
          "name": "operator",
          "type": "address"
        }
      ],
      "name": "isApprovedForAll",
      "outputs": [
        {
          "internalType": "bool",
          "name": "",
          "type": "bool"
        }
      ],
      "stateMutability": "view",
      "type": "function"
    },
    {
      "inputs": [],
      "name": "maxItems",
      "outputs": [
        {
          "internalType": "uint256",
          "name": "",
          "type": "uint256"
        }
      ],
      "stateMutability": "view",
      "type": "function"
    },
    {
      "inputs": [],
      "name": "name",
      "outputs": [
        {
          "internalType": "string",
          "name": "",
          "type": "string"
        }
      ],
      "stateMutability": "view",
      "type": "function"
    },
    {
      "inputs": [
        {
          "internalType": "uint256",
          "name": "tokenId",
          "type": "uint256"
        }
      ],
      "name": "ownerOf",
      "outputs": [
        {
          "internalType": "address",
          "name": "",
          "type": "address"
        }
      ],
      "stateMutability": "view",
      "type": "function"
    },
    {
      "inputs": [
        {
          "internalType": "address",
          "name": "from",
          "type": "address"
        },
        {
          "internalType": "address",
          "name": "to",
          "type": "address"
        },
        {
          "internalType": "uint256",
          "name": "tokenId",
          "type": "uint256"
        }
      ],
      "name": "safeTransferFrom",
      "outputs": [],
      "stateMutability": "nonpayable",
      "type": "function"
    },
    {
      "inputs": [
        {
          "internalType": "address",
          "name": "from",
          "type": "address"
        },
        {
          "internalType": "address",
          "name": "to",
          "type": "address"
        },
        {
          "internalType": "uint256",
          "name": "tokenId",
          "type": "uint256"
        },
        {
          "internalType": "bytes",
          "name": "data",
          "type": "bytes"
        }
      ],
      "name": "safeTransferFrom",
      "outputs": [],
      "stateMutability": "nonpayable",
      "type": "function"
    },
    {
      "inputs": [
        {
          "internalType": "address",
          "name": "operator",
          "type": "address"
        },
        {
          "internalType": "bool",
          "name": "approved",
          "type": "bool"
        }
      ],
      "name": "setApprovalForAll",
      "outputs": [],
      "stateMutability": "nonpayable",
      "type": "function"
    },
    {
      "inputs": [
        {
          "internalType": "bytes4",
          "name": "interfaceId",
          "type": "bytes4"
        }
      ],
      "name": "supportsInterface",
      "outputs": [
        {
          "internalType": "bool",
          "name": "",
          "type": "bool"
        }
      ],
      "stateMutability": "view",
      "type": "function"
    },
    {
      "inputs": [],
      "name": "symbol",
      "outputs": [
        {
          "internalType": "string",
          "name": "",
          "type": "string"
        }
      ],
      "stateMutability": "view",
      "type": "function"
    },
    {
      "inputs": [],
      "name": "tokenCount",
      "outputs": [
        {
          "internalType": "uint256",
          "name": "",
          "type": "uint256"
        }
      ],
      "stateMutability": "view",
      "type": "function"
    },
    {
      "inputs": [
        {
          "internalType": "uint256",
          "name": "tokenId",
          "type": "uint256"
        }
      ],
      "name": "tokenURI",
      "outputs": [
        {
          "internalType": "string",
          "name": "",
          "type": "string"
        }
      ],
      "stateMutability": "view",
      "type": "function"
    },
    {
      "inputs": [
        {
          "internalType": "address",
          "name": "from",
          "type": "address"
        },
        {
          "internalType": "address",
          "name": "to",
          "type": "address"
        },
        {
          "internalType": "uint256",
          "name": "tokenId",
          "type": "uint256"
        }
      ],
      "name": "transferFrom",
      "outputs": [],
      "stateMutability": "nonpayable",
      "type": "function"
    },
    {
      "inputs": [
        {
          "internalType": "address",
          "name": "sender",
          "type": "address"
        },
        {
          "internalType": "string",
          "name": "_tokenURI",
          "type": "string"
        }
      ],
      "name": "mint",
      "outputs": [
        {
          "internalType": "uint256",
          "name": "",
          "type": "uint256"
        }
      ],
      "stateMutability": "nonpayable",
      "type": "function"
    }
  ],
  "bytecode": "0x60806040523480156200001157600080fd5b5060405162002fa938038062002fa98339818101604052810190620000379190620001b6565b82828160009080519060200190620000519291906200007d565b5080600190805190602001906200006a9291906200007d565b50505080600881905550505050620003d2565b8280546200008b90620002dd565b90600052602060002090601f016020900481019282620000af5760008555620000fb565b82601f10620000ca57805160ff1916838001178555620000fb565b82800160010185558215620000fb579182015b82811115620000fa578251825591602001919060010190620000dd565b5b5090506200010a91906200010e565b5090565b5b80821115620001295760008160009055506001016200010f565b5090565b6000620001446200013e8462000267565b6200023e565b9050828152602081018484840111156200015d57600080fd5b6200016a848285620002a7565b509392505050565b600082601f8301126200018457600080fd5b8151620001968482602086016200012d565b91505092915050565b600081519050620001b081620003b8565b92915050565b600080600060608486031215620001cc57600080fd5b600084015167ffffffffffffffff811115620001e757600080fd5b620001f58682870162000172565b935050602084015167ffffffffffffffff8111156200021357600080fd5b620002218682870162000172565b925050604062000234868287016200019f565b9150509250925092565b60006200024a6200025d565b905062000258828262000313565b919050565b6000604051905090565b600067ffffffffffffffff82111562000285576200028462000378565b5b6200029082620003a7565b9050602081019050919050565b6000819050919050565b60005b83811015620002c7578082015181840152602081019050620002aa565b83811115620002d7576000848401525b50505050565b60006002820490506001821680620002f657607f821691505b602082108114156200030d576200030c62000349565b5b50919050565b6200031e82620003a7565b810181811067ffffffffffffffff8211171562000340576200033f62000378565b5b80604052505050565b7f4e487b7100000000000000000000000000000000000000000000000000000000600052602260045260246000fd5b7f4e487b7100000000000000000000000000000000000000000000000000000000600052604160045260246000fd5b6000601f19601f8301169050919050565b620003c3816200029d565b8114620003cf57600080fd5b50565b612bc780620003e26000396000f3fe608060405234801561001057600080fd5b50600436106101005760003560e01c806370a0823111610097578063b88d4fde11610066578063b88d4fde146102ad578063c87b56dd146102c9578063d0def521146102f9578063e985e9c51461032957610100565b806370a082311461022557806395d89b41146102555780639f181b5e14610273578063a22cb4651461029157610100565b806323b872dd116100d357806323b872dd1461019f5780633c010a3e146101bb57806342842e0e146101d95780636352211e146101f557610100565b806301ffc9a71461010557806306fdde0314610135578063081812fc14610153578063095ea7b314610183575b600080fd5b61011f600480360381019061011a9190611f91565b610359565b60405161012c919061232e565b60405180910390f35b61013d6103ba565b60405161014a9190612349565b60405180910390f35b61016d60048036038101906101689190611fe3565b61044c565b60405161017a91906122c7565b60405180910390f35b61019d60048036038101906101989190611f55565b610492565b005b6101b960048036038101906101b49190611dfb565b6105aa565b005b6101c361060a565b6040516101d0919061250b565b60405180910390f35b6101f360048036038101906101ee9190611dfb565b610610565b005b61020f600480360381019061020a9190611fe3565b610630565b60405161021c91906122c7565b60405180910390f35b61023f600480360381019061023a9190611d96565b6106b7565b60405161024c919061250b565b60405180910390f35b61025d61076f565b60405161026a9190612349565b60405180910390f35b61027b610801565b604051610288919061250b565b60405180910390f35b6102ab60048036038101906102a69190611ec5565b610807565b005b6102c760048036038101906102c29190611e4a565b61081d565b005b6102e360048036038101906102de9190611fe3565b61087f565b6040516102f09190612349565b60405180910390f35b610313600480360381019061030e9190611f01565b610992565b604051610320919061250b565b60405180910390f35b610343600480360381019061033e9190611dbf565b610a16565b604051610350919061232e565b60405180910390f35b6000634906490660e01b7bffffffffffffffffffffffffffffffffffffffffffffffffffffffff1916827bffffffffffffffffffffffffffffffffffffffffffffffffffffffff191614806103b357506103b282610aaa565b5b9050919050565b6060600080546103c9906126a6565b80601f01602080910402602001604051908101604052809291908181526020018280546103f5906126a6565b80156104425780601f1061041757610100808354040283529160200191610442565b820191906000526020600020905b81548152906001019060200180831161042557829003601f168201915b5050505050905090565b600061045782610b8c565b6004600083815260200190815260200160002060009054906101000a900473ffffffffffffffffffffffffffffffffffffffff169050919050565b600061049d82610630565b90508073ffffffffffffffffffffffffffffffffffffffff168373ffffffffffffffffffffffffffffffffffffffff16141561050e576040517f08c379a0000000000000000000000000000000000000000000000000000000008152600401610505906124cb565b60405180910390fd5b8073ffffffffffffffffffffffffffffffffffffffff1661052d610bd7565b73ffffffffffffffffffffffffffffffffffffffff16148061055c575061055b81610556610bd7565b610a16565b5b61059b576040517f08c379a0000000000000000000000000000000000000000000000000000000008152600401610592906124eb565b60405180910390fd5b6105a58383610bdf565b505050565b6105bb6105b5610bd7565b82610c98565b6105fa576040517f08c379a00000000000000000000000000000000000000000000000000000000081526004016105f19061236b565b60405180910390fd5b610605838383610d2d565b505050565b60085481565b61062b8383836040518060200160405280600081525061081d565b505050565b60008061063c83611027565b9050600073ffffffffffffffffffffffffffffffffffffffff168173ffffffffffffffffffffffffffffffffffffffff1614156106ae576040517f08c379a00000000000000000000000000000000000000000000000000000000081526004016106a5906124ab565b60405180910390fd5b80915050919050565b60008073ffffffffffffffffffffffffffffffffffffffff168273ffffffffffffffffffffffffffffffffffffffff161415610728576040517f08c379a000000000000000000000000000000000000000000000000000000000815260040161071f9061242b565b60405180910390fd5b600360008373ffffffffffffffffffffffffffffffffffffffff1673ffffffffffffffffffffffffffffffffffffffff168152602001908152602001600020549050919050565b60606001805461077e906126a6565b80601f01602080910402602001604051908101604052809291908181526020018280546107aa906126a6565b80156107f75780601f106107cc576101008083540402835291602001916107f7565b820191906000526020600020905b8154815290600101906020018083116107da57829003601f168201915b5050505050905090565b60075481565b610819610812610bd7565b8383611064565b5050565b61082e610828610bd7565b83610c98565b61086d576040517f08c379a00000000000000000000000000000000000000000000000000000000081526004016108649061236b565b60405180910390fd5b610879848484846111d1565b50505050565b606061088a82610b8c565b60006006600084815260200190815260200160002080546108aa906126a6565b80601f01602080910402602001604051908101604052809291908181526020018280546108d6906126a6565b80156109235780601f106108f857610100808354040283529160200191610923565b820191906000526020600020905b81548152906001019060200180831161090657829003601f168201915b50505050509050600061093461122d565b905060008151141561094a57819250505061098d565b60008251111561097f5780826040516020016109679291906122a3565b6040516020818303038152906040529250505061098d565b61098884611244565b925050505b919050565b6000600760008154809291906109a790612709565b919050555060075460085411156109f3576040517f08c379a00000000000000000000000000000000000000000000000000000000081526004016109ea9061248b565b60405180910390fd5b6109ff836007546112ac565b610a0b600754836112ca565b600754905092915050565b6000600560008473ffffffffffffffffffffffffffffffffffffffff1673ffffffffffffffffffffffffffffffffffffffff16815260200190815260200160002060008373ffffffffffffffffffffffffffffffffffffffff1673ffffffffffffffffffffffffffffffffffffffff16815260200190815260200160002060009054906101000a900460ff16905092915050565b60007f80ac58cd000000000000000000000000000000000000000000000000000000007bffffffffffffffffffffffffffffffffffffffffffffffffffffffff1916827bffffffffffffffffffffffffffffffffffffffffffffffffffffffff19161480610b7557507f5b5e139f000000000000000000000000000000000000000000000000000000007bffffffffffffffffffffffffffffffffffffffffffffffffffffffff1916827bffffffffffffffffffffffffffffffffffffffffffffffffffffffff1916145b80610b855750610b8482611375565b5b9050919050565b610b95816113df565b610bd4576040517f08c379a0000000000000000000000000000000000000000000000000000000008152600401610bcb906124ab565b60405180910390fd5b50565b600033905090565b816004600083815260200190815260200160002060006101000a81548173ffffffffffffffffffffffffffffffffffffffff021916908373ffffffffffffffffffffffffffffffffffffffff160217905550808273ffffffffffffffffffffffffffffffffffffffff16610c5283610630565b73ffffffffffffffffffffffffffffffffffffffff167f8c5be1e5ebec7d5bd14f71427d1e84f3dd0314c0f7b2291e5b200ac8c7c3b92560405160405180910390a45050565b600080610ca483610630565b90508073ffffffffffffffffffffffffffffffffffffffff168473ffffffffffffffffffffffffffffffffffffffff161480610ce65750610ce58185610a16565b5b80610d2457508373ffffffffffffffffffffffffffffffffffffffff16610d0c8461044c565b73ffffffffffffffffffffffffffffffffffffffff16145b91505092915050565b8273ffffffffffffffffffffffffffffffffffffffff16610d4d82610630565b73ffffffffffffffffffffffffffffffffffffffff1614610da3576040517f08c379a0000000000000000000000000000000000000000000000000000000008152600401610d9a906123ab565b60405180910390fd5b600073ffffffffffffffffffffffffffffffffffffffff168273ffffffffffffffffffffffffffffffffffffffff161415610e13576040517f08c379a0000000000000000000000000000000000000000000000000000000008152600401610e0a906123eb565b60405180910390fd5b610e208383836001611420565b8273ffffffffffffffffffffffffffffffffffffffff16610e4082610630565b73ffffffffffffffffffffffffffffffffffffffff1614610e96576040517f08c379a0000000000000000000000000000000000000000000000000000000008152600401610e8d906123ab565b60405180910390fd5b6004600082815260200190815260200160002060006101000a81549073ffffffffffffffffffffffffffffffffffffffff02191690556001600360008573ffffffffffffffffffffffffffffffffffffffff1673ffffffffffffffffffffffffffffffffffffffff168152602001908152602001600020600082825403925050819055506001600360008473ffffffffffffffffffffffffffffffffffffffff1673ffffffffffffffffffffffffffffffffffffffff16815260200190815260200160002060008282540192505081905550816002600083815260200190815260200160002060006101000a81548173ffffffffffffffffffffffffffffffffffffffff021916908373ffffffffffffffffffffffffffffffffffffffff160217905550808273ffffffffffffffffffffffffffffffffffffffff168473ffffffffffffffffffffffffffffffffffffffff167fddf252ad1be2c89b69c2b068fc378daa952ba7f163c4a11628f55a4df523b3ef60405160405180910390a46110228383836001611426565b505050565b60006002600083815260200190815260200160002060009054906101000a900473ffffffffffffffffffffffffffffffffffffffff169050919050565b8173ffffffffffffffffffffffffffffffffffffffff168373ffffffffffffffffffffffffffffffffffffffff1614156110d3576040517f08c379a00000000000000000000000000000000000000000000000000000000081526004016110ca9061240b565b60405180910390fd5b80600560008573ffffffffffffffffffffffffffffffffffffffff1673ffffffffffffffffffffffffffffffffffffffff16815260200190815260200160002060008473ffffffffffffffffffffffffffffffffffffffff1673ffffffffffffffffffffffffffffffffffffffff16815260200190815260200160002060006101000a81548160ff0219169083151502179055508173ffffffffffffffffffffffffffffffffffffffff168373ffffffffffffffffffffffffffffffffffffffff167f17307eab39ab6107e8899845ad3d59bd9653f200f220920489ca2b5937696c31836040516111c4919061232e565b60405180910390a3505050565b6111dc848484610d2d565b6111e88484848461142c565b611227576040517f08c379a000000000000000000000000000000000000000000000000000000000815260040161121e9061238b565b60405180910390fd5b50505050565b606060405180602001604052806000815250905090565b606061124f82610b8c565b600061125961122d565b9050600081511161127957604051806020016040528060008152506112a4565b80611283846115c3565b6040516020016112949291906122a3565b6040516020818303038152906040525b915050919050565b6112c68282604051806020016040528060008152506116e7565b5050565b6112d3826113df565b611312576040517f08c379a00000000000000000000000000000000000000000000000000000000081526004016113099061244b565b60405180910390fd5b80600660008481526020019081526020016000209080519060200190611339929190611bba565b507ff8e1a15aba9398e019f0b49df1a4fde98ee17ae345cb5f6b5e2c27f5033e8ce782604051611369919061250b565b60405180910390a15050565b60007f01ffc9a7000000000000000000000000000000000000000000000000000000007bffffffffffffffffffffffffffffffffffffffffffffffffffffffff1916827bffffffffffffffffffffffffffffffffffffffffffffffffffffffff1916149050919050565b60008073ffffffffffffffffffffffffffffffffffffffff1661140183611027565b73ffffffffffffffffffffffffffffffffffffffff1614159050919050565b50505050565b50505050565b600061144d8473ffffffffffffffffffffffffffffffffffffffff16611742565b156115b6578373ffffffffffffffffffffffffffffffffffffffff1663150b7a02611476610bd7565b8786866040518563ffffffff1660e01b815260040161149894939291906122e2565b602060405180830381600087803b1580156114b257600080fd5b505af19250505080156114e357506040513d601f19601f820116820180604052508101906114e09190611fba565b60015b611566573d8060008114611513576040519150601f19603f3d011682016040523d82523d6000602084013e611518565b606091505b5060008151141561155e576040517f08c379a00000000000000000000000000000000000000000000000000000000081526004016115559061238b565b60405180910390fd5b805181602001fd5b63150b7a0260e01b7bffffffffffffffffffffffffffffffffffffffffffffffffffffffff1916817bffffffffffffffffffffffffffffffffffffffffffffffffffffffff1916149150506115bb565b600190505b949350505050565b6060600060016115d284611765565b01905060008167ffffffffffffffff811115611617577f4e487b7100000000000000000000000000000000000000000000000000000000600052604160045260246000fd5b6040519080825280601f01601f1916602001820160405280156116495781602001600182028036833780820191505090505b509050600082602001820190505b6001156116dc578080600190039150507f3031323334353637383961626364656600000000000000000000000000000000600a86061a8153600a85816116c6577f4e487b7100000000000000000000000000000000000000000000000000000000600052601260045260246000fd5b04945060008514156116d7576116dc565b611657565b819350505050919050565b6116f1838361199c565b6116fe600084848461142c565b61173d576040517f08c379a00000000000000000000000000000000000000000000000000000000081526004016117349061238b565b60405180910390fd5b505050565b6000808273ffffffffffffffffffffffffffffffffffffffff163b119050919050565b600080600090507a184f03e93ff9f4daa797ed6e38ed64bf6a1f01000000000000000083106117e9577a184f03e93ff9f4daa797ed6e38ed64bf6a1f01000000000000000083816117df577f4e487b7100000000000000000000000000000000000000000000000000000000600052601260045260246000fd5b0492506040810190505b6d04ee2d6d415b85acef8100000000831061184c576d04ee2d6d415b85acef81000000008381611842577f4e487b7100000000000000000000000000000000000000000000000000000000600052601260045260246000fd5b0492506020810190505b662386f26fc1000083106118a157662386f26fc100008381611897577f4e487b7100000000000000000000000000000000000000000000000000000000600052601260045260246000fd5b0492506010810190505b6305f5e10083106118f0576305f5e10083816118e6577f4e487b7100000000000000000000000000000000000000000000000000000000600052601260045260246000fd5b0492506008810190505b612710831061193b576127108381611931577f4e487b7100000000000000000000000000000000000000000000000000000000600052601260045260246000fd5b0492506004810190505b60648310611984576064838161197a577f4e487b7100000000000000000000000000000000000000000000000000000000600052601260045260246000fd5b0492506002810190505b600a8310611993576001810190505b80915050919050565b600073ffffffffffffffffffffffffffffffffffffffff168273ffffffffffffffffffffffffffffffffffffffff161415611a0c576040517f08c379a0000000000000000000000000000000000000000000000000000000008152600401611a039061246b565b60405180910390fd5b611a15816113df565b15611a55576040517f08c379a0000000000000000000000000000000000000000000000000000000008152600401611a4c906123cb565b60405180910390fd5b611a63600083836001611420565b611a6c816113df565b15611aac576040517f08c379a0000000000000000000000000000000000000000000000000000000008152600401611aa3906123cb565b60405180910390fd5b6001600360008473ffffffffffffffffffffffffffffffffffffffff1673ffffffffffffffffffffffffffffffffffffffff16815260200190815260200160002060008282540192505081905550816002600083815260200190815260200160002060006101000a81548173ffffffffffffffffffffffffffffffffffffffff021916908373ffffffffffffffffffffffffffffffffffffffff160217905550808273ffffffffffffffffffffffffffffffffffffffff16600073ffffffffffffffffffffffffffffffffffffffff167fddf252ad1be2c89b69c2b068fc378daa952ba7f163c4a11628f55a4df523b3ef60405160405180910390a4611bb6600083836001611426565b5050565b828054611bc6906126a6565b90600052602060002090601f016020900481019282611be85760008555611c2f565b82601f10611c0157805160ff1916838001178555611c2f565b82800160010185558215611c2f579182015b82811115611c2e578251825591602001919060010190611c13565b5b509050611c3c9190611c40565b5090565b5b80821115611c59576000816000905550600101611c41565b5090565b6000611c70611c6b8461254b565b612526565b905082815260208101848484011115611c8857600080fd5b611c93848285612664565b509392505050565b6000611cae611ca98461257c565b612526565b905082815260208101848484011115611cc657600080fd5b611cd1848285612664565b509392505050565b600081359050611ce881612b35565b92915050565b600081359050611cfd81612b4c565b92915050565b600081359050611d1281612b63565b92915050565b600081519050611d2781612b63565b92915050565b600082601f830112611d3e57600080fd5b8135611d4e848260208601611c5d565b91505092915050565b600082601f830112611d6857600080fd5b8135611d78848260208601611c9b565b91505092915050565b600081359050611d9081612b7a565b92915050565b600060208284031215611da857600080fd5b6000611db684828501611cd9565b91505092915050565b60008060408385031215611dd257600080fd5b6000611de085828601611cd9565b9250506020611df185828601611cd9565b9150509250929050565b600080600060608486031215611e1057600080fd5b6000611e1e86828701611cd9565b9350506020611e2f86828701611cd9565b9250506040611e4086828701611d81565b9150509250925092565b60008060008060808587031215611e6057600080fd5b6000611e6e87828801611cd9565b9450506020611e7f87828801611cd9565b9350506040611e9087828801611d81565b925050606085013567ffffffffffffffff811115611ead57600080fd5b611eb987828801611d2d565b91505092959194509250565b60008060408385031215611ed857600080fd5b6000611ee685828601611cd9565b9250506020611ef785828601611cee565b9150509250929050565b60008060408385031215611f1457600080fd5b6000611f2285828601611cd9565b925050602083013567ffffffffffffffff811115611f3f57600080fd5b611f4b85828601611d57565b9150509250929050565b60008060408385031215611f6857600080fd5b6000611f7685828601611cd9565b9250506020611f8785828601611d81565b9150509250929050565b600060208284031215611fa357600080fd5b6000611fb184828501611d03565b91505092915050565b600060208284031215611fcc57600080fd5b6000611fda84828501611d18565b91505092915050565b600060208284031215611ff557600080fd5b600061200384828501611d81565b91505092915050565b612015816125f0565b82525050565b61202481612602565b82525050565b6000612035826125ad565b61203f81856125c3565b935061204f818560208601612673565b612058816127df565b840191505092915050565b600061206e826125b8565b61207881856125d4565b9350612088818560208601612673565b612091816127df565b840191505092915050565b60006120a7826125b8565b6120b181856125e5565b93506120c1818560208601612673565b80840191505092915050565b60006120da602d836125d4565b91506120e5826127f0565b604082019050919050565b60006120fd6032836125d4565b91506121088261283f565b604082019050919050565b60006121206025836125d4565b915061212b8261288e565b604082019050919050565b6000612143601c836125d4565b915061214e826128dd565b602082019050919050565b60006121666024836125d4565b915061217182612906565b604082019050919050565b60006121896019836125d4565b915061219482612955565b602082019050919050565b60006121ac6029836125d4565b91506121b78261297e565b604082019050919050565b60006121cf602e836125d4565b91506121da826129cd565b604082019050919050565b60006121f26020836125d4565b91506121fd82612a1c565b602082019050919050565b6000612215600b836125d4565b915061222082612a45565b602082019050919050565b60006122386018836125d4565b915061224382612a6e565b602082019050919050565b600061225b6021836125d4565b915061226682612a97565b604082019050919050565b600061227e603d836125d4565b915061228982612ae6565b604082019050919050565b61229d8161265a565b82525050565b60006122af828561209c565b91506122bb828461209c565b91508190509392505050565b60006020820190506122dc600083018461200c565b92915050565b60006080820190506122f7600083018761200c565b612304602083018661200c565b6123116040830185612294565b8181036060830152612323818461202a565b905095945050505050565b6000602082019050612343600083018461201b565b92915050565b600060208201905081810360008301526123638184612063565b905092915050565b60006020820190508181036000830152612384816120cd565b9050919050565b600060208201905081810360008301526123a4816120f0565b9050919050565b600060208201905081810360008301526123c481612113565b9050919050565b600060208201905081810360008301526123e481612136565b9050919050565b6000602082019050818103600083015261240481612159565b9050919050565b600060208201905081810360008301526124248161217c565b9050919050565b600060208201905081810360008301526124448161219f565b9050919050565b60006020820190508181036000830152612464816121c2565b9050919050565b60006020820190508181036000830152612484816121e5565b9050919050565b600060208201905081810360008301526124a481612208565b9050919050565b600060208201905081810360008301526124c48161222b565b9050919050565b600060208201905081810360008301526124e48161224e565b9050919050565b6000602082019050818103600083015261250481612271565b9050919050565b60006020820190506125206000830184612294565b92915050565b6000612530612541565b905061253c82826126d8565b919050565b6000604051905090565b600067ffffffffffffffff821115612566576125656127b0565b5b61256f826127df565b9050602081019050919050565b600067ffffffffffffffff821115612597576125966127b0565b5b6125a0826127df565b9050602081019050919050565b600081519050919050565b600081519050919050565b600082825260208201905092915050565b600082825260208201905092915050565b600081905092915050565b60006125fb8261263a565b9050919050565b60008115159050919050565b60007fffffffff0000000000000000000000000000000000000000000000000000000082169050919050565b600073ffffffffffffffffffffffffffffffffffffffff82169050919050565b6000819050919050565b82818337600083830152505050565b60005b83811015612691578082015181840152602081019050612676565b838111156126a0576000848401525b50505050565b600060028204905060018216806126be57607f821691505b602082108114156126d2576126d1612781565b5b50919050565b6126e1826127df565b810181811067ffffffffffffffff82111715612700576126ff6127b0565b5b80604052505050565b60006127148261265a565b91507fffffffffffffffffffffffffffffffffffffffffffffffffffffffffffffffff82141561274757612746612752565b5b600182019050919050565b7f4e487b7100000000000000000000000000000000000000000000000000000000600052601160045260246000fd5b7f4e487b7100000000000000000000000000000000000000000000000000000000600052602260045260246000fd5b7f4e487b7100000000000000000000000000000000000000000000000000000000600052604160045260246000fd5b6000601f19601f8301169050919050565b7f4552433732313a2063616c6c6572206973206e6f7420746f6b656e206f776e6560008201527f72206f7220617070726f76656400000000000000000000000000000000000000602082015250565b7f4552433732313a207472616e7366657220746f206e6f6e20455243373231526560008201527f63656976657220696d706c656d656e7465720000000000000000000000000000602082015250565b7f4552433732313a207472616e736665722066726f6d20696e636f72726563742060008201527f6f776e6572000000000000000000000000000000000000000000000000000000602082015250565b7f4552433732313a20746f6b656e20616c7265616479206d696e74656400000000600082015250565b7f4552433732313a207472616e7366657220746f20746865207a65726f2061646460008201527f7265737300000000000000000000000000000000000000000000000000000000602082015250565b7f4552433732313a20617070726f766520746f2063616c6c657200000000000000600082015250565b7f4552433732313a2061646472657373207a65726f206973206e6f74206120766160008201527f6c6964206f776e65720000000000000000000000000000000000000000000000602082015250565b7f45524337323155524953746f726167653a2055524920736574206f66206e6f6e60008201527f6578697374656e7420746f6b656e000000000000000000000000000000000000602082015250565b7f4552433732313a206d696e7420746f20746865207a65726f2061646472657373600082015250565b7f4974656d73206c696d6974000000000000000000000000000000000000000000600082015250565b7f4552433732313a20696e76616c696420746f6b656e2049440000000000000000600082015250565b7f4552433732313a20617070726f76616c20746f2063757272656e74206f776e6560008201527f7200000000000000000000000000000000000000000000000000000000000000602082015250565b7f4552433732313a20617070726f76652063616c6c6572206973206e6f7420746f60008201527f6b656e206f776e6572206f7220617070726f76656420666f7220616c6c000000602082015250565b612b3e816125f0565b8114612b4957600080fd5b50565b612b5581612602565b8114612b6057600080fd5b50565b612b6c8161260e565b8114612b7757600080fd5b50565b612b838161265a565b8114612b8e57600080fd5b5056fea264697066735822122013cfb069a68cd82a512548be954e23e925e7933a4fe2725e389cc242f805833264736f6c63430008010033",
  "immutableReferences": {},
  "source": "// SPDX-License-Identifier: MIT\npragma solidity ^0.8.0;\n\nimport \"@openzeppelin/contracts/token/ERC721/extensions/ERC721URIStorage.sol\";\nimport \"@openzeppelin/contracts/token/ERC721/ERC721.sol\";\n\ncontract CertNftColl is ERC721URIStorage {\n    uint public tokenCount;\n    uint public maxItems;\n    \n    constructor(string memory _name, string memory _abre, uint256 _maxItems) ERC721(_name, _abre){\n        maxItems = _maxItems;\n    }\n    \n\n    function mint(address sender, string memory _tokenURI) external returns(uint) {\n\n        tokenCount ++;\n        require(maxItems <= tokenCount, \"Items limit\");\n        _safeMint(sender, tokenCount);\n        _setTokenURI(tokenCount, _tokenURI);\n        return(tokenCount);\n    }\n\n\n    \n}",
  "sourcePath": "C:\\Users\\envis\\Desktop\\Projectes\\Regular Solids\\Y\\Landing\\contracts\\certNftColl.sol",
  "compiler": {
    "name": "solc",
    "version": "0.8.1+commit.df193b15.Emscripten.clang"
  },
  "schemaVersion": "3.4.15",
  "updatedAt": "2023-10-04T16:06:33.357Z",
  "devdoc": {
    "kind": "dev",
    "methods": {
      "approve(address,uint256)": {
        "details": "See {IERC721-approve}."
      },
      "balanceOf(address)": {
        "details": "See {IERC721-balanceOf}."
      },
      "getApproved(uint256)": {
        "details": "See {IERC721-getApproved}."
      },
      "isApprovedForAll(address,address)": {
        "details": "See {IERC721-isApprovedForAll}."
      },
      "name()": {
        "details": "See {IERC721Metadata-name}."
      },
      "ownerOf(uint256)": {
        "details": "See {IERC721-ownerOf}."
      },
      "safeTransferFrom(address,address,uint256)": {
        "details": "See {IERC721-safeTransferFrom}."
      },
      "safeTransferFrom(address,address,uint256,bytes)": {
        "details": "See {IERC721-safeTransferFrom}."
      },
      "setApprovalForAll(address,bool)": {
        "details": "See {IERC721-setApprovalForAll}."
      },
      "supportsInterface(bytes4)": {
        "details": "See {IERC165-supportsInterface}"
      },
      "symbol()": {
        "details": "See {IERC721Metadata-symbol}."
      },
      "tokenURI(uint256)": {
        "details": "See {IERC721Metadata-tokenURI}."
      },
      "transferFrom(address,address,uint256)": {
        "details": "See {IERC721-transferFrom}."
      }
    },
    "version": 1
  },
  "userdoc": {
    "kind": "user",
    "methods": {},
    "version": 1
  }
}