{
  "contractName": "FoundStore",
  "abi": [
    {
      "inputs": [],
      "name": "transferIn",
      "outputs": [],
      "stateMutability": "payable",
      "type": "function",
      "payable": true
    },
    {
      "inputs": [
        {
          "internalType": "address",
          "name": "to",
          "type": "address"
        },
        {
          "internalType": "uint256",
          "name": "amount",
          "type": "uint256"
        }
      ],
      "name": "transferOut",
      "outputs": [],
      "stateMutability": "nonpayable",
      "type": "function"
    }
  ],
  "bytecode": "0x608060405234801561001057600080fd5b5060016000819055506105ab806100286000396000f3fe6080604052600436106100295760003560e01c806303472fa41461002e57806376890c5814610038575b600080fd5b610036610061565b005b34801561004457600080fd5b5061005f600480360381019061005a91906102a2565b6100a7565b005b60003410156100a5576040517f08c379a000000000000000000000000000000000000000000000000000000000815260040161009c906103e2565b60405180910390fd5b565b6100af61012a565b60008114806100ea5750600073ffffffffffffffffffffffffffffffffffffffff168273ffffffffffffffffffffffffffffffffffffffff16145b156100f45761011e565b61011d818373ffffffffffffffffffffffffffffffffffffffff1661017a90919063ffffffff16565b5b61012661026e565b5050565b60026000541415610170576040517f08c379a000000000000000000000000000000000000000000000000000000000815260040161016790610402565b60405180910390fd5b6002600081905550565b804710156101bd576040517f08c379a00000000000000000000000000000000000000000000000000000000081526004016101b4906103c2565b60405180910390fd5b60008273ffffffffffffffffffffffffffffffffffffffff16826040516101e39061038d565b60006040518083038185875af1925050503d8060008114610220576040519150601f19603f3d011682016040523d82523d6000602084013e610225565b606091505b5050905080610269576040517f08c379a0000000000000000000000000000000000000000000000000000000008152600401610260906103a2565b60405180910390fd5b505050565b6001600081905550565b60008135905061028781610547565b92915050565b60008135905061029c8161055e565b92915050565b600080604083850312156102b557600080fd5b60006102c385828601610278565b92505060206102d48582860161028d565b9150509250929050565b60006102eb603a8361042d565b91506102f68261047a565b604082019050919050565b600061030e601d8361042d565b9150610319826104c9565b602082019050919050565b600061033160148361042d565b915061033c826104f2565b602082019050919050565b6000610354600083610422565b915061035f8261051b565b600082019050919050565b6000610377601f8361042d565b91506103828261051e565b602082019050919050565b600061039882610347565b9150819050919050565b600060208201905081810360008301526103bb816102de565b9050919050565b600060208201905081810360008301526103db81610301565b9050919050565b600060208201905081810360008301526103fb81610324565b9050919050565b6000602082019050818103600083015261041b8161036a565b9050919050565b600081905092915050565b600082825260208201905092915050565b600061044982610450565b9050919050565b600073ffffffffffffffffffffffffffffffffffffffff82169050919050565b6000819050919050565b7f416464726573733a20756e61626c6520746f2073656e642076616c75652c207260008201527f6563697069656e74206d61792068617665207265766572746564000000000000602082015250565b7f416464726573733a20696e73756666696369656e742062616c616e6365000000600082015250565b7f496e73756666696369656e74207061796d656e74000000000000000000000000600082015250565b50565b7f5265656e7472616e637947756172643a207265656e7472616e742063616c6c00600082015250565b6105508161043e565b811461055b57600080fd5b50565b61056781610470565b811461057257600080fd5b5056fea2646970667358221220e20422bc1b7b4b0db253a808a2a7bf80cfffe36ec045eb2e5135acbdb52b7a4264736f6c63430008010033",
  "immutableReferences": {},
  "source": "// SPDX-License-Identifier: BUSL-1.1\r\npragma solidity ^0.8.0;\r\n\r\nimport '@openzeppelin/contracts/security/ReentrancyGuard.sol';\r\nimport '@openzeppelin/contracts/token/ERC20/utils/SafeERC20.sol';\r\n\r\n\r\ncontract FoundStore is ReentrancyGuard {\r\n    // Libraries\r\n    using SafeERC20 for IERC20;\r\n    using Address for address payable;\r\n\r\n\r\n    function transferIn() external payable {\r\n        require(msg.value >= 0, \"Insufficient payment\");\r\n\r\n    }\r\n\r\n    function transferOut(address to, uint256 amount) external nonReentrant {\r\n        if (amount == 0 || to == address(0)) return;\r\n        payable(to).sendValue(amount);\r\n    }\r\n}",
  "sourcePath": "C:\\Users\\envis\\Desktop\\Projectes\\Regular Solids\\Y\\Landing\\contracts\\FoundStore.sol",
  "compiler": {
    "name": "solc",
    "version": "0.8.1+commit.df193b15.Emscripten.clang"
  },
  "schemaVersion": "3.4.15",
  "updatedAt": "2023-10-04T16:06:38.525Z",
  "networkType": "ethereum",
  "devdoc": {
    "kind": "dev",
    "methods": {},
    "version": 1
  },
  "userdoc": {
    "kind": "user",
    "methods": {},
    "version": 1
  }
}