{
  "contractName": "MyNFT",
  "abi": [
    {
      "inputs": [],
      "stateMutability": "nonpayable",
      "type": "constructor"
    },
    {
      "anonymous": false,
      "inputs": [
        {
          "indexed": true,
          "internalType": "address",
          "name": "owner",
          "type": "address"
        },
        {
          "indexed": true,
          "internalType": "address",
          "name": "approved",
          "type": "address"
        },
        {
          "indexed": true,
          "internalType": "uint256",
          "name": "tokenId",
          "type": "uint256"
        }
      ],
      "name": "Approval",
      "type": "event"
    },
    {
      "anonymous": false,
      "inputs": [
        {
          "indexed": true,
          "internalType": "address",
          "name": "owner",
          "type": "address"
        },
        {
          "indexed": true,
          "internalType": "address",
          "name": "operator",
          "type": "address"
        },
        {
          "indexed": false,
          "internalType": "bool",
          "name": "approved",
          "type": "bool"
        }
      ],
      "name": "ApprovalForAll",
      "type": "event"
    },
    {
      "anonymous": false,
      "inputs": [
        {
          "indexed": false,
          "internalType": "uint256",
          "name": "_fromTokenId",
          "type": "uint256"
        },
        {
          "indexed": false,
          "internalType": "uint256",
          "name": "_toTokenId",
          "type": "uint256"
        }
      ],
      "name": "BatchMetadataUpdate",
      "type": "event"
    },
    {
      "anonymous": false,
      "inputs": [
        {
          "indexed": false,
          "internalType": "uint256",
          "name": "_tokenId",
          "type": "uint256"
        }
      ],
      "name": "MetadataUpdate",
      "type": "event"
    },
    {
      "anonymous": false,
      "inputs": [
        {
          "indexed": true,
          "internalType": "address",
          "name": "from",
          "type": "address"
        },
        {
          "indexed": true,
          "internalType": "address",
          "name": "to",
          "type": "address"
        },
        {
          "indexed": true,
          "internalType": "uint256",
          "name": "tokenId",
          "type": "uint256"
        }
      ],
      "name": "Transfer",
      "type": "event"
    },
    {
      "inputs": [
        {
          "internalType": "address",
          "name": "to",
          "type": "address"
        },
        {
          "internalType": "uint256",
          "name": "tokenId",
          "type": "uint256"
        }
      ],
      "name": "approve",
      "outputs": [],
      "stateMutability": "nonpayable",
      "type": "function"
    },
    {
      "inputs": [
        {
          "internalType": "address",
          "name": "owner",
          "type": "address"
        }
      ],
      "name": "balanceOf",
      "outputs": [
        {
          "internalType": "uint256",
          "name": "",
          "type": "uint256"
        }
      ],
      "stateMutability": "view",
      "type": "function",
      "constant": true
    },
    {
      "inputs": [
        {
          "internalType": "uint256",
          "name": "tokenId",
          "type": "uint256"
        }
      ],
      "name": "getApproved",
      "outputs": [
        {
          "internalType": "address",
          "name": "",
          "type": "address"
        }
      ],
      "stateMutability": "view",
      "type": "function",
      "constant": true
    },
    {
      "inputs": [
        {
          "internalType": "address",
          "name": "owner",
          "type": "address"
        },
        {
          "internalType": "address",
          "name": "operator",
          "type": "address"
        }
      ],
      "name": "isApprovedForAll",
      "outputs": [
        {
          "internalType": "bool",
          "name": "",
          "type": "bool"
        }
      ],
      "stateMutability": "view",
      "type": "function",
      "constant": true
    },
    {
      "inputs": [],
      "name": "name",
      "outputs": [
        {
          "internalType": "string",
          "name": "",
          "type": "string"
        }
      ],
      "stateMutability": "view",
      "type": "function",
      "constant": true
    },
    {
      "inputs": [
        {
          "internalType": "uint256",
          "name": "tokenId",
          "type": "uint256"
        }
      ],
      "name": "ownerOf",
      "outputs": [
        {
          "internalType": "address",
          "name": "",
          "type": "address"
        }
      ],
      "stateMutability": "view",
      "type": "function",
      "constant": true
    },
    {
      "inputs": [
        {
          "internalType": "address",
          "name": "from",
          "type": "address"
        },
        {
          "internalType": "address",
          "name": "to",
          "type": "address"
        },
        {
          "internalType": "uint256",
          "name": "tokenId",
          "type": "uint256"
        }
      ],
      "name": "safeTransferFrom",
      "outputs": [],
      "stateMutability": "nonpayable",
      "type": "function"
    },
    {
      "inputs": [
        {
          "internalType": "address",
          "name": "from",
          "type": "address"
        },
        {
          "internalType": "address",
          "name": "to",
          "type": "address"
        },
        {
          "internalType": "uint256",
          "name": "tokenId",
          "type": "uint256"
        },
        {
          "internalType": "bytes",
          "name": "data",
          "type": "bytes"
        }
      ],
      "name": "safeTransferFrom",
      "outputs": [],
      "stateMutability": "nonpayable",
      "type": "function"
    },
    {
      "inputs": [
        {
          "internalType": "address",
          "name": "operator",
          "type": "address"
        },
        {
          "internalType": "bool",
          "name": "approved",
          "type": "bool"
        }
      ],
      "name": "setApprovalForAll",
      "outputs": [],
      "stateMutability": "nonpayable",
      "type": "function"
    },
    {
      "inputs": [
        {
          "internalType": "bytes4",
          "name": "interfaceId",
          "type": "bytes4"
        }
      ],
      "name": "supportsInterface",
      "outputs": [
        {
          "internalType": "bool",
          "name": "",
          "type": "bool"
        }
      ],
      "stateMutability": "view",
      "type": "function",
      "constant": true
    },
    {
      "inputs": [],
      "name": "symbol",
      "outputs": [
        {
          "internalType": "string",
          "name": "",
          "type": "string"
        }
      ],
      "stateMutability": "view",
      "type": "function",
      "constant": true
    },
    {
      "inputs": [],
      "name": "tokenCount",
      "outputs": [
        {
          "internalType": "uint256",
          "name": "",
          "type": "uint256"
        }
      ],
      "stateMutability": "view",
      "type": "function",
      "constant": true
    },
    {
      "inputs": [
        {
          "internalType": "uint256",
          "name": "tokenId",
          "type": "uint256"
        }
      ],
      "name": "tokenURI",
      "outputs": [
        {
          "internalType": "string",
          "name": "",
          "type": "string"
        }
      ],
      "stateMutability": "view",
      "type": "function",
      "constant": true
    },
    {
      "inputs": [
        {
          "internalType": "address",
          "name": "from",
          "type": "address"
        },
        {
          "internalType": "address",
          "name": "to",
          "type": "address"
        },
        {
          "internalType": "uint256",
          "name": "tokenId",
          "type": "uint256"
        }
      ],
      "name": "transferFrom",
      "outputs": [],
      "stateMutability": "nonpayable",
      "type": "function"
    },
    {
      "inputs": [
        {
          "internalType": "address",
          "name": "sender",
          "type": "address"
        },
        {
          "internalType": "string",
          "name": "_tokenURI",
          "type": "string"
        }
      ],
      "name": "mint",
      "outputs": [
        {
          "internalType": "uint256",
          "name": "",
          "type": "uint256"
        }
      ],
      "stateMutability": "nonpayable",
      "type": "function"
    }
  ],
  "bytecode": "0x60806040523480156200001157600080fd5b506040518060400160405280601181526020017f474155444920434f4c4c454354494f4e530000000000000000000000000000008152506040518060400160405280600281526020017f4743000000000000000000000000000000000000000000000000000000000000815250816000908051906020019062000096929190620000b8565b508060019080519060200190620000af929190620000b8565b505050620001cd565b828054620000c69062000168565b90600052602060002090601f016020900481019282620000ea576000855562000136565b82601f106200010557805160ff191683800117855562000136565b8280016001018555821562000136579182015b828111156200013557825182559160200191906001019062000118565b5b50905062000145919062000149565b5090565b5b80821115620001645760008160009055506001016200014a565b5090565b600060028204905060018216806200018157607f821691505b602082108114156200019857620001976200019e565b5b50919050565b7f4e487b7100000000000000000000000000000000000000000000000000000000600052602260045260246000fd5b612ae580620001dd6000396000f3fe608060405234801561001057600080fd5b50600436106100f55760003560e01c806370a0823111610097578063b88d4fde11610066578063b88d4fde14610284578063c87b56dd146102a0578063d0def521146102d0578063e985e9c514610300576100f5565b806370a08231146101fc57806395d89b411461022c5780639f181b5e1461024a578063a22cb46514610268576100f5565b8063095ea7b3116100d3578063095ea7b31461017857806323b872dd1461019457806342842e0e146101b05780636352211e146101cc576100f5565b806301ffc9a7146100fa57806306fdde031461012a578063081812fc14610148575b600080fd5b610114600480360381019061010f9190611f1b565b610330565b6040516101219190612295565b60405180910390f35b610132610391565b60405161013f91906122b0565b60405180910390f35b610162600480360381019061015d9190611f6d565b610423565b60405161016f919061222e565b60405180910390f35b610192600480360381019061018d9190611edf565b610469565b005b6101ae60048036038101906101a99190611d85565b610581565b005b6101ca60048036038101906101c59190611d85565b6105e1565b005b6101e660048036038101906101e19190611f6d565b610601565b6040516101f3919061222e565b60405180910390f35b61021660048036038101906102119190611d20565b610688565b6040516102239190612452565b60405180910390f35b610234610740565b60405161024191906122b0565b60405180910390f35b6102526107d2565b60405161025f9190612452565b60405180910390f35b610282600480360381019061027d9190611e4f565b6107d8565b005b61029e60048036038101906102999190611dd4565b6107ee565b005b6102ba60048036038101906102b59190611f6d565b610850565b6040516102c791906122b0565b60405180910390f35b6102ea60048036038101906102e59190611e8b565b610963565b6040516102f79190612452565b60405180910390f35b61031a60048036038101906103159190611d49565b6109a0565b6040516103279190612295565b60405180910390f35b6000634906490660e01b7bffffffffffffffffffffffffffffffffffffffffffffffffffffffff1916827bffffffffffffffffffffffffffffffffffffffffffffffffffffffff1916148061038a575061038982610a34565b5b9050919050565b6060600080546103a0906125ed565b80601f01602080910402602001604051908101604052809291908181526020018280546103cc906125ed565b80156104195780601f106103ee57610100808354040283529160200191610419565b820191906000526020600020905b8154815290600101906020018083116103fc57829003601f168201915b5050505050905090565b600061042e82610b16565b6004600083815260200190815260200160002060009054906101000a900473ffffffffffffffffffffffffffffffffffffffff169050919050565b600061047482610601565b90508073ffffffffffffffffffffffffffffffffffffffff168373ffffffffffffffffffffffffffffffffffffffff1614156104e5576040517f08c379a00000000000000000000000000000000000000000000000000000000081526004016104dc90612412565b60405180910390fd5b8073ffffffffffffffffffffffffffffffffffffffff16610504610b61565b73ffffffffffffffffffffffffffffffffffffffff16148061053357506105328161052d610b61565b6109a0565b5b610572576040517f08c379a000000000000000000000000000000000000000000000000000000000815260040161056990612432565b60405180910390fd5b61057c8383610b69565b505050565b61059261058c610b61565b82610c22565b6105d1576040517f08c379a00000000000000000000000000000000000000000000000000000000081526004016105c8906122d2565b60405180910390fd5b6105dc838383610cb7565b505050565b6105fc838383604051806020016040528060008152506107ee565b505050565b60008061060d83610fb1565b9050600073ffffffffffffffffffffffffffffffffffffffff168173ffffffffffffffffffffffffffffffffffffffff16141561067f576040517f08c379a0000000000000000000000000000000000000000000000000000000008152600401610676906123f2565b60405180910390fd5b80915050919050565b60008073ffffffffffffffffffffffffffffffffffffffff168273ffffffffffffffffffffffffffffffffffffffff1614156106f9576040517f08c379a00000000000000000000000000000000000000000000000000000000081526004016106f090612392565b60405180910390fd5b600360008373ffffffffffffffffffffffffffffffffffffffff1673ffffffffffffffffffffffffffffffffffffffff168152602001908152602001600020549050919050565b60606001805461074f906125ed565b80601f016020809104026020016040519081016040528092919081815260200182805461077b906125ed565b80156107c85780601f1061079d576101008083540402835291602001916107c8565b820191906000526020600020905b8154815290600101906020018083116107ab57829003601f168201915b5050505050905090565b60075481565b6107ea6107e3610b61565b8383610fee565b5050565b6107ff6107f9610b61565b83610c22565b61083e576040517f08c379a0000000000000000000000000000000000000000000000000000000008152600401610835906122d2565b60405180910390fd5b61084a8484848461115b565b50505050565b606061085b82610b16565b600060066000848152602001908152602001600020805461087b906125ed565b80601f01602080910402602001604051908101604052809291908181526020018280546108a7906125ed565b80156108f45780601f106108c9576101008083540402835291602001916108f4565b820191906000526020600020905b8154815290600101906020018083116108d757829003601f168201915b5050505050905060006109056111b7565b905060008151141561091b57819250505061095e565b60008251111561095057808260405160200161093892919061220a565b6040516020818303038152906040529250505061095e565b610959846111ce565b925050505b919050565b60006007600081548092919061097890612650565b919050555061098983600754611236565b61099560075483611254565b600754905092915050565b6000600560008473ffffffffffffffffffffffffffffffffffffffff1673ffffffffffffffffffffffffffffffffffffffff16815260200190815260200160002060008373ffffffffffffffffffffffffffffffffffffffff1673ffffffffffffffffffffffffffffffffffffffff16815260200190815260200160002060009054906101000a900460ff16905092915050565b60007f80ac58cd000000000000000000000000000000000000000000000000000000007bffffffffffffffffffffffffffffffffffffffffffffffffffffffff1916827bffffffffffffffffffffffffffffffffffffffffffffffffffffffff19161480610aff57507f5b5e139f000000000000000000000000000000000000000000000000000000007bffffffffffffffffffffffffffffffffffffffffffffffffffffffff1916827bffffffffffffffffffffffffffffffffffffffffffffffffffffffff1916145b80610b0f5750610b0e826112ff565b5b9050919050565b610b1f81611369565b610b5e576040517f08c379a0000000000000000000000000000000000000000000000000000000008152600401610b55906123f2565b60405180910390fd5b50565b600033905090565b816004600083815260200190815260200160002060006101000a81548173ffffffffffffffffffffffffffffffffffffffff021916908373ffffffffffffffffffffffffffffffffffffffff160217905550808273ffffffffffffffffffffffffffffffffffffffff16610bdc83610601565b73ffffffffffffffffffffffffffffffffffffffff167f8c5be1e5ebec7d5bd14f71427d1e84f3dd0314c0f7b2291e5b200ac8c7c3b92560405160405180910390a45050565b600080610c2e83610601565b90508073ffffffffffffffffffffffffffffffffffffffff168473ffffffffffffffffffffffffffffffffffffffff161480610c705750610c6f81856109a0565b5b80610cae57508373ffffffffffffffffffffffffffffffffffffffff16610c9684610423565b73ffffffffffffffffffffffffffffffffffffffff16145b91505092915050565b8273ffffffffffffffffffffffffffffffffffffffff16610cd782610601565b73ffffffffffffffffffffffffffffffffffffffff1614610d2d576040517f08c379a0000000000000000000000000000000000000000000000000000000008152600401610d2490612312565b60405180910390fd5b600073ffffffffffffffffffffffffffffffffffffffff168273ffffffffffffffffffffffffffffffffffffffff161415610d9d576040517f08c379a0000000000000000000000000000000000000000000000000000000008152600401610d9490612352565b60405180910390fd5b610daa83838360016113aa565b8273ffffffffffffffffffffffffffffffffffffffff16610dca82610601565b73ffffffffffffffffffffffffffffffffffffffff1614610e20576040517f08c379a0000000000000000000000000000000000000000000000000000000008152600401610e1790612312565b60405180910390fd5b6004600082815260200190815260200160002060006101000a81549073ffffffffffffffffffffffffffffffffffffffff02191690556001600360008573ffffffffffffffffffffffffffffffffffffffff1673ffffffffffffffffffffffffffffffffffffffff168152602001908152602001600020600082825403925050819055506001600360008473ffffffffffffffffffffffffffffffffffffffff1673ffffffffffffffffffffffffffffffffffffffff16815260200190815260200160002060008282540192505081905550816002600083815260200190815260200160002060006101000a81548173ffffffffffffffffffffffffffffffffffffffff021916908373ffffffffffffffffffffffffffffffffffffffff160217905550808273ffffffffffffffffffffffffffffffffffffffff168473ffffffffffffffffffffffffffffffffffffffff167fddf252ad1be2c89b69c2b068fc378daa952ba7f163c4a11628f55a4df523b3ef60405160405180910390a4610fac83838360016113b0565b505050565b60006002600083815260200190815260200160002060009054906101000a900473ffffffffffffffffffffffffffffffffffffffff169050919050565b8173ffffffffffffffffffffffffffffffffffffffff168373ffffffffffffffffffffffffffffffffffffffff16141561105d576040517f08c379a000000000000000000000000000000000000000000000000000000000815260040161105490612372565b60405180910390fd5b80600560008573ffffffffffffffffffffffffffffffffffffffff1673ffffffffffffffffffffffffffffffffffffffff16815260200190815260200160002060008473ffffffffffffffffffffffffffffffffffffffff1673ffffffffffffffffffffffffffffffffffffffff16815260200190815260200160002060006101000a81548160ff0219169083151502179055508173ffffffffffffffffffffffffffffffffffffffff168373ffffffffffffffffffffffffffffffffffffffff167f17307eab39ab6107e8899845ad3d59bd9653f200f220920489ca2b5937696c318360405161114e9190612295565b60405180910390a3505050565b611166848484610cb7565b611172848484846113b6565b6111b1576040517f08c379a00000000000000000000000000000000000000000000000000000000081526004016111a8906122f2565b60405180910390fd5b50505050565b606060405180602001604052806000815250905090565b60606111d982610b16565b60006111e36111b7565b90506000815111611203576040518060200160405280600081525061122e565b8061120d8461154d565b60405160200161121e92919061220a565b6040516020818303038152906040525b915050919050565b611250828260405180602001604052806000815250611671565b5050565b61125d82611369565b61129c576040517f08c379a0000000000000000000000000000000000000000000000000000000008152600401611293906123b2565b60405180910390fd5b806006600084815260200190815260200160002090805190602001906112c3929190611b44565b507ff8e1a15aba9398e019f0b49df1a4fde98ee17ae345cb5f6b5e2c27f5033e8ce7826040516112f39190612452565b60405180910390a15050565b60007f01ffc9a7000000000000000000000000000000000000000000000000000000007bffffffffffffffffffffffffffffffffffffffffffffffffffffffff1916827bffffffffffffffffffffffffffffffffffffffffffffffffffffffff1916149050919050565b60008073ffffffffffffffffffffffffffffffffffffffff1661138b83610fb1565b73ffffffffffffffffffffffffffffffffffffffff1614159050919050565b50505050565b50505050565b60006113d78473ffffffffffffffffffffffffffffffffffffffff166116cc565b15611540578373ffffffffffffffffffffffffffffffffffffffff1663150b7a02611400610b61565b8786866040518563ffffffff1660e01b81526004016114229493929190612249565b602060405180830381600087803b15801561143c57600080fd5b505af192505050801561146d57506040513d601f19601f8201168201806040525081019061146a9190611f44565b60015b6114f0573d806000811461149d576040519150601f19603f3d011682016040523d82523d6000602084013e6114a2565b606091505b506000815114156114e8576040517f08c379a00000000000000000000000000000000000000000000000000000000081526004016114df906122f2565b60405180910390fd5b805181602001fd5b63150b7a0260e01b7bffffffffffffffffffffffffffffffffffffffffffffffffffffffff1916817bffffffffffffffffffffffffffffffffffffffffffffffffffffffff191614915050611545565b600190505b949350505050565b60606000600161155c846116ef565b01905060008167ffffffffffffffff8111156115a1577f4e487b7100000000000000000000000000000000000000000000000000000000600052604160045260246000fd5b6040519080825280601f01601f1916602001820160405280156115d35781602001600182028036833780820191505090505b509050600082602001820190505b600115611666578080600190039150507f3031323334353637383961626364656600000000000000000000000000000000600a86061a8153600a8581611650577f4e487b7100000000000000000000000000000000000000000000000000000000600052601260045260246000fd5b049450600085141561166157611666565b6115e1565b819350505050919050565b61167b8383611926565b61168860008484846113b6565b6116c7576040517f08c379a00000000000000000000000000000000000000000000000000000000081526004016116be906122f2565b60405180910390fd5b505050565b6000808273ffffffffffffffffffffffffffffffffffffffff163b119050919050565b600080600090507a184f03e93ff9f4daa797ed6e38ed64bf6a1f0100000000000000008310611773577a184f03e93ff9f4daa797ed6e38ed64bf6a1f0100000000000000008381611769577f4e487b7100000000000000000000000000000000000000000000000000000000600052601260045260246000fd5b0492506040810190505b6d04ee2d6d415b85acef810000000083106117d6576d04ee2d6d415b85acef810000000083816117cc577f4e487b7100000000000000000000000000000000000000000000000000000000600052601260045260246000fd5b0492506020810190505b662386f26fc10000831061182b57662386f26fc100008381611821577f4e487b7100000000000000000000000000000000000000000000000000000000600052601260045260246000fd5b0492506010810190505b6305f5e100831061187a576305f5e1008381611870577f4e487b7100000000000000000000000000000000000000000000000000000000600052601260045260246000fd5b0492506008810190505b61271083106118c55761271083816118bb577f4e487b7100000000000000000000000000000000000000000000000000000000600052601260045260246000fd5b0492506004810190505b6064831061190e5760648381611904577f4e487b7100000000000000000000000000000000000000000000000000000000600052601260045260246000fd5b0492506002810190505b600a831061191d576001810190505b80915050919050565b600073ffffffffffffffffffffffffffffffffffffffff168273ffffffffffffffffffffffffffffffffffffffff161415611996576040517f08c379a000000000000000000000000000000000000000000000000000000000815260040161198d906123d2565b60405180910390fd5b61199f81611369565b156119df576040517f08c379a00000000000000000000000000000000000000000000000000000000081526004016119d690612332565b60405180910390fd5b6119ed6000838360016113aa565b6119f681611369565b15611a36576040517f08c379a0000000000000000000000000000000000000000000000000000000008152600401611a2d90612332565b60405180910390fd5b6001600360008473ffffffffffffffffffffffffffffffffffffffff1673ffffffffffffffffffffffffffffffffffffffff16815260200190815260200160002060008282540192505081905550816002600083815260200190815260200160002060006101000a81548173ffffffffffffffffffffffffffffffffffffffff021916908373ffffffffffffffffffffffffffffffffffffffff160217905550808273ffffffffffffffffffffffffffffffffffffffff16600073ffffffffffffffffffffffffffffffffffffffff167fddf252ad1be2c89b69c2b068fc378daa952ba7f163c4a11628f55a4df523b3ef60405160405180910390a4611b406000838360016113b0565b5050565b828054611b50906125ed565b90600052602060002090601f016020900481019282611b725760008555611bb9565b82601f10611b8b57805160ff1916838001178555611bb9565b82800160010185558215611bb9579182015b82811115611bb8578251825591602001919060010190611b9d565b5b509050611bc69190611bca565b5090565b5b80821115611be3576000816000905550600101611bcb565b5090565b6000611bfa611bf584612492565b61246d565b905082815260208101848484011115611c1257600080fd5b611c1d8482856125ab565b509392505050565b6000611c38611c33846124c3565b61246d565b905082815260208101848484011115611c5057600080fd5b611c5b8482856125ab565b509392505050565b600081359050611c7281612a53565b92915050565b600081359050611c8781612a6a565b92915050565b600081359050611c9c81612a81565b92915050565b600081519050611cb181612a81565b92915050565b600082601f830112611cc857600080fd5b8135611cd8848260208601611be7565b91505092915050565b600082601f830112611cf257600080fd5b8135611d02848260208601611c25565b91505092915050565b600081359050611d1a81612a98565b92915050565b600060208284031215611d3257600080fd5b6000611d4084828501611c63565b91505092915050565b60008060408385031215611d5c57600080fd5b6000611d6a85828601611c63565b9250506020611d7b85828601611c63565b9150509250929050565b600080600060608486031215611d9a57600080fd5b6000611da886828701611c63565b9350506020611db986828701611c63565b9250506040611dca86828701611d0b565b9150509250925092565b60008060008060808587031215611dea57600080fd5b6000611df887828801611c63565b9450506020611e0987828801611c63565b9350506040611e1a87828801611d0b565b925050606085013567ffffffffffffffff811115611e3757600080fd5b611e4387828801611cb7565b91505092959194509250565b60008060408385031215611e6257600080fd5b6000611e7085828601611c63565b9250506020611e8185828601611c78565b9150509250929050565b60008060408385031215611e9e57600080fd5b6000611eac85828601611c63565b925050602083013567ffffffffffffffff811115611ec957600080fd5b611ed585828601611ce1565b9150509250929050565b60008060408385031215611ef257600080fd5b6000611f0085828601611c63565b9250506020611f1185828601611d0b565b9150509250929050565b600060208284031215611f2d57600080fd5b6000611f3b84828501611c8d565b91505092915050565b600060208284031215611f5657600080fd5b6000611f6484828501611ca2565b91505092915050565b600060208284031215611f7f57600080fd5b6000611f8d84828501611d0b565b91505092915050565b611f9f81612537565b82525050565b611fae81612549565b82525050565b6000611fbf826124f4565b611fc9818561250a565b9350611fd98185602086016125ba565b611fe281612726565b840191505092915050565b6000611ff8826124ff565b612002818561251b565b93506120128185602086016125ba565b61201b81612726565b840191505092915050565b6000612031826124ff565b61203b818561252c565b935061204b8185602086016125ba565b80840191505092915050565b6000612064602d8361251b565b915061206f82612737565b604082019050919050565b600061208760328361251b565b915061209282612786565b604082019050919050565b60006120aa60258361251b565b91506120b5826127d5565b604082019050919050565b60006120cd601c8361251b565b91506120d882612824565b602082019050919050565b60006120f060248361251b565b91506120fb8261284d565b604082019050919050565b600061211360198361251b565b915061211e8261289c565b602082019050919050565b600061213660298361251b565b9150612141826128c5565b604082019050919050565b6000612159602e8361251b565b915061216482612914565b604082019050919050565b600061217c60208361251b565b915061218782612963565b602082019050919050565b600061219f60188361251b565b91506121aa8261298c565b602082019050919050565b60006121c260218361251b565b91506121cd826129b5565b604082019050919050565b60006121e5603d8361251b565b91506121f082612a04565b604082019050919050565b612204816125a1565b82525050565b60006122168285612026565b91506122228284612026565b91508190509392505050565b60006020820190506122436000830184611f96565b92915050565b600060808201905061225e6000830187611f96565b61226b6020830186611f96565b61227860408301856121fb565b818103606083015261228a8184611fb4565b905095945050505050565b60006020820190506122aa6000830184611fa5565b92915050565b600060208201905081810360008301526122ca8184611fed565b905092915050565b600060208201905081810360008301526122eb81612057565b9050919050565b6000602082019050818103600083015261230b8161207a565b9050919050565b6000602082019050818103600083015261232b8161209d565b9050919050565b6000602082019050818103600083015261234b816120c0565b9050919050565b6000602082019050818103600083015261236b816120e3565b9050919050565b6000602082019050818103600083015261238b81612106565b9050919050565b600060208201905081810360008301526123ab81612129565b9050919050565b600060208201905081810360008301526123cb8161214c565b9050919050565b600060208201905081810360008301526123eb8161216f565b9050919050565b6000602082019050818103600083015261240b81612192565b9050919050565b6000602082019050818103600083015261242b816121b5565b9050919050565b6000602082019050818103600083015261244b816121d8565b9050919050565b600060208201905061246760008301846121fb565b92915050565b6000612477612488565b9050612483828261261f565b919050565b6000604051905090565b600067ffffffffffffffff8211156124ad576124ac6126f7565b5b6124b682612726565b9050602081019050919050565b600067ffffffffffffffff8211156124de576124dd6126f7565b5b6124e782612726565b9050602081019050919050565b600081519050919050565b600081519050919050565b600082825260208201905092915050565b600082825260208201905092915050565b600081905092915050565b600061254282612581565b9050919050565b60008115159050919050565b60007fffffffff0000000000000000000000000000000000000000000000000000000082169050919050565b600073ffffffffffffffffffffffffffffffffffffffff82169050919050565b6000819050919050565b82818337600083830152505050565b60005b838110156125d85780820151818401526020810190506125bd565b838111156125e7576000848401525b50505050565b6000600282049050600182168061260557607f821691505b60208210811415612619576126186126c8565b5b50919050565b61262882612726565b810181811067ffffffffffffffff82111715612647576126466126f7565b5b80604052505050565b600061265b826125a1565b91507fffffffffffffffffffffffffffffffffffffffffffffffffffffffffffffffff82141561268e5761268d612699565b5b600182019050919050565b7f4e487b7100000000000000000000000000000000000000000000000000000000600052601160045260246000fd5b7f4e487b7100000000000000000000000000000000000000000000000000000000600052602260045260246000fd5b7f4e487b7100000000000000000000000000000000000000000000000000000000600052604160045260246000fd5b6000601f19601f8301169050919050565b7f4552433732313a2063616c6c6572206973206e6f7420746f6b656e206f776e6560008201527f72206f7220617070726f76656400000000000000000000000000000000000000602082015250565b7f4552433732313a207472616e7366657220746f206e6f6e20455243373231526560008201527f63656976657220696d706c656d656e7465720000000000000000000000000000602082015250565b7f4552433732313a207472616e736665722066726f6d20696e636f72726563742060008201527f6f776e6572000000000000000000000000000000000000000000000000000000602082015250565b7f4552433732313a20746f6b656e20616c7265616479206d696e74656400000000600082015250565b7f4552433732313a207472616e7366657220746f20746865207a65726f2061646460008201527f7265737300000000000000000000000000000000000000000000000000000000602082015250565b7f4552433732313a20617070726f766520746f2063616c6c657200000000000000600082015250565b7f4552433732313a2061646472657373207a65726f206973206e6f74206120766160008201527f6c6964206f776e65720000000000000000000000000000000000000000000000602082015250565b7f45524337323155524953746f726167653a2055524920736574206f66206e6f6e60008201527f6578697374656e7420746f6b656e000000000000000000000000000000000000602082015250565b7f4552433732313a206d696e7420746f20746865207a65726f2061646472657373600082015250565b7f4552433732313a20696e76616c696420746f6b656e2049440000000000000000600082015250565b7f4552433732313a20617070726f76616c20746f2063757272656e74206f776e6560008201527f7200000000000000000000000000000000000000000000000000000000000000602082015250565b7f4552433732313a20617070726f76652063616c6c6572206973206e6f7420746f60008201527f6b656e206f776e6572206f7220617070726f76656420666f7220616c6c000000602082015250565b612a5c81612537565b8114612a6757600080fd5b50565b612a7381612549565b8114612a7e57600080fd5b50565b612a8a81612555565b8114612a9557600080fd5b50565b612aa1816125a1565b8114612aac57600080fd5b5056fea26469706673582212209ca0e82c780d4a157db01ea0f8f1970f8c97417a2bf3d53f5f52b012518a9f2764736f6c63430008010033",
  "immutableReferences": {},
  "source": "// SPDX-License-Identifier: MIT\npragma solidity ^0.8.0;\n\nimport \"@openzeppelin/contracts/token/ERC721/extensions/ERC721URIStorage.sol\";\nimport \"@openzeppelin/contracts/token/ERC721/ERC721.sol\";\n\ncontract MyNFT is ERC721URIStorage {\n    uint public tokenCount;\n    \n    constructor() ERC721(\"GAUDI COLLECTIONS\", \"GC\"){}\n\n    function mint(address sender, string memory _tokenURI) external returns(uint) {\n        tokenCount ++;\n        _safeMint(sender, tokenCount);\n        _setTokenURI(tokenCount, _tokenURI);\n        return(tokenCount);\n    }\n\n\n}",
  "sourcePath": "C:\\Users\\envis\\Desktop\\Projectes\\Regular Solids\\Y\\Landing\\contracts\\myNFT.sol",
  "compiler": {
    "name": "solc",
    "version": "0.8.1+commit.df193b15.Emscripten.clang"
  },
  "schemaVersion": "3.4.15",
  "updatedAt": "2023-10-04T16:06:38.488Z",
  "networkType": "ethereum",
  "devdoc": {
    "kind": "dev",
    "methods": {
      "approve(address,uint256)": {
        "details": "See {IERC721-approve}."
      },
      "balanceOf(address)": {
        "details": "See {IERC721-balanceOf}."
      },
      "getApproved(uint256)": {
        "details": "See {IERC721-getApproved}."
      },
      "isApprovedForAll(address,address)": {
        "details": "See {IERC721-isApprovedForAll}."
      },
      "name()": {
        "details": "See {IERC721Metadata-name}."
      },
      "ownerOf(uint256)": {
        "details": "See {IERC721-ownerOf}."
      },
      "safeTransferFrom(address,address,uint256)": {
        "details": "See {IERC721-safeTransferFrom}."
      },
      "safeTransferFrom(address,address,uint256,bytes)": {
        "details": "See {IERC721-safeTransferFrom}."
      },
      "setApprovalForAll(address,bool)": {
        "details": "See {IERC721-setApprovalForAll}."
      },
      "supportsInterface(bytes4)": {
        "details": "See {IERC165-supportsInterface}"
      },
      "symbol()": {
        "details": "See {IERC721Metadata-symbol}."
      },
      "tokenURI(uint256)": {
        "details": "See {IERC721Metadata-tokenURI}."
      },
      "transferFrom(address,address,uint256)": {
        "details": "See {IERC721-transferFrom}."
      }
    },
    "version": 1
  },
  "userdoc": {
    "kind": "user",
    "methods": {},
    "version": 1
  }
}