{
  "contractName": "NFTMarketplace",
  "abi": [
    {
      "inputs": [
        {
          "internalType": "address",
          "name": "_addressNft",
          "type": "address"
        }
      ],
      "stateMutability": "nonpayable",
      "type": "constructor"
    },
    {
      "anonymous": false,
      "inputs": [
        {
          "indexed": true,
          "internalType": "uint256",
          "name": "collectionId",
          "type": "uint256"
        },
        {
          "indexed": true,
          "internalType": "string",
          "name": "collectionAddress",
          "type": "string"
        }
      ],
      "name": "CollectionCreated",
      "type": "event"
    },
    {
      "anonymous": false,
      "inputs": [
        {
          "indexed": true,
          "internalType": "uint256",
          "name": "collectionId",
          "type": "uint256"
        },
        {
          "indexed": true,
          "internalType": "uint256",
          "name": "tokenId",
          "type": "uint256"
        },
        {
          "indexed": false,
          "internalType": "uint256",
          "name": "price",
          "type": "uint256"
        }
      ],
      "name": "NFTListed",
      "type": "event"
    },
    {
      "anonymous": false,
      "inputs": [
        {
          "indexed": true,
          "internalType": "uint256",
          "name": "collectionId",
          "type": "uint256"
        },
        {
          "indexed": true,
          "internalType": "uint256",
          "name": "tokenId",
          "type": "uint256"
        },
        {
          "indexed": false,
          "internalType": "address",
          "name": "buyer",
          "type": "address"
        },
        {
          "indexed": false,
          "internalType": "uint256",
          "name": "price",
          "type": "uint256"
        }
      ],
      "name": "NFTSold",
      "type": "event"
    },
    {
      "anonymous": false,
      "inputs": [
        {
          "indexed": true,
          "internalType": "uint256",
          "name": "collectionId",
          "type": "uint256"
        },
        {
          "indexed": true,
          "internalType": "uint256",
          "name": "tokenId",
          "type": "uint256"
        }
      ],
      "name": "NFTUnlisted",
      "type": "event"
    },
    {
      "anonymous": false,
      "inputs": [
        {
          "indexed": true,
          "internalType": "address",
          "name": "previousOwner",
          "type": "address"
        },
        {
          "indexed": true,
          "internalType": "address",
          "name": "newOwner",
          "type": "address"
        }
      ],
      "name": "OwnershipTransferred",
      "type": "event"
    },
    {
      "inputs": [],
      "name": "artist",
      "outputs": [
        {
          "internalType": "address",
          "name": "",
          "type": "address"
        }
      ],
      "stateMutability": "view",
      "type": "function",
      "constant": true
    },
    {
      "inputs": [],
      "name": "collectionCounter",
      "outputs": [
        {
          "internalType": "uint256",
          "name": "",
          "type": "uint256"
        }
      ],
      "stateMutability": "view",
      "type": "function",
      "constant": true
    },
    {
      "inputs": [
        {
          "internalType": "uint256",
          "name": "",
          "type": "uint256"
        }
      ],
      "name": "collections",
      "outputs": [
        {
          "internalType": "address payable",
          "name": "owner",
          "type": "address"
        },
        {
          "internalType": "string",
          "name": "name",
          "type": "string"
        },
        {
          "internalType": "string",
          "name": "collectionURI",
          "type": "string"
        },
        {
          "internalType": "uint256",
          "name": "nNfts",
          "type": "uint256"
        },
        {
          "internalType": "uint256",
          "name": "nIndex",
          "type": "uint256"
        },
        {
          "internalType": "uint8",
          "name": "isCert",
          "type": "uint8"
        },
        {
          "internalType": "uint256",
          "name": "maxNfts",
          "type": "uint256"
        },
        {
          "internalType": "string",
          "name": "description",
          "type": "string"
        },
        {
          "internalType": "uint256",
          "name": "idCollection",
          "type": "uint256"
        }
      ],
      "stateMutability": "view",
      "type": "function",
      "constant": true
    },
    {
      "inputs": [],
      "name": "mpOwner",
      "outputs": [
        {
          "internalType": "address",
          "name": "",
          "type": "address"
        }
      ],
      "stateMutability": "view",
      "type": "function",
      "constant": true
    },
    {
      "inputs": [],
      "name": "owner",
      "outputs": [
        {
          "internalType": "address",
          "name": "",
          "type": "address"
        }
      ],
      "stateMutability": "view",
      "type": "function",
      "constant": true
    },
    {
      "inputs": [],
      "name": "renounceOwnership",
      "outputs": [],
      "stateMutability": "nonpayable",
      "type": "function"
    },
    {
      "inputs": [],
      "name": "royalityFee",
      "outputs": [
        {
          "internalType": "uint8",
          "name": "",
          "type": "uint8"
        }
      ],
      "stateMutability": "view",
      "type": "function",
      "constant": true
    },
    {
      "inputs": [
        {
          "internalType": "address",
          "name": "newOwner",
          "type": "address"
        }
      ],
      "name": "transferOwnership",
      "outputs": [],
      "stateMutability": "nonpayable",
      "type": "function"
    },
    {
      "inputs": [
        {
          "internalType": "string",
          "name": "name",
          "type": "string"
        },
        {
          "internalType": "string",
          "name": "description",
          "type": "string"
        },
        {
          "internalType": "string",
          "name": "collectionURI",
          "type": "string"
        },
        {
          "internalType": "uint8",
          "name": "isCert",
          "type": "uint8"
        },
        {
          "internalType": "uint256",
          "name": "maxNfts",
          "type": "uint256"
        }
      ],
      "name": "createCollection",
      "outputs": [],
      "stateMutability": "nonpayable",
      "type": "function"
    },
    {
      "inputs": [
        {
          "internalType": "uint64",
          "name": "collectionId",
          "type": "uint64"
        },
        {
          "internalType": "string",
          "name": "tokenURI",
          "type": "string"
        },
        {
          "internalType": "string",
          "name": "name",
          "type": "string"
        },
        {
          "internalType": "string",
          "name": "description",
          "type": "string"
        },
        {
          "internalType": "uint64",
          "name": "minInvesting",
          "type": "uint64"
        },
        {
          "internalType": "uint64",
          "name": "maxDropDown",
          "type": "uint64"
        },
        {
          "internalType": "string",
          "name": "assets",
          "type": "string"
        },
        {
          "internalType": "address",
          "name": "contractNft",
          "type": "address"
        }
      ],
      "name": "mintNFT",
      "outputs": [],
      "stateMutability": "nonpayable",
      "type": "function"
    },
    {
      "inputs": [
        {
          "internalType": "uint256",
          "name": "collectionId",
          "type": "uint256"
        },
        {
          "internalType": "uint256",
          "name": "tokenId",
          "type": "uint256"
        },
        {
          "internalType": "uint256",
          "name": "price",
          "type": "uint256"
        },
        {
          "internalType": "address",
          "name": "contractNft",
          "type": "address"
        }
      ],
      "name": "listNFT",
      "outputs": [],
      "stateMutability": "nonpayable",
      "type": "function"
    },
    {
      "inputs": [
        {
          "internalType": "uint256",
          "name": "collectionId",
          "type": "uint256"
        },
        {
          "internalType": "uint256",
          "name": "tokenId",
          "type": "uint256"
        },
        {
          "internalType": "address",
          "name": "contractNfts",
          "type": "address"
        }
      ],
      "name": "unListNFT",
      "outputs": [],
      "stateMutability": "nonpayable",
      "type": "function"
    },
    {
      "inputs": [
        {
          "internalType": "uint256",
          "name": "collectionId",
          "type": "uint256"
        },
        {
          "internalType": "uint256",
          "name": "tokenId",
          "type": "uint256"
        }
      ],
      "name": "buyNFT",
      "outputs": [],
      "stateMutability": "payable",
      "type": "function",
      "payable": true
    },
    {
      "inputs": [],
      "name": "getAllCollections",
      "outputs": [
        {
          "components": [
            {
              "internalType": "address",
              "name": "owner",
              "type": "address"
            },
            {
              "internalType": "uint256",
              "name": "idCollection",
              "type": "uint256"
            },
            {
              "internalType": "string",
              "name": "name",
              "type": "string"
            },
            {
              "internalType": "string",
              "name": "collectionURI",
              "type": "string"
            },
            {
              "internalType": "string",
              "name": "description",
              "type": "string"
            },
            {
              "internalType": "uint256",
              "name": "nNft",
              "type": "uint256"
            },
            {
              "internalType": "uint256",
              "name": "maxNfts",
              "type": "uint256"
            },
            {
              "internalType": "uint8",
              "name": "isCert",
              "type": "uint8"
            }
          ],
          "internalType": "struct NFTMarketplace.IndexingCollections[]",
          "name": "",
          "type": "tuple[]"
        }
      ],
      "stateMutability": "view",
      "type": "function",
      "constant": true
    },
    {
      "inputs": [
        {
          "internalType": "uint256",
          "name": "collectionId",
          "type": "uint256"
        }
      ],
      "name": "getNFTCollection",
      "outputs": [
        {
          "components": [
            {
              "internalType": "string",
              "name": "name",
              "type": "string"
            },
            {
              "internalType": "string",
              "name": "description",
              "type": "string"
            },
            {
              "internalType": "string",
              "name": "tokenURI",
              "type": "string"
            },
            {
              "internalType": "uint256",
              "name": "tokenId",
              "type": "uint256"
            },
            {
              "internalType": "address payable",
              "name": "owner",
              "type": "address"
            },
            {
              "internalType": "uint256",
              "name": "investedMoney",
              "type": "uint256"
            },
            {
              "internalType": "uint256",
              "name": "minInvesting",
              "type": "uint256"
            },
            {
              "internalType": "uint256",
              "name": "maxDropDown",
              "type": "uint256"
            },
            {
              "internalType": "uint256",
              "name": "leverage",
              "type": "uint256"
            },
            {
              "internalType": "string",
              "name": "assets",
              "type": "string"
            },
            {
              "internalType": "uint256",
              "name": "maxInvestors",
              "type": "uint256"
            },
            {
              "internalType": "uint256",
              "name": "investors",
              "type": "uint256"
            },
            {
              "internalType": "address",
              "name": "nftContracts",
              "type": "address"
            }
          ],
          "internalType": "struct NFTMarketplace.NFT[]",
          "name": "",
          "type": "tuple[]"
        },
        {
          "internalType": "bool[]",
          "name": "",
          "type": "bool[]"
        }
      ],
      "stateMutability": "view",
      "type": "function",
      "constant": true
    }
  ],
  "bytecode": "0x60806040526000600360146101000a81548160ff021916908360ff16021790555060006004553480156200003257600080fd5b506040516200333338038062003333833981810160405281019062000058919062000267565b620000786200006c6200018460201b60201c565b6200018c60201b60201c565b600180819055506001600660008373ffffffffffffffffffffffffffffffffffffffff1673ffffffffffffffffffffffffffffffffffffffff16815260200190815260200160002060006101000a81548160ff02191690831515021790555060006004819055506000600360146101000a81548160ff021916908360ff16021790555033600260006101000a81548173ffffffffffffffffffffffffffffffffffffffff021916908373ffffffffffffffffffffffffffffffffffffffff16021790555033600360006101000a81548173ffffffffffffffffffffffffffffffffffffffff021916908373ffffffffffffffffffffffffffffffffffffffff16021790555050620002e1565b600033905090565b60008060009054906101000a900473ffffffffffffffffffffffffffffffffffffffff169050816000806101000a81548173ffffffffffffffffffffffffffffffffffffffff021916908373ffffffffffffffffffffffffffffffffffffffff1602179055508173ffffffffffffffffffffffffffffffffffffffff168173ffffffffffffffffffffffffffffffffffffffff167f8be0079c531659141344cd1fd0a4f28419497f9722a3daafe3b4186f6b6457e060405160405180910390a35050565b6000815190506200026181620002c7565b92915050565b6000602082840312156200027a57600080fd5b60006200028a8482850162000250565b91505092915050565b6000620002a082620002a7565b9050919050565b600073ffffffffffffffffffffffffffffffffffffffff82169050919050565b620002d28162000293565b8114620002de57600080fd5b50565b61304280620002f16000396000f3fe6080604052600436106100e85760003560e01c8063715018a61161008a578063d4ad3a2a11610059578063d4ad3a2a146102b2578063f2fde38b146102db578063f41490a614610304578063fdbda0ec1461032d576100e8565b8063715018a6146102095780638da5cb5b146102205780639f19a59d1461024b578063a96bcca514610289576100e8565b8063326bb4ad116100c6578063326bb4ad1461015d57806343bc1612146101885780635187a82d146101b35780636804a958146101de576100e8565b80631d85bf03146100ed578063221da01f146101095780632f30457b14610134575b600080fd5b610107600480360381019061010291906120e1565b610372565b005b34801561011557600080fd5b5061011e610376565b60405161012b9190612868565b60405180910390f35b34801561014057600080fd5b5061015b6004803603810190610156919061216c565b61039c565b005b34801561016957600080fd5b506101726103a2565b60405161017f9190612a89565b60405180910390f35b34801561019457600080fd5b5061019d6103b5565b6040516101aa9190612868565b60405180910390f35b3480156101bf57600080fd5b506101c86103db565b6040516101d59190612a6e565b60405180910390f35b3480156101ea57600080fd5b506101f36103e1565b6040516102009190612955565b60405180910390f35b34801561021557600080fd5b5061021e610797565b005b34801561022c57600080fd5b506102356107ab565b6040516102429190612868565b60405180910390f35b34801561025757600080fd5b50610272600480360381019061026d919061208f565b6107d4565b604051610280929190612977565b60405180910390f35b34801561029557600080fd5b506102b060048036038101906102ab9190611fd0565b6111bf565b005b3480156102be57600080fd5b506102d960048036038101906102d491906121cf565b6113ee565b005b3480156102e757600080fd5b5061030260048036038101906102fd9190611fa7565b61195b565b005b34801561031057600080fd5b5061032b6004803603810190610326919061211d565b6119df565b005b34801561033957600080fd5b50610354600480360381019061034f919061208f565b6119e4565b60405161036999989796959493929190612883565b60405180910390f35b5050565b600360009054906101000a900473ffffffffffffffffffffffffffffffffffffffff1681565b50505050565b600360149054906101000a900460ff1681565b600260009054906101000a900473ffffffffffffffffffffffffffffffffffffffff1681565b60045481565b6060600060045467ffffffffffffffff811115610427577f4e487b7100000000000000000000000000000000000000000000000000000000600052604160045260246000fd5b60405190808252806020026020018201604052801561046057816020015b61044d611d41565b8152602001906001900390816104455790505b50905060005b60045481101561078f576040518061010001604052806005600084815260200190815260200160002060000160009054906101000a900473ffffffffffffffffffffffffffffffffffffffff1673ffffffffffffffffffffffffffffffffffffffff1681526020016005600084815260200190815260200160002060080154815260200160056000848152602001908152602001600020600101805461050b90612d24565b80601f016020809104026020016040519081016040528092919081815260200182805461053790612d24565b80156105845780601f1061055957610100808354040283529160200191610584565b820191906000526020600020905b81548152906001019060200180831161056757829003601f168201915b505050505081526020016005600084815260200190815260200160002060020180546105af90612d24565b80601f01602080910402602001604051908101604052809291908181526020018280546105db90612d24565b80156106285780601f106105fd57610100808354040283529160200191610628565b820191906000526020600020905b81548152906001019060200180831161060b57829003601f168201915b5050505050815260200160056000848152602001908152602001600020600701805461065390612d24565b80601f016020809104026020016040519081016040528092919081815260200182805461067f90612d24565b80156106cc5780601f106106a1576101008083540402835291602001916106cc565b820191906000526020600020905b8154815290600101906020018083116106af57829003601f168201915b5050505050815260200160056000848152602001908152602001600020600301548152602001600560008481526020019081526020016000206006015481526020016005600084815260200190815260200160002060050160009054906101000a900460ff1660ff16815250828281518110610771577f4e487b7100000000000000000000000000000000000000000000000000000000600052603260045260246000fd5b6020026020010181905250808061078790612d87565b915050610466565b508091505090565b61079f611bf7565b6107a96000611c75565b565b60008060009054906101000a900473ffffffffffffffffffffffffffffffffffffffff16905090565b60608060006005600085815260200190815260200160002060030154905060008167ffffffffffffffff811115610834577f4e487b7100000000000000000000000000000000000000000000000000000000600052604160045260246000fd5b60405190808252806020026020018201604052801561086d57816020015b61085a611d9f565b8152602001906001900390816108525790505b50905060008267ffffffffffffffff8111156108b2577f4e487b7100000000000000000000000000000000000000000000000000000000600052604160045260246000fd5b6040519080825280602002602001820160405280156108e05781602001602082028036833780820191505090505b5090506000600190505b8381116111b057604051806101a00160405280600560008a8152602001908152602001600020600a016000600560008c8152602001908152602001600020600b01600060018761093a9190612c33565b8152602001908152602001600020548152602001908152602001600020600001805461096590612d24565b80601f016020809104026020016040519081016040528092919081815260200182805461099190612d24565b80156109de5780601f106109b3576101008083540402835291602001916109de565b820191906000526020600020905b8154815290600101906020018083116109c157829003601f168201915b50505050508152602001600560008a8152602001908152602001600020600a016000600560008c8152602001908152602001600020600b016000600187610a259190612c33565b81526020019081526020016000205481526020019081526020016000206001018054610a5090612d24565b80601f0160208091040260200160405190810160405280929190818152602001828054610a7c90612d24565b8015610ac95780601f10610a9e57610100808354040283529160200191610ac9565b820191906000526020600020905b815481529060010190602001808311610aac57829003601f168201915b50505050508152602001600560008a8152602001908152602001600020600a016000600560008c8152602001908152602001600020600b016000600187610b109190612c33565b81526020019081526020016000205481526020019081526020016000206002018054610b3b90612d24565b80601f0160208091040260200160405190810160405280929190818152602001828054610b6790612d24565b8015610bb45780601f10610b8957610100808354040283529160200191610bb4565b820191906000526020600020905b815481529060010190602001808311610b9757829003601f168201915b50505050508152602001600560008a8152602001908152602001600020600a016000600560008c8152602001908152602001600020600b016000600187610bfb9190612c33565b8152602001908152602001600020548152602001908152602001600020600301548152602001600560008a8152602001908152602001600020600a016000600560008c8152602001908152602001600020600b016000600187610c5e9190612c33565b815260200190815260200160002054815260200190815260200160002060040160009054906101000a900473ffffffffffffffffffffffffffffffffffffffff1673ffffffffffffffffffffffffffffffffffffffff168152602001600560008a8152602001908152602001600020600a016000600560008c8152602001908152602001600020600b016000600187610cf79190612c33565b8152602001908152602001600020548152602001908152602001600020600501548152602001600560008a8152602001908152602001600020600a016000600560008c8152602001908152602001600020600b016000600187610d5a9190612c33565b8152602001908152602001600020548152602001908152602001600020600601548152602001600560008a8152602001908152602001600020600a016000600560008c8152602001908152602001600020600b016000600187610dbd9190612c33565b8152602001908152602001600020548152602001908152602001600020600701548152602001600560008a8152602001908152602001600020600a016000600560008c8152602001908152602001600020600b016000600187610e209190612c33565b8152602001908152602001600020548152602001908152602001600020600801548152602001600560008a8152602001908152602001600020600a016000600560008c8152602001908152602001600020600b016000600187610e839190612c33565b81526020019081526020016000205481526020019081526020016000206009018054610eae90612d24565b80601f0160208091040260200160405190810160405280929190818152602001828054610eda90612d24565b8015610f275780601f10610efc57610100808354040283529160200191610f27565b820191906000526020600020905b815481529060010190602001808311610f0a57829003601f168201915b50505050508152602001600560008a8152602001908152602001600020600a016000600560008c8152602001908152602001600020600b016000600187610f6e9190612c33565b8152602001908152602001600020548152602001908152602001600020600a01548152602001600560008a8152602001908152602001600020600a016000600560008c8152602001908152602001600020600b016000600187610fd19190612c33565b8152602001908152602001600020548152602001908152602001600020600b01548152602001600560008a8152602001908152602001600020600a016000600560008c8152602001908152602001600020600b0160006001876110349190612c33565b8152602001908152602001600020548152602001908152602001600020600c0160009054906101000a900473ffffffffffffffffffffffffffffffffffffffff1673ffffffffffffffffffffffffffffffffffffffff168152508360018361109c9190612c33565b815181106110d3577f4e487b7100000000000000000000000000000000000000000000000000000000600052603260045260246000fd5b6020026020010181905250600560008881526020019081526020016000206009016000600560008a8152602001908152602001600020600b01600060018561111b9190612c33565b815260200190815260200160002054815260200190815260200160002060009054906101000a900460ff16826001836111549190612c33565b8151811061118b577f4e487b7100000000000000000000000000000000000000000000000000000000600052603260045260246000fd5b60200260200101901515908115158152505080806111a890612d87565b9150506108ea565b50818194509450505050915091565b600360009054906101000a900473ffffffffffffffffffffffffffffffffffffffff1673ffffffffffffffffffffffffffffffffffffffff163373ffffffffffffffffffffffffffffffffffffffff1614806112685750600260009054906101000a900473ffffffffffffffffffffffffffffffffffffffff1673ffffffffffffffffffffffffffffffffffffffff163373ffffffffffffffffffffffffffffffffffffffff16145b6112a7576040517f08c379a000000000000000000000000000000000000000000000000000000000815260040161129e906129ee565b60405180910390fd5b60006005600060045481526020019081526020016000209050338160000160006101000a81548173ffffffffffffffffffffffffffffffffffffffff021916908373ffffffffffffffffffffffffffffffffffffffff1602179055508481600701908051906020019061131b929190611e33565b5085816001019080519060200190611334929190611e33565b5060008160040181905550818160060181905550828160050160006101000a81548160ff021916908360ff1602179055508381600201908051906020019061137d929190611e33565b5060045481600801819055506004600081548092919061139c90612d87565b9190505550856040516113af9190612851565b60405180910390206004547f62b7b5ba11bfc95430fab0460fdf99b9c8fbc2b3a6a48caf79c3ee1b591c033660405160405180910390a3505050505050565b600560008967ffffffffffffffff16815260200190815260200160002060000160009054906101000a900473ffffffffffffffffffffffffffffffffffffffff1673ffffffffffffffffffffffffffffffffffffffff163373ffffffffffffffffffffffffffffffffffffffff161461149c576040517f08c379a000000000000000000000000000000000000000000000000000000000815260040161149390612a2e565b60405180910390fd5b600660008273ffffffffffffffffffffffffffffffffffffffff1673ffffffffffffffffffffffffffffffffffffffff16815260200190815260200160002060009054906101000a900460ff16611528576040517f08c379a000000000000000000000000000000000000000000000000000000000815260040161151f906129ae565b60405180910390fd5b600560008967ffffffffffffffff16815260200190815260200160002060060154600560008a67ffffffffffffffff1681526020019081526020016000206003015411156115ab576040517f08c379a00000000000000000000000000000000000000000000000000000000081526004016115a2906129ce565b60405180910390fd5b600081905060008173ffffffffffffffffffffffffffffffffffffffff1663d0def521338b6040518363ffffffff1660e01b81526004016115ed929190612925565b602060405180830381600087803b15801561160757600080fd5b505af115801561161b573d6000803e3d6000fd5b505050506040513d601f19601f8201168201806040525081019061163f91906120b8565b905080600560008c67ffffffffffffffff168152602001908152602001600020600b016000600560008e67ffffffffffffffff168152602001908152602001600020600301548152602001908152602001600020819055506001600560008c67ffffffffffffffff168152602001908152602001600020600301546116c49190612bdd565b600560008c67ffffffffffffffff168152602001908152602001600020600301819055506000600560008c67ffffffffffffffff168152602001908152602001600020600901600083815260200190815260200160002060006101000a81548160ff021916908315150217905550604051806101a001604052808981526020018881526020018a81526020018281526020013373ffffffffffffffffffffffffffffffffffffffff168152602001600081526020018767ffffffffffffffff1681526020018667ffffffffffffffff1681526020016001815260200185815260200160148152602001600081526020018473ffffffffffffffffffffffffffffffffffffffff16815250600560008c67ffffffffffffffff168152602001908152602001600020600a016000838152602001908152602001600020600082015181600001908051906020019061181b929190611e33565b506020820151816001019080519060200190611838929190611e33565b506040820151816002019080519060200190611855929190611e33565b506060820151816003015560808201518160040160006101000a81548173ffffffffffffffffffffffffffffffffffffffff021916908373ffffffffffffffffffffffffffffffffffffffff16021790555060a0820151816005015560c0820151816006015560e0820151816007015561010082015181600801556101208201518160090190805190602001906118ed929190611e33565b5061014082015181600a015561016082015181600b015561018082015181600c0160006101000a81548173ffffffffffffffffffffffffffffffffffffffff021916908373ffffffffffffffffffffffffffffffffffffffff16021790555090505050505050505050505050565b611963611bf7565b600073ffffffffffffffffffffffffffffffffffffffff168173ffffffffffffffffffffffffffffffffffffffff1614156119d3576040517f08c379a00000000000000000000000000000000000000000000000000000000081526004016119ca90612a0e565b60405180910390fd5b6119dc81611c75565b50565b505050565b60056020528060005260406000206000915090508060000160009054906101000a900473ffffffffffffffffffffffffffffffffffffffff1690806001018054611a2d90612d24565b80601f0160208091040260200160405190810160405280929190818152602001828054611a5990612d24565b8015611aa65780601f10611a7b57610100808354040283529160200191611aa6565b820191906000526020600020905b815481529060010190602001808311611a8957829003601f168201915b505050505090806002018054611abb90612d24565b80601f0160208091040260200160405190810160405280929190818152602001828054611ae790612d24565b8015611b345780601f10611b0957610100808354040283529160200191611b34565b820191906000526020600020905b815481529060010190602001808311611b1757829003601f168201915b5050505050908060030154908060040154908060050160009054906101000a900460ff1690806006015490806007018054611b6e90612d24565b80601f0160208091040260200160405190810160405280929190818152602001828054611b9a90612d24565b8015611be75780601f10611bbc57610100808354040283529160200191611be7565b820191906000526020600020905b815481529060010190602001808311611bca57829003601f168201915b5050505050908060080154905089565b611bff611d39565b73ffffffffffffffffffffffffffffffffffffffff16611c1d6107ab565b73ffffffffffffffffffffffffffffffffffffffff1614611c73576040517f08c379a0000000000000000000000000000000000000000000000000000000008152600401611c6a90612a4e565b60405180910390fd5b565b60008060009054906101000a900473ffffffffffffffffffffffffffffffffffffffff169050816000806101000a81548173ffffffffffffffffffffffffffffffffffffffff021916908373ffffffffffffffffffffffffffffffffffffffff1602179055508173ffffffffffffffffffffffffffffffffffffffff168173ffffffffffffffffffffffffffffffffffffffff167f8be0079c531659141344cd1fd0a4f28419497f9722a3daafe3b4186f6b6457e060405160405180910390a35050565b600033905090565b604051806101000160405280600073ffffffffffffffffffffffffffffffffffffffff168152602001600081526020016060815260200160608152602001606081526020016000815260200160008152602001600060ff1681525090565b604051806101a0016040528060608152602001606081526020016060815260200160008152602001600073ffffffffffffffffffffffffffffffffffffffff16815260200160008152602001600081526020016000815260200160008152602001606081526020016000815260200160008152602001600073ffffffffffffffffffffffffffffffffffffffff1681525090565b828054611e3f90612d24565b90600052602060002090601f016020900481019282611e615760008555611ea8565b82601f10611e7a57805160ff1916838001178555611ea8565b82800160010185558215611ea8579182015b82811115611ea7578251825591602001919060010190611e8c565b5b509050611eb59190611eb9565b5090565b5b80821115611ed2576000816000905550600101611eba565b5090565b6000611ee9611ee484612ac9565b612aa4565b905082815260208101848484011115611f0157600080fd5b611f0c848285612ce2565b509392505050565b600081359050611f2381612fb0565b92915050565b600082601f830112611f3a57600080fd5b8135611f4a848260208601611ed6565b91505092915050565b600081359050611f6281612fc7565b92915050565b600081519050611f7781612fc7565b92915050565b600081359050611f8c81612fde565b92915050565b600081359050611fa181612ff5565b92915050565b600060208284031215611fb957600080fd5b6000611fc784828501611f14565b91505092915050565b600080600080600060a08688031215611fe857600080fd5b600086013567ffffffffffffffff81111561200257600080fd5b61200e88828901611f29565b955050602086013567ffffffffffffffff81111561202b57600080fd5b61203788828901611f29565b945050604086013567ffffffffffffffff81111561205457600080fd5b61206088828901611f29565b935050606061207188828901611f92565b925050608061208288828901611f53565b9150509295509295909350565b6000602082840312156120a157600080fd5b60006120af84828501611f53565b91505092915050565b6000602082840312156120ca57600080fd5b60006120d884828501611f68565b91505092915050565b600080604083850312156120f457600080fd5b600061210285828601611f53565b925050602061211385828601611f53565b9150509250929050565b60008060006060848603121561213257600080fd5b600061214086828701611f53565b935050602061215186828701611f53565b925050604061216286828701611f14565b9150509250925092565b6000806000806080858703121561218257600080fd5b600061219087828801611f53565b94505060206121a187828801611f53565b93505060406121b287828801611f53565b92505060606121c387828801611f14565b91505092959194509250565b600080600080600080600080610100898b0312156121ec57600080fd5b60006121fa8b828c01611f7d565b985050602089013567ffffffffffffffff81111561221757600080fd5b6122238b828c01611f29565b975050604089013567ffffffffffffffff81111561224057600080fd5b61224c8b828c01611f29565b965050606089013567ffffffffffffffff81111561226957600080fd5b6122758b828c01611f29565b95505060806122868b828c01611f7d565b94505060a06122978b828c01611f7d565b93505060c089013567ffffffffffffffff8111156122b457600080fd5b6122c08b828c01611f29565b92505060e06122d18b828c01611f14565b9150509295985092959890939650565b60006122ed83836124a5565b60208301905092915050565b60006123058383612629565b905092915050565b600061231983836126e7565b905092915050565b61232a81612c79565b82525050565b61233981612c79565b82525050565b61234881612c67565b82525050565b61235781612c67565b82525050565b600061236882612b2a565b6123728185612b7d565b935061237d83612afa565b8060005b838110156123ae57815161239588826122e1565b97506123a083612b56565b925050600181019050612381565b5085935050505092915050565b60006123c682612b35565b6123d08185612b8e565b9350836020820285016123e285612b0a565b8060005b8581101561241e57848403895281516123ff85826122f9565b945061240a83612b63565b925060208a019950506001810190506123e6565b50829750879550505050505092915050565b600061243b82612b40565b6124458185612b9f565b93508360208202850161245785612b1a565b8060005b858110156124935784840389528151612474858261230d565b945061247f83612b70565b925060208a0199505060018101905061245b565b50829750879550505050505092915050565b6124ae81612c8b565b82525050565b60006124bf82612b4b565b6124c98185612bb0565b93506124d9818560208601612cf1565b6124e281612e5d565b840191505092915050565b60006124f882612b4b565b6125028185612bc1565b9350612512818560208601612cf1565b61251b81612e5d565b840191505092915050565b600061253182612b4b565b61253b8185612bd2565b935061254b818560208601612cf1565b80840191505092915050565b6000612564600e83612bc1565b915061256f82612e6e565b602082019050919050565b6000612587600a83612bc1565b915061259282612e97565b602082019050919050565b60006125aa602283612bc1565b91506125b582612ec0565b604082019050919050565b60006125cd602683612bc1565b91506125d882612f0f565b604082019050919050565b60006125f0601583612bc1565b91506125fb82612f5e565b602082019050919050565b6000612613602083612bc1565b915061261e82612f87565b602082019050919050565b600061010083016000830151612642600086018261233f565b5060208301516126556020860182612815565b506040830151848203604086015261266d82826124b4565b9150506060830151848203606086015261268782826124b4565b915050608083015184820360808601526126a182826124b4565b91505060a08301516126b660a0860182612815565b5060c08301516126c960c0860182612815565b5060e08301516126dc60e0860182612833565b508091505092915050565b60006101a083016000830151848203600086015261270582826124b4565b9150506020830151848203602086015261271f82826124b4565b9150506040830151848203604086015261273982826124b4565b915050606083015161274e6060860182612815565b5060808301516127616080860182612321565b5060a083015161277460a0860182612815565b5060c083015161278760c0860182612815565b5060e083015161279a60e0860182612815565b506101008301516127af610100860182612815565b506101208301518482036101208601526127c982826124b4565b9150506101408301516127e0610140860182612815565b506101608301516127f5610160860182612815565b5061018083015161280a61018086018261233f565b508091505092915050565b61281e81612cb7565b82525050565b61282d81612cb7565b82525050565b61283c81612cd5565b82525050565b61284b81612cd5565b82525050565b600061285d8284612526565b915081905092915050565b600060208201905061287d600083018461234e565b92915050565b600061012082019050612899600083018c612330565b81810360208301526128ab818b6124ed565b905081810360408301526128bf818a6124ed565b90506128ce6060830189612824565b6128db6080830188612824565b6128e860a0830187612842565b6128f560c0830186612824565b81810360e083015261290781856124ed565b9050612917610100830184612824565b9a9950505050505050505050565b600060408201905061293a600083018561234e565b818103602083015261294c81846124ed565b90509392505050565b6000602082019050818103600083015261296f81846123bb565b905092915050565b600060408201905081810360008301526129918185612430565b905081810360208301526129a5818461235d565b90509392505050565b600060208201905081810360008301526129c781612557565b9050919050565b600060208201905081810360008301526129e78161257a565b9050919050565b60006020820190508181036000830152612a078161259d565b9050919050565b60006020820190508181036000830152612a27816125c0565b9050919050565b60006020820190508181036000830152612a47816125e3565b9050919050565b60006020820190508181036000830152612a6781612606565b9050919050565b6000602082019050612a836000830184612824565b92915050565b6000602082019050612a9e6000830184612842565b92915050565b6000612aae612abf565b9050612aba8282612d56565b919050565b6000604051905090565b600067ffffffffffffffff821115612ae457612ae3612e2e565b5b612aed82612e5d565b9050602081019050919050565b6000819050602082019050919050565b6000819050602082019050919050565b6000819050602082019050919050565b600081519050919050565b600081519050919050565b600081519050919050565b600081519050919050565b6000602082019050919050565b6000602082019050919050565b6000602082019050919050565b600082825260208201905092915050565b600082825260208201905092915050565b600082825260208201905092915050565b600082825260208201905092915050565b600082825260208201905092915050565b600081905092915050565b6000612be882612cb7565b9150612bf383612cb7565b9250827fffffffffffffffffffffffffffffffffffffffffffffffffffffffffffffffff03821115612c2857612c27612dd0565b5b828201905092915050565b6000612c3e82612cb7565b9150612c4983612cb7565b925082821015612c5c57612c5b612dd0565b5b828203905092915050565b6000612c7282612c97565b9050919050565b6000612c8482612c97565b9050919050565b60008115159050919050565b600073ffffffffffffffffffffffffffffffffffffffff82169050919050565b6000819050919050565b600067ffffffffffffffff82169050919050565b600060ff82169050919050565b82818337600083830152505050565b60005b83811015612d0f578082015181840152602081019050612cf4565b83811115612d1e576000848401525b50505050565b60006002820490506001821680612d3c57607f821691505b60208210811415612d5057612d4f612dff565b5b50919050565b612d5f82612e5d565b810181811067ffffffffffffffff82111715612d7e57612d7d612e2e565b5b80604052505050565b6000612d9282612cb7565b91507fffffffffffffffffffffffffffffffffffffffffffffffffffffffffffffffff821415612dc557612dc4612dd0565b5b600182019050919050565b7f4e487b7100000000000000000000000000000000000000000000000000000000600052601160045260246000fd5b7f4e487b7100000000000000000000000000000000000000000000000000000000600052602260045260246000fd5b7f4e487b7100000000000000000000000000000000000000000000000000000000600052604160045260246000fd5b6000601f19601f8301169050919050565b7f5343206e6f7420616c6c6f776564000000000000000000000000000000000000600082015250565b7f4c696d6974204e46547300000000000000000000000000000000000000000000600082015250565b7f596f75206d75737420626520746865206f776e6572206f7220616e206172746960008201527f7374000000000000000000000000000000000000000000000000000000000000602082015250565b7f4f776e61626c653a206e6577206f776e657220697320746865207a65726f206160008201527f6464726573730000000000000000000000000000000000000000000000000000602082015250565b7f596f75206d75737420626520746865206f776e65720000000000000000000000600082015250565b7f4f776e61626c653a2063616c6c6572206973206e6f7420746865206f776e6572600082015250565b612fb981612c67565b8114612fc457600080fd5b50565b612fd081612cb7565b8114612fdb57600080fd5b50565b612fe781612cc1565b8114612ff257600080fd5b50565b612ffe81612cd5565b811461300957600080fd5b5056fea2646970667358221220442ade7f25e98926f658a42e971d45bc9275b1f7d7ada12daf7661f763fce15764736f6c63430008010033",
  "immutableReferences": {},
  "source": "// SPDX-License-Identifier: MIT\n\npragma solidity ^0.8.0;\n\n// Importar contratos necesarios\nimport \"@openzeppelin/contracts/security/ReentrancyGuard.sol\";\nimport \"@openzeppelin/contracts/access/Ownable.sol\";\nimport \"./myNFT.sol\";\n\ncontract NFTMarketplace is Ownable, ReentrancyGuard {\n    address public artist; // Direccin del artista\n    address public mpOwner; // Direccin del propietario del marketplace\n    uint8   public royalityFee = 0; // Porcentaje de regala del artista\n    uint256 public collectionCounter = 0; // Porcentaje de regala del artista\n\n    // Estructura para representar un NFT\n    struct NFT {\n        string      name;\n        string      description;\n        string      tokenURI;\n        uint256     tokenId;\n        address     payable owner;\n        uint256     investedMoney;\n        uint256     minInvesting;\n        uint256     maxDropDown;\n        uint256     leverage;\n        string     assets;\n        uint256     maxInvestors;\n        uint256     investors;\n        address     nftContracts;\n\n    }\n\n    struct IndexingCollections {\n        address     owner; // Dueo de la coleccin\n        uint256     idCollection; // Dueo de la coleccin\n        string      name; // Nombre de la coleccin\n        string      collectionURI;\n        string      description;\n        uint256     nNft;\n        uint256     maxNfts;\n        uint8       isCert;\n    }\n\n    // Estructura para representar una coleccin\n    struct Collection {\n        address payable             owner; // Dueo de la coleccin\n        string                      name; // Nombre de la coleccin\n        string                      collectionURI;\n        uint256                     nNfts;\n        uint256                     nIndex;\n        uint8                       isCert;\n        uint256                     maxNfts;\n        string                      description;\n        uint256                     idCollection;\n        mapping(uint256 => bool)    nftsForSale; // Mapping de NFTs a la venta por tokenId\n        mapping(uint256 => NFT)     nfts; // Mapping de NFTs con informacin adicional\n        mapping(uint256 => uint256) nftList; // Mapping de NFTs con informacin adicional\n    }\n\n    // Mapping de colecciones\n    mapping(uint256 => Collection) public collections;\n    mapping(address => bool) private isContractAllow;\n    \n    //IndexingCollections[] private indexingCollections;\n\n    // Eventos\n    event CollectionCreated(uint256 indexed collectionId, string indexed collectionAddress);\n    event NFTListed(uint256 indexed collectionId, uint256 indexed tokenId, uint256 price);\n    event NFTUnlisted(uint256 indexed collectionId, uint256 indexed tokenId);\n    event NFTSold(uint256 indexed collectionId, uint256 indexed tokenId, address buyer, uint256 price);\n\n    // Constructor\n    constructor(\n        address _addressNft\n    ) {\n        isContractAllow[_addressNft]=true;\n        collectionCounter = 0;\n        royalityFee = 0;\n        artist = msg.sender;\n        mpOwner = msg.sender;\n    }\n\n    function createCollection(string memory name, string memory description, string memory collectionURI, uint8 isCert, uint256 maxNfts) public  {\n                \n        require(msg.sender == mpOwner || msg.sender == artist, \"You must be the owner or an artist\");\n\n        // Crear un nuevo contrato ERC721\n        //////\n        Collection storage newCollection = collections[collectionCounter];\n        newCollection.owner = payable(msg.sender);\n        newCollection.description = description;\n        newCollection.name = name;\n        newCollection.nIndex = 0;//sindexingCollections.length;\n        newCollection.maxNfts = maxNfts;//sindexingCollections.length;\n        newCollection.isCert = isCert;//sindexingCollections.length;\n        newCollection.collectionURI = collectionURI;\n        newCollection.idCollection = collectionCounter;\n        collectionCounter++;\n        // Registrar la coleccin en el mapeo de colecciones del propietario\n        emit CollectionCreated(collectionCounter, name);\n    }\n        // Funcin para crear un nuevo NFT en una coleccin\n    function mintNFT(\n        uint64 collectionId,\n        string memory tokenURI,\n        string memory name,\n        string memory description,\n        uint64  minInvesting,\n        uint64  maxDropDown,\n        string memory assets,\n        address contractNft\n    ) public  {\n\n        require(msg.sender == collections[collectionId].owner, \"You must be the owner\");\n        require(isContractAllow[contractNft], \"SC not allowed\");\n        require(collections[collectionId].nNfts <= collections[collectionId].maxNfts, \"Limit NFTs\");\n\n        MyNFT existingCollection = MyNFT(address(contractNft));\n\n        \n        uint256 tokenId=existingCollection.mint(msg.sender, tokenURI);\n        collections[collectionId].nftList[collections[collectionId].nNfts] = tokenId;\n\n        collections[collectionId].nNfts = collections[collectionId].nNfts+1;\n        collections[collectionId].nftsForSale[tokenId] = false;\n\n        collections[collectionId].nfts[tokenId] = NFT(name, description, tokenURI, tokenId, payable(msg.sender),0,minInvesting,maxDropDown,1,assets,20,0,contractNft);\n        \n    }\n    \n    \n    // Funcin para listar un NFT en venta en una coleccin\n    function listNFT(uint256 collectionId, uint256 tokenId, uint256 price, address contractNft) public {\n       /* require(isContractAllow[contractNft], \"SC not allowed\");\n        MyNFT existingCollection = MyNFT(address(contractNft));\n        require(msg.sender == existingCollection.ownerOf(tokenId), \"You must be the owner\");\n\n        collections[collectionId].nftsForSale[tokenId] = true;\n        collections[collectionId].nfts[tokenId].price = price;  \n        collections[collectionId].nfts[tokenId].owner = payable(existingCollection.ownerOf(tokenId));\n\n        emit NFTListed(collectionId, tokenId, price);\n    */\n    }\n\n    // Funcin para quitar un NFT de la venta en una coleccin\n    function unListNFT(uint256 collectionId, uint256 tokenId, address contractNfts) public {\n        /*\n        require(isContractAllow[contractNfts], \"SC not allowed\");\n        MyNFT existingCollection = MyNFT(address(contractNfts));\n        require(msg.sender == existingCollection.ownerOf(tokenId), \"You must be the owner\");\n        require(collections[collectionId].nftsForSale[tokenId] == true, \"NFT is not listed\");\n\n        collections[collectionId].nftsForSale[tokenId] = false;\n\n        emit NFTUnlisted(collectionId, tokenId);\n        */\n    }\n\n    // Funcin para comprar un NFT de una coleccin\n    function buyNFT(uint256 collectionId, uint256 tokenId) public payable {\n/*\n        require(collections[collectionId].nftsForSale[tokenId] == true, \"NFT is not listed\");\n        uint256 price = collections[collectionId].nfts[tokenId].price;\n        require(msg.value >= price, \"Insufficient payment\");\n\n        MyNFT existingCollection = MyNFT(collections[collectionId].nfts[tokenId].nftContracts);\n\n        address payable seller = payable(existingCollection.ownerOf(tokenId));\n\n        collections[collectionId].nftsForSale[tokenId] = false;\n        emit NFTSold(collectionId, tokenId, msg.sender, price);\n\n        seller.transfer(price);\n        existingCollection.transferFrom(seller, msg.sender, tokenId);\n\n        collections[collectionId].nfts[tokenId].owner = payable(existingCollection.ownerOf(tokenId));\n*/\n\n    }\n    \n\n    // Per ara ho fem aixi. Retorne totes les colecions que tenim en el MP. Tenim en compte que nomes podran crear coleccions el owner o artistes.\n    // Per ara nomes le owner.\n    \n    function getAllCollections() public view returns (IndexingCollections[] memory) {\n\n        IndexingCollections[] memory _collections = new IndexingCollections[](collectionCounter);\n\n        for (uint256 i = 0; i < collectionCounter; i++) {\n            _collections[i] = IndexingCollections(\n                collections[i].owner,\n                collections[i].idCollection,\n                collections[i].name,\n                collections[i].collectionURI,\n                collections[i].description,\n                collections[i].nNfts,\n                collections[i].maxNfts,\n                collections[i].isCert\n            );\n        }\n        return _collections;\n    }\n\n       \n   \n       \n    function getNFTCollection (uint256 collectionId) public view returns (NFT[] memory, bool[] memory) {\n\n        uint256 nftCount = collections[collectionId].nNfts;\n        NFT[] memory nfts = new NFT[](nftCount);\n        bool[] memory forSale = new bool[](nftCount);\n\n        for (uint256 i = 1; i <= nftCount; i++) {   \n            nfts[i-1] = NFT(\n                collections[collectionId].nfts[collections[collectionId].nftList[i-1]].name,\n                collections[collectionId].nfts[collections[collectionId].nftList[i-1]].description,\n                collections[collectionId].nfts[collections[collectionId].nftList[i-1]].tokenURI,\n                collections[collectionId].nfts[collections[collectionId].nftList[i-1]].tokenId,\n                collections[collectionId].nfts[collections[collectionId].nftList[i-1]].owner,\n                collections[collectionId].nfts[collections[collectionId].nftList[i-1]].investedMoney,\n                collections[collectionId].nfts[collections[collectionId].nftList[i-1]].minInvesting,\n                collections[collectionId].nfts[collections[collectionId].nftList[i-1]].maxDropDown,\n                collections[collectionId].nfts[collections[collectionId].nftList[i-1]].leverage,\n                collections[collectionId].nfts[collections[collectionId].nftList[i-1]].assets,\n                collections[collectionId].nfts[collections[collectionId].nftList[i-1]].maxInvestors,\n                collections[collectionId].nfts[collections[collectionId].nftList[i-1]].investors,                \n                collections[collectionId].nfts[collections[collectionId].nftList[i-1]].nftContracts\n            );\n            forSale[i-1] = bool(collections[collectionId].nftsForSale[collections[collectionId].nftList[i-1]]);\n        }\n\n       \n        return (nfts, forSale);\n    }\n   \n}\n",
  "sourcePath": "C:\\Users\\envis\\Desktop\\Projectes\\Regular Solids\\Y\\Landing\\contracts\\NFTMarketPlace.sol",
  "compiler": {
    "name": "solc",
    "version": "0.8.1+commit.df193b15.Emscripten.clang"
  },
  "schemaVersion": "3.4.15",
  "updatedAt": "2023-10-04T16:06:38.473Z",
  "networkType": "ethereum",
  "devdoc": {
    "kind": "dev",
    "methods": {
      "owner()": {
        "details": "Returns the address of the current owner."
      },
      "renounceOwnership()": {
        "details": "Leaves the contract without owner. It will not be possible to call `onlyOwner` functions. Can only be called by the current owner. NOTE: Renouncing ownership will leave the contract without an owner, thereby disabling any functionality that is only available to the owner."
      },
      "transferOwnership(address)": {
        "details": "Transfers ownership of the contract to a new account (`newOwner`). Can only be called by the current owner."
      }
    },
    "version": 1
  },
  "userdoc": {
    "kind": "user",
    "methods": {},
    "version": 1
  }
}