{
  "contractName": "OrderStore",
  "abi": [
    {
      "inputs": [],
      "stateMutability": "nonpayable",
      "type": "constructor"
    },
    {
      "inputs": [],
      "name": "BPS_DIVIDER",
      "outputs": [
        {
          "internalType": "uint256",
          "name": "",
          "type": "uint256"
        }
      ],
      "stateMutability": "view",
      "type": "function",
      "constant": true
    },
    {
      "inputs": [],
      "name": "UNIT",
      "outputs": [
        {
          "internalType": "uint256",
          "name": "",
          "type": "uint256"
        }
      ],
      "stateMutability": "view",
      "type": "function",
      "constant": true
    },
    {
      "inputs": [],
      "name": "areNewOrdersPaused",
      "outputs": [
        {
          "internalType": "bool",
          "name": "",
          "type": "bool"
        }
      ],
      "stateMutability": "view",
      "type": "function",
      "constant": true
    },
    {
      "inputs": [],
      "name": "chainlinkCooldown",
      "outputs": [
        {
          "internalType": "uint256",
          "name": "",
          "type": "uint256"
        }
      ],
      "stateMutability": "view",
      "type": "function",
      "constant": true
    },
    {
      "inputs": [],
      "name": "isProcessingPaused",
      "outputs": [
        {
          "internalType": "bool",
          "name": "",
          "type": "bool"
        }
      ],
      "stateMutability": "view",
      "type": "function",
      "constant": true
    },
    {
      "inputs": [],
      "name": "maxMarketOrderTTL",
      "outputs": [
        {
          "internalType": "uint256",
          "name": "",
          "type": "uint256"
        }
      ],
      "stateMutability": "view",
      "type": "function",
      "constant": true
    },
    {
      "inputs": [],
      "name": "maxTriggerOrderTTL",
      "outputs": [
        {
          "internalType": "uint256",
          "name": "",
          "type": "uint256"
        }
      ],
      "stateMutability": "view",
      "type": "function",
      "constant": true
    },
    {
      "inputs": [],
      "name": "oid",
      "outputs": [
        {
          "internalType": "uint256",
          "name": "",
          "type": "uint256"
        }
      ],
      "stateMutability": "view",
      "type": "function",
      "constant": true
    },
    {
      "inputs": [
        {
          "internalType": "bool",
          "name": "b",
          "type": "bool"
        }
      ],
      "name": "setAreNewOrdersPaused",
      "outputs": [],
      "stateMutability": "nonpayable",
      "type": "function"
    },
    {
      "inputs": [
        {
          "internalType": "bool",
          "name": "b",
          "type": "bool"
        }
      ],
      "name": "setIsProcessingPaused",
      "outputs": [],
      "stateMutability": "nonpayable",
      "type": "function"
    },
    {
      "inputs": [
        {
          "internalType": "uint256",
          "name": "amount",
          "type": "uint256"
        }
      ],
      "name": "setMaxMarketOrderTTL",
      "outputs": [],
      "stateMutability": "nonpayable",
      "type": "function"
    },
    {
      "inputs": [
        {
          "internalType": "uint256",
          "name": "amount",
          "type": "uint256"
        }
      ],
      "name": "setMaxTriggerOrderTTL",
      "outputs": [],
      "stateMutability": "nonpayable",
      "type": "function"
    },
    {
      "inputs": [
        {
          "internalType": "uint256",
          "name": "amount",
          "type": "uint256"
        }
      ],
      "name": "setChainlinkCooldown",
      "outputs": [],
      "stateMutability": "nonpayable",
      "type": "function"
    },
    {
      "inputs": [
        {
          "components": [
            {
              "internalType": "uint256",
              "name": "orderId",
              "type": "uint256"
            },
            {
              "internalType": "uint256",
              "name": "strategyId",
              "type": "uint256"
            },
            {
              "internalType": "address",
              "name": "user",
              "type": "address"
            },
            {
              "internalType": "address",
              "name": "asset",
              "type": "address"
            },
            {
              "internalType": "string",
              "name": "market",
              "type": "string"
            },
            {
              "internalType": "uint256",
              "name": "margin",
              "type": "uint256"
            },
            {
              "internalType": "uint256",
              "name": "size",
              "type": "uint256"
            },
            {
              "internalType": "uint256",
              "name": "price",
              "type": "uint256"
            },
            {
              "internalType": "uint256",
              "name": "fee",
              "type": "uint256"
            },
            {
              "internalType": "bool",
              "name": "isLong",
              "type": "bool"
            },
            {
              "internalType": "uint8",
              "name": "orderType",
              "type": "uint8"
            },
            {
              "internalType": "bool",
              "name": "isReduceOnly",
              "type": "bool"
            },
            {
              "internalType": "uint256",
              "name": "timestamp",
              "type": "uint256"
            },
            {
              "internalType": "uint256",
              "name": "expiry",
              "type": "uint256"
            },
            {
              "internalType": "uint256",
              "name": "cancelOrderId",
              "type": "uint256"
            }
          ],
          "internalType": "struct OrderStore.Order",
          "name": "order",
          "type": "tuple"
        }
      ],
      "name": "add",
      "outputs": [
        {
          "internalType": "uint256",
          "name": "",
          "type": "uint256"
        }
      ],
      "stateMutability": "nonpayable",
      "type": "function"
    },
    {
      "inputs": [
        {
          "internalType": "uint256",
          "name": "orderId",
          "type": "uint256"
        }
      ],
      "name": "remove",
      "outputs": [],
      "stateMutability": "nonpayable",
      "type": "function"
    },
    {
      "inputs": [
        {
          "internalType": "uint256",
          "name": "orderId",
          "type": "uint256"
        },
        {
          "internalType": "uint256",
          "name": "cancelOrderId",
          "type": "uint256"
        }
      ],
      "name": "updateCancelOrderId",
      "outputs": [],
      "stateMutability": "nonpayable",
      "type": "function"
    },
    {
      "inputs": [
        {
          "internalType": "uint256",
          "name": "orderId",
          "type": "uint256"
        }
      ],
      "name": "get",
      "outputs": [
        {
          "components": [
            {
              "internalType": "uint256",
              "name": "orderId",
              "type": "uint256"
            },
            {
              "internalType": "uint256",
              "name": "strategyId",
              "type": "uint256"
            },
            {
              "internalType": "address",
              "name": "user",
              "type": "address"
            },
            {
              "internalType": "address",
              "name": "asset",
              "type": "address"
            },
            {
              "internalType": "string",
              "name": "market",
              "type": "string"
            },
            {
              "internalType": "uint256",
              "name": "margin",
              "type": "uint256"
            },
            {
              "internalType": "uint256",
              "name": "size",
              "type": "uint256"
            },
            {
              "internalType": "uint256",
              "name": "price",
              "type": "uint256"
            },
            {
              "internalType": "uint256",
              "name": "fee",
              "type": "uint256"
            },
            {
              "internalType": "bool",
              "name": "isLong",
              "type": "bool"
            },
            {
              "internalType": "uint8",
              "name": "orderType",
              "type": "uint8"
            },
            {
              "internalType": "bool",
              "name": "isReduceOnly",
              "type": "bool"
            },
            {
              "internalType": "uint256",
              "name": "timestamp",
              "type": "uint256"
            },
            {
              "internalType": "uint256",
              "name": "expiry",
              "type": "uint256"
            },
            {
              "internalType": "uint256",
              "name": "cancelOrderId",
              "type": "uint256"
            }
          ],
          "internalType": "struct OrderStore.Order",
          "name": "",
          "type": "tuple"
        }
      ],
      "stateMutability": "view",
      "type": "function",
      "constant": true
    },
    {
      "inputs": [
        {
          "internalType": "uint256[]",
          "name": "orderIds",
          "type": "uint256[]"
        }
      ],
      "name": "getMany",
      "outputs": [
        {
          "components": [
            {
              "internalType": "uint256",
              "name": "orderId",
              "type": "uint256"
            },
            {
              "internalType": "uint256",
              "name": "strategyId",
              "type": "uint256"
            },
            {
              "internalType": "address",
              "name": "user",
              "type": "address"
            },
            {
              "internalType": "address",
              "name": "asset",
              "type": "address"
            },
            {
              "internalType": "string",
              "name": "market",
              "type": "string"
            },
            {
              "internalType": "uint256",
              "name": "margin",
              "type": "uint256"
            },
            {
              "internalType": "uint256",
              "name": "size",
              "type": "uint256"
            },
            {
              "internalType": "uint256",
              "name": "price",
              "type": "uint256"
            },
            {
              "internalType": "uint256",
              "name": "fee",
              "type": "uint256"
            },
            {
              "internalType": "bool",
              "name": "isLong",
              "type": "bool"
            },
            {
              "internalType": "uint8",
              "name": "orderType",
              "type": "uint8"
            },
            {
              "internalType": "bool",
              "name": "isReduceOnly",
              "type": "bool"
            },
            {
              "internalType": "uint256",
              "name": "timestamp",
              "type": "uint256"
            },
            {
              "internalType": "uint256",
              "name": "expiry",
              "type": "uint256"
            },
            {
              "internalType": "uint256",
              "name": "cancelOrderId",
              "type": "uint256"
            }
          ],
          "internalType": "struct OrderStore.Order[]",
          "name": "",
          "type": "tuple[]"
        }
      ],
      "stateMutability": "view",
      "type": "function",
      "constant": true
    },
    {
      "inputs": [
        {
          "internalType": "uint256",
          "name": "length",
          "type": "uint256"
        }
      ],
      "name": "getMarketOrders",
      "outputs": [
        {
          "components": [
            {
              "internalType": "uint256",
              "name": "orderId",
              "type": "uint256"
            },
            {
              "internalType": "uint256",
              "name": "strategyId",
              "type": "uint256"
            },
            {
              "internalType": "address",
              "name": "user",
              "type": "address"
            },
            {
              "internalType": "address",
              "name": "asset",
              "type": "address"
            },
            {
              "internalType": "string",
              "name": "market",
              "type": "string"
            },
            {
              "internalType": "uint256",
              "name": "margin",
              "type": "uint256"
            },
            {
              "internalType": "uint256",
              "name": "size",
              "type": "uint256"
            },
            {
              "internalType": "uint256",
              "name": "price",
              "type": "uint256"
            },
            {
              "internalType": "uint256",
              "name": "fee",
              "type": "uint256"
            },
            {
              "internalType": "bool",
              "name": "isLong",
              "type": "bool"
            },
            {
              "internalType": "uint8",
              "name": "orderType",
              "type": "uint8"
            },
            {
              "internalType": "bool",
              "name": "isReduceOnly",
              "type": "bool"
            },
            {
              "internalType": "uint256",
              "name": "timestamp",
              "type": "uint256"
            },
            {
              "internalType": "uint256",
              "name": "expiry",
              "type": "uint256"
            },
            {
              "internalType": "uint256",
              "name": "cancelOrderId",
              "type": "uint256"
            }
          ],
          "internalType": "struct OrderStore.Order[]",
          "name": "",
          "type": "tuple[]"
        }
      ],
      "stateMutability": "view",
      "type": "function",
      "constant": true
    },
    {
      "inputs": [
        {
          "internalType": "uint256",
          "name": "length",
          "type": "uint256"
        },
        {
          "internalType": "uint256",
          "name": "offset",
          "type": "uint256"
        }
      ],
      "name": "getTriggerOrders",
      "outputs": [
        {
          "components": [
            {
              "internalType": "uint256",
              "name": "orderId",
              "type": "uint256"
            },
            {
              "internalType": "uint256",
              "name": "strategyId",
              "type": "uint256"
            },
            {
              "internalType": "address",
              "name": "user",
              "type": "address"
            },
            {
              "internalType": "address",
              "name": "asset",
              "type": "address"
            },
            {
              "internalType": "string",
              "name": "market",
              "type": "string"
            },
            {
              "internalType": "uint256",
              "name": "margin",
              "type": "uint256"
            },
            {
              "internalType": "uint256",
              "name": "size",
              "type": "uint256"
            },
            {
              "internalType": "uint256",
              "name": "price",
              "type": "uint256"
            },
            {
              "internalType": "uint256",
              "name": "fee",
              "type": "uint256"
            },
            {
              "internalType": "bool",
              "name": "isLong",
              "type": "bool"
            },
            {
              "internalType": "uint8",
              "name": "orderType",
              "type": "uint8"
            },
            {
              "internalType": "bool",
              "name": "isReduceOnly",
              "type": "bool"
            },
            {
              "internalType": "uint256",
              "name": "timestamp",
              "type": "uint256"
            },
            {
              "internalType": "uint256",
              "name": "expiry",
              "type": "uint256"
            },
            {
              "internalType": "uint256",
              "name": "cancelOrderId",
              "type": "uint256"
            }
          ],
          "internalType": "struct OrderStore.Order[]",
          "name": "",
          "type": "tuple[]"
        }
      ],
      "stateMutability": "view",
      "type": "function",
      "constant": true
    },
    {
      "inputs": [
        {
          "internalType": "address",
          "name": "user",
          "type": "address"
        }
      ],
      "name": "getUserOrders",
      "outputs": [
        {
          "components": [
            {
              "internalType": "uint256",
              "name": "orderId",
              "type": "uint256"
            },
            {
              "internalType": "uint256",
              "name": "strategyId",
              "type": "uint256"
            },
            {
              "internalType": "address",
              "name": "user",
              "type": "address"
            },
            {
              "internalType": "address",
              "name": "asset",
              "type": "address"
            },
            {
              "internalType": "string",
              "name": "market",
              "type": "string"
            },
            {
              "internalType": "uint256",
              "name": "margin",
              "type": "uint256"
            },
            {
              "internalType": "uint256",
              "name": "size",
              "type": "uint256"
            },
            {
              "internalType": "uint256",
              "name": "price",
              "type": "uint256"
            },
            {
              "internalType": "uint256",
              "name": "fee",
              "type": "uint256"
            },
            {
              "internalType": "bool",
              "name": "isLong",
              "type": "bool"
            },
            {
              "internalType": "uint8",
              "name": "orderType",
              "type": "uint8"
            },
            {
              "internalType": "bool",
              "name": "isReduceOnly",
              "type": "bool"
            },
            {
              "internalType": "uint256",
              "name": "timestamp",
              "type": "uint256"
            },
            {
              "internalType": "uint256",
              "name": "expiry",
              "type": "uint256"
            },
            {
              "internalType": "uint256",
              "name": "cancelOrderId",
              "type": "uint256"
            }
          ],
          "internalType": "struct OrderStore.Order[]",
          "name": "",
          "type": "tuple[]"
        }
      ],
      "stateMutability": "view",
      "type": "function",
      "constant": true
    },
    {
      "inputs": [],
      "name": "getMarketOrderCount",
      "outputs": [
        {
          "internalType": "uint256",
          "name": "",
          "type": "uint256"
        }
      ],
      "stateMutability": "view",
      "type": "function",
      "constant": true
    },
    {
      "inputs": [],
      "name": "getTriggerOrderCount",
      "outputs": [
        {
          "internalType": "uint256",
          "name": "",
          "type": "uint256"
        }
      ],
      "stateMutability": "view",
      "type": "function",
      "constant": true
    },
    {
      "inputs": [
        {
          "internalType": "address",
          "name": "user",
          "type": "address"
        }
      ],
      "name": "getUserOrderCount",
      "outputs": [
        {
          "internalType": "uint256",
          "name": "",
          "type": "uint256"
        }
      ],
      "stateMutability": "view",
      "type": "function",
      "constant": true
    },
    {
      "inputs": [
        {
          "internalType": "uint256",
          "name": "orderId",
          "type": "uint256"
        },
        {
          "internalType": "address",
          "name": "user",
          "type": "address"
        }
      ],
      "name": "isUserOrder",
      "outputs": [
        {
          "internalType": "bool",
          "name": "",
          "type": "bool"
        }
      ],
      "stateMutability": "view",
      "type": "function",
      "constant": true
    }
  ],
  "bytecode": "0x608060405261012c60065562ed4e0060075561012c60085534801561002357600080fd5b5060016000819055506120008061003b6000396000f3fe608060405234801561001057600080fd5b50600436106101735760003560e01c80638ae7fea2116100de578063c13e6cb811610097578063d9a9d87211610071578063d9a9d87214610460578063e80225d014610490578063ed33a582146104ae578063ef0bcc14146104cc57610173565b8063c13e6cb814610408578063c258266914610426578063d2e711c81461044457610173565b80638ae7fea2146103225780638efd47161461033e5780639507d39a1461036e5780639d8e21771461039e578063bde4acda146103bc578063bf708556146103d857610173565b80634cc82215116101305780634cc822151461024e57806359f0fc201461026a57806363c69f081461028657806368a3a177146102b65780637c4283bc146102e657806380de66b71461030457610173565b8063101ce0e71461017857806315b01141146101945780631647ad6d146101b25780631d66bd88146101e25780632cc7596714610200578063346e89f114610230575b600080fd5b610192600480360381019061018d919061167a565b6104e8565b005b61019c610579565b6040516101a99190611be5565b60405180910390f35b6101cc60048036038101906101c79190611639565b61057f565b6040516101d99190611be5565b60405180910390f35b6101ea61080b565b6040516101f79190611be5565b60405180910390f35b61021a600480360381019061021591906115a2565b610818565b6040516102279190611be5565b60405180910390f35b610238610864565b6040516102459190611be5565b60405180910390f35b6102686004803603810190610263919061167a565b61086a565b005b610284600480360381019061027f919061167a565b61086d565b005b6102a0600480360381019061029b91906115a2565b6108ba565b6040516102ad9190611b26565b60405180910390f35b6102d060048036038101906102cb91906116df565b6109aa565b6040516102dd9190611b26565b60405180910390f35b6102ee610a78565b6040516102fb9190611be5565b60405180910390f35b61030c610a7e565b6040516103199190611be5565b60405180910390f35b61033c6004803603810190610337919061167a565b610a8b565b005b6103586004803603810190610353919061167a565b610b1c565b6040516103659190611b26565b60405180910390f35b6103886004803603810190610383919061167a565b610bdb565b6040516103959190611bc3565b60405180910390f35b6103a6610df4565b6040516103b39190611be5565b60405180910390f35b6103d660048036038101906103d19190611610565b610e00565b005b6103f260048036038101906103ed91906115cb565b610e1d565b6040516103ff9190611b26565b60405180910390f35b61041061115c565b60405161041d9190611be5565b60405180910390f35b61042e611162565b60405161043b9190611be5565b60405180910390f35b61045e600480360381019061045991906116df565b611168565b005b61047a600480360381019061047591906116a3565b61118d565b6040516104879190611b48565b60405180910390f35b610498611195565b6040516104a59190611b48565b60405180910390f35b6104b66111a8565b6040516104c39190611b48565b60405180910390f35b6104e660048036038101906104e19190611610565b6111bb565b005b6000811161052b576040517f08c379a000000000000000000000000000000000000000000000000000000000815260040161052290611ba3565b60405180910390fd5b600754811061056f576040517f08c379a000000000000000000000000000000000000000000000000000000000815260040161056690611b83565b60405180910390fd5b8060068190555050565b60065481565b60008060016000815461059190611e0c565b9190508190559050808360000181815250508260026000838152602001908152602001600020600082015181600001556020820151816001015560408201518160020160006101000a81548173ffffffffffffffffffffffffffffffffffffffff021916908373ffffffffffffffffffffffffffffffffffffffff16021790555060608201518160030160006101000a81548173ffffffffffffffffffffffffffffffffffffffff021916908373ffffffffffffffffffffffffffffffffffffffff16021790555060808201518160040190805190602001906106759291906111d8565b5060a0820151816005015560c0820151816006015560e0820151816007015561010082015181600801556101208201518160090160006101000a81548160ff0219169083151502179055506101408201518160090160016101000a81548160ff021916908360ff1602179055506101608201518160090160026101000a81548160ff02191690831515021790555061018082015181600a01556101a082015181600b01556101c082015181600c015590505060036000846040015173ffffffffffffffffffffffffffffffffffffffff1673ffffffffffffffffffffffffffffffffffffffff168152602001908152602001600020819080600181540180825580915050600190039060005260206000200160009091909190915055600083610140015160ff1614156107d457600483600001519080600181540180825580915050600190039060005260206000200160009091909190915055610802565b6005836000015190806001815401808255809150506001900390600052602060002001600090919091909150555b80915050919050565b6000600480549050905090565b6000600360008373ffffffffffffffffffffffffffffffffffffffff1673ffffffffffffffffffffffffffffffffffffffff168152602001908152602001600020805490509050919050565b60075481565b50565b600081116108b0576040517f08c379a00000000000000000000000000000000000000000000000000000000081526004016108a790611ba3565b60405180910390fd5b8060088190555050565b60606000600360008473ffffffffffffffffffffffffffffffffffffffff1673ffffffffffffffffffffffffffffffffffffffff16815260200190815260200160002080549050905060008167ffffffffffffffff811115610945577f4e487b7100000000000000000000000000000000000000000000000000000000600052604160045260246000fd5b60405190808252806020026020018201604052801561097e57816020015b61096b61125e565b8152602001906001900390816109635790505b50905060005b8281101561099f57808061099790611e0c565b915050610984565b508092505050919050565b606060006005805490509050808411156109c2578093505b60008467ffffffffffffffff811115610a04577f4e487b7100000000000000000000000000000000000000000000000000000000600052604160045260246000fd5b604051908082528060200260200182016040528015610a3d57816020015b610a2a61125e565b815260200190600190039081610a225790505b50905060008490505b8486610a529190611cbc565b811015610a6c578080610a6490611e0c565b915050610a46565b50809250505092915050565b61271081565b6000600580549050905090565b60008111610ace576040517f08c379a0000000000000000000000000000000000000000000000000000000008152600401610ac590611ba3565b60405180910390fd5b6006548111610b12576040517f08c379a0000000000000000000000000000000000000000000000000000000008152600401610b0990611b63565b60405180910390fd5b8060078190555050565b60606000600480549050905080831115610b34578092505b60008367ffffffffffffffff811115610b76577f4e487b7100000000000000000000000000000000000000000000000000000000600052604160045260246000fd5b604051908082528060200260200182016040528015610baf57816020015b610b9c61125e565b815260200190600190039081610b945790505b50905060005b84811015610bd0578080610bc890611e0c565b915050610bb5565b508092505050919050565b610be361125e565b60026000838152602001908152602001600020604051806101e001604052908160008201548152602001600182015481526020016002820160009054906101000a900473ffffffffffffffffffffffffffffffffffffffff1673ffffffffffffffffffffffffffffffffffffffff1673ffffffffffffffffffffffffffffffffffffffff1681526020016003820160009054906101000a900473ffffffffffffffffffffffffffffffffffffffff1673ffffffffffffffffffffffffffffffffffffffff1673ffffffffffffffffffffffffffffffffffffffff168152602001600482018054610cd290611da9565b80601f0160208091040260200160405190810160405280929190818152602001828054610cfe90611da9565b8015610d4b5780601f10610d2057610100808354040283529160200191610d4b565b820191906000526020600020905b815481529060010190602001808311610d2e57829003601f168201915b50505050508152602001600582015481526020016006820154815260200160078201548152602001600882015481526020016009820160009054906101000a900460ff161515151581526020016009820160019054906101000a900460ff1660ff1660ff1681526020016009820160029054906101000a900460ff16151515158152602001600a8201548152602001600b8201548152602001600c820154815250509050919050565b670de0b6b3a764000081565b80600960016101000a81548160ff02191690831515021790555050565b6060600083839050905060008167ffffffffffffffff811115610e69577f4e487b7100000000000000000000000000000000000000000000000000000000600052604160045260246000fd5b604051908082528060200260200182016040528015610ea257816020015b610e8f61125e565b815260200190600190039081610e875790505b50905060005b828110156111505760026000878784818110610eed577f4e487b7100000000000000000000000000000000000000000000000000000000600052603260045260246000fd5b905060200201358152602001908152602001600020604051806101e001604052908160008201548152602001600182015481526020016002820160009054906101000a900473ffffffffffffffffffffffffffffffffffffffff1673ffffffffffffffffffffffffffffffffffffffff1673ffffffffffffffffffffffffffffffffffffffff1681526020016003820160009054906101000a900473ffffffffffffffffffffffffffffffffffffffff1673ffffffffffffffffffffffffffffffffffffffff1673ffffffffffffffffffffffffffffffffffffffff168152602001600482018054610fde90611da9565b80601f016020809104026020016040519081016040528092919081815260200182805461100a90611da9565b80156110575780601f1061102c57610100808354040283529160200191611057565b820191906000526020600020905b81548152906001019060200180831161103a57829003601f168201915b50505050508152602001600582015481526020016006820154815260200160078201548152602001600882015481526020016009820160009054906101000a900460ff161515151581526020016009820160019054906101000a900460ff1660ff1660ff1681526020016009820160029054906101000a900460ff16151515158152602001600a8201548152602001600b8201548152602001600c82015481525050828281518110611132577f4e487b7100000000000000000000000000000000000000000000000000000000600052603260045260246000fd5b6020026020010181905250808061114890611e0c565b915050610ea8565b50809250505092915050565b60085481565b60015481565b60006002600084815260200190815260200160002090508181600c0181905550505050565b600092915050565b600960019054906101000a900460ff1681565b600960009054906101000a900460ff1681565b80600960006101000a81548160ff02191690831515021790555050565b8280546111e490611da9565b90600052602060002090601f016020900481019282611206576000855561124d565b82601f1061121f57805160ff191683800117855561124d565b8280016001018555821561124d579182015b8281111561124c578251825591602001919060010190611231565b5b50905061125a9190611307565b5090565b604051806101e001604052806000815260200160008152602001600073ffffffffffffffffffffffffffffffffffffffff168152602001600073ffffffffffffffffffffffffffffffffffffffff1681526020016060815260200160008152602001600081526020016000815260200160008152602001600015158152602001600060ff1681526020016000151581526020016000815260200160008152602001600081525090565b5b80821115611320576000816000905550600101611308565b5090565b600061133761133284611c25565b611c00565b90508281526020810184848401111561134f57600080fd5b61135a848285611d67565b509392505050565b60008135905061137181611f6e565b92915050565b60008083601f84011261138957600080fd5b8235905067ffffffffffffffff8111156113a257600080fd5b6020830191508360208202830111156113ba57600080fd5b9250929050565b6000813590506113d081611f85565b92915050565b600082601f8301126113e757600080fd5b81356113f7848260208601611324565b91505092915050565b60006101e0828403121561141357600080fd5b61141e6101e0611c00565b9050600061142e84828501611578565b600083015250602061144284828501611578565b602083015250604061145684828501611362565b604083015250606061146a84828501611362565b606083015250608082013567ffffffffffffffff81111561148a57600080fd5b611496848285016113d6565b60808301525060a06114aa84828501611578565b60a08301525060c06114be84828501611578565b60c08301525060e06114d284828501611578565b60e0830152506101006114e784828501611578565b610100830152506101206114fd848285016113c1565b610120830152506101406115138482850161158d565b61014083015250610160611529848285016113c1565b6101608301525061018061153f84828501611578565b610180830152506101a061155584828501611578565b6101a0830152506101c061156b84828501611578565b6101c08301525092915050565b60008135905061158781611f9c565b92915050565b60008135905061159c81611fb3565b92915050565b6000602082840312156115b457600080fd5b60006115c284828501611362565b91505092915050565b600080602083850312156115de57600080fd5b600083013567ffffffffffffffff8111156115f857600080fd5b61160485828601611377565b92509250509250929050565b60006020828403121561162257600080fd5b6000611630848285016113c1565b91505092915050565b60006020828403121561164b57600080fd5b600082013567ffffffffffffffff81111561166557600080fd5b61167184828501611400565b91505092915050565b60006020828403121561168c57600080fd5b600061169a84828501611578565b91505092915050565b600080604083850312156116b657600080fd5b60006116c485828601611578565b92505060206116d585828601611362565b9150509250929050565b600080604083850312156116f257600080fd5b600061170085828601611578565b925050602061171185828601611578565b9150509250929050565b60006117278383611873565b905092915050565b61173881611d12565b82525050565b600061174982611c66565b6117538185611c89565b93508360208202850161176585611c56565b8060005b858110156117a15784840389528151611782858261171b565b945061178d83611c7c565b925060208a01995050600181019050611769565b50829750879550505050505092915050565b6117bc81611d24565b82525050565b6117cb81611d24565b82525050565b60006117dc82611c71565b6117e68185611c9a565b93506117f6818560208601611d76565b6117ff81611ee2565b840191505092915050565b6000611817601a83611cab565b915061182282611ef3565b602082019050919050565b600061183a601b83611cab565b915061184582611f1c565b602082019050919050565b600061185d600783611cab565b915061186882611f45565b602082019050919050565b60006101e08301600083015161188c6000860182611af9565b50602083015161189f6020860182611af9565b5060408301516118b2604086018261172f565b5060608301516118c5606086018261172f565b50608083015184820360808601526118dd82826117d1565b91505060a08301516118f260a0860182611af9565b5060c083015161190560c0860182611af9565b5060e083015161191860e0860182611af9565b5061010083015161192d610100860182611af9565b506101208301516119426101208601826117b3565b50610140830151611957610140860182611b17565b5061016083015161196c6101608601826117b3565b50610180830151611981610180860182611af9565b506101a08301516119966101a0860182611af9565b506101c08301516119ab6101c0860182611af9565b508091505092915050565b60006101e0830160008301516119cf6000860182611af9565b5060208301516119e26020860182611af9565b5060408301516119f5604086018261172f565b506060830151611a08606086018261172f565b5060808301518482036080860152611a2082826117d1565b91505060a0830151611a3560a0860182611af9565b5060c0830151611a4860c0860182611af9565b5060e0830151611a5b60e0860182611af9565b50610100830151611a70610100860182611af9565b50610120830151611a856101208601826117b3565b50610140830151611a9a610140860182611b17565b50610160830151611aaf6101608601826117b3565b50610180830151611ac4610180860182611af9565b506101a0830151611ad96101a0860182611af9565b506101c0830151611aee6101c0860182611af9565b508091505092915050565b611b0281611d50565b82525050565b611b1181611d50565b82525050565b611b2081611d5a565b82525050565b60006020820190508181036000830152611b40818461173e565b905092915050565b6000602082019050611b5d60008301846117c2565b92915050565b60006020820190508181036000830152611b7c8161180a565b9050919050565b60006020820190508181036000830152611b9c8161182d565b9050919050565b60006020820190508181036000830152611bbc81611850565b9050919050565b60006020820190508181036000830152611bdd81846119b6565b905092915050565b6000602082019050611bfa6000830184611b08565b92915050565b6000611c0a611c1b565b9050611c168282611ddb565b919050565b6000604051905090565b600067ffffffffffffffff821115611c4057611c3f611eb3565b5b611c4982611ee2565b9050602081019050919050565b6000819050602082019050919050565b600081519050919050565b600081519050919050565b6000602082019050919050565b600082825260208201905092915050565b600082825260208201905092915050565b600082825260208201905092915050565b6000611cc782611d50565b9150611cd283611d50565b9250827fffffffffffffffffffffffffffffffffffffffffffffffffffffffffffffffff03821115611d0757611d06611e55565b5b828201905092915050565b6000611d1d82611d30565b9050919050565b60008115159050919050565b600073ffffffffffffffffffffffffffffffffffffffff82169050919050565b6000819050919050565b600060ff82169050919050565b82818337600083830152505050565b60005b83811015611d94578082015181840152602081019050611d79565b83811115611da3576000848401525b50505050565b60006002820490506001821680611dc157607f821691505b60208210811415611dd557611dd4611e84565b5b50919050565b611de482611ee2565b810181811067ffffffffffffffff82111715611e0357611e02611eb3565b5b80604052505050565b6000611e1782611d50565b91507fffffffffffffffffffffffffffffffffffffffffffffffffffffffffffffffff821415611e4a57611e49611e55565b5b600182019050919050565b7f4e487b7100000000000000000000000000000000000000000000000000000000600052601160045260246000fd5b7f4e487b7100000000000000000000000000000000000000000000000000000000600052602260045260246000fd5b7f4e487b7100000000000000000000000000000000000000000000000000000000600052604160045260246000fd5b6000601f19601f8301169050919050565b7f616d6f756e74203c206d61784d61726b65744f7264657254544c000000000000600082015250565b7f616d6f756e74203e206d6178547269676765724f7264657254544c0000000000600082015250565b7f21616d6f756e7400000000000000000000000000000000000000000000000000600082015250565b611f7781611d12565b8114611f8257600080fd5b50565b611f8e81611d24565b8114611f9957600080fd5b50565b611fa581611d50565b8114611fb057600080fd5b50565b611fbc81611d5a565b8114611fc757600080fd5b5056fea264697066735822122037be6562c1caf7efc57649f89f713cb268527cc72468492e20ffe30fd78f4c0164736f6c63430008010033",
  "immutableReferences": {},
  "source": "// SPDX-License-Identifier: MIT\r\n\r\npragma solidity ^0.8.0;\r\n\r\n// Importar contratos necesarios\r\nimport \"@openzeppelin/contracts/security/ReentrancyGuard.sol\";\r\nimport \"@openzeppelin/contracts/access/Ownable.sol\";\r\nimport \"./myNFT.sol\";\r\n\r\n\r\n/// @title OrderStore\r\n/// @notice Persistent storage for Orders.sol\r\ncontract OrderStore is ReentrancyGuard {\r\n    // Libraries\r\n    //using EnumerableSet for EnumerableSet.UintSet;\r\n    using Address for address payable;\r\n\r\n    // Constants\r\n    uint256 public constant UNIT = 10 ** 18;\r\n    uint256 public constant BPS_DIVIDER = 10000;\r\n\r\n    // Order struct\r\n    struct Order {\r\n        uint256 orderId; // incremental order id\r\n        uint256 strategyId; // incremental order id\r\n        address user; // user that usubmitted the order\r\n        address asset; // Asset address, e.g. address(0) for ETH\r\n        string market; // Market this order was submitted on\r\n        uint256 margin; // Collateral tied to this order. In wei\r\n        uint256 size; // Order size (margin * leverage). In wei\r\n        uint256 price; // The order's price if its a trigger or protected order\r\n        uint256 fee; // Fee amount paid. In wei\r\n        bool isLong; // Wether the order is a buy or sell order\r\n        uint8 orderType; // 0 = market, 1 = limit, 2 = stop\r\n        bool isReduceOnly; // Wether the order is reduce-only\r\n        uint256 timestamp; // block.timestamp at which the order was submitted\r\n        uint256 expiry; // block.timestamp at which the order expires\r\n        uint256 cancelOrderId; // orderId to cancel when this order executes\r\n    }\r\n\r\n    uint256 public oid; // incremental order id\r\n    mapping(uint256 => Order) private orders; // order id => Order\r\n    mapping(address => uint256[]) private userOrderIds; // user => [order ids..]\r\n    uint256[] private marketOrderIds; // [order ids..]\r\n    uint256[] private triggerOrderIds; // [order ids..]\r\n\r\n    uint256 public maxMarketOrderTTL = 5 minutes;\r\n    uint256 public maxTriggerOrderTTL = 180 days;\r\n    uint256 public chainlinkCooldown = 5 minutes;\r\n\r\n    bool public areNewOrdersPaused;\r\n    bool public isProcessingPaused;\r\n\r\n    constructor() {}\r\n\r\n    // Setters\r\n\r\n    /// @notice Disable submitting new orders\r\n    /// @dev Only callable by governance\r\n    function setAreNewOrdersPaused(bool b) external  {\r\n        areNewOrdersPaused = b;\r\n    }\r\n\r\n    /// @notice Disable processing new orders\r\n    /// @dev Only callable by governance\r\n    function setIsProcessingPaused(bool b) external  {\r\n        isProcessingPaused = b;\r\n    }\r\n\r\n    /// @notice Set duration until market orders expire\r\n    /// @dev Only callable by governance\r\n    /// @param amount Duration in seconds\r\n    function setMaxMarketOrderTTL(uint256 amount) external  {\r\n        require(amount > 0, '!amount');\r\n        require(amount < maxTriggerOrderTTL, 'amount > maxTriggerOrderTTL');\r\n        maxMarketOrderTTL = amount;\r\n    }\r\n\r\n    /// @notice Set duration until trigger orders expire\r\n    /// @dev Only callable by governance\r\n    /// @param amount Duration in seconds\r\n    function setMaxTriggerOrderTTL(uint256 amount) external  {\r\n        require(amount > 0, '!amount');\r\n        require(amount > maxMarketOrderTTL, 'amount < maxMarketOrderTTL');\r\n        maxTriggerOrderTTL = amount;\r\n    }\r\n\r\n    /// @notice Set duration after orders can be executed with chainlink\r\n    /// @dev Only callable by governance\r\n    /// @param amount Duration in seconds\r\n    function setChainlinkCooldown(uint256 amount) external  {\r\n        require(amount > 0, '!amount');\r\n        chainlinkCooldown = amount;\r\n    }\r\n\r\n    /// @notice Adds order to storage\r\n    /// @dev Only callable by other protocol contracts\r\n    function add(Order memory order) external  returns (uint256) {\r\n        uint256 nextOrderId = ++oid;\r\n        order.orderId = nextOrderId;\r\n        orders[nextOrderId] = order;\r\n        userOrderIds[order.user].push(nextOrderId);\r\n        if (order.orderType == 0) {\r\n            marketOrderIds.push(order.orderId);\r\n        } else {\r\n            triggerOrderIds.push(order.orderId);\r\n        }\r\n        return nextOrderId;\r\n    }\r\n\r\n    /// @notice Removes order from store\r\n    /// @dev Only callable by other protocol contracts\r\n    /// @param orderId Order to remove\r\n    function remove(uint256 orderId) external  {\r\n      /*  Order memory order = orders[orderId];\r\n        if (order.size == 0) return;\r\n        userOrderIds[order.user].remove(orderId);\r\n        marketOrderIds.remove(orderId);\r\n        triggerOrderIds.remove(orderId);\r\n        delete orders[orderId];\r\n    */\r\n    }\r\n\r\n    /// @notice Updates `cancelOrderId` of `orderId`, e.g. TP order cancels a SL order and vice versa\r\n    /// @dev Only callable by other protocol contracts\r\n    /// @param orderId Order which cancels `cancelOrderId` on execution\r\n    /// @param cancelOrderId Order to cancel when `orderId` executes\r\n    function updateCancelOrderId(uint256 orderId, uint256 cancelOrderId) external  {\r\n        Order storage order = orders[orderId];\r\n        order.cancelOrderId = cancelOrderId;\r\n    }\r\n\r\n    /// @notice Returns a single order\r\n    /// @param orderId Order to get\r\n    function get(uint256 orderId) external view returns (Order memory) {\r\n        return orders[orderId];\r\n    }\r\n\r\n    /// @notice Returns many orders\r\n    /// @param orderIds Orders to get, e.g. [1, 2, 5]\r\n    function getMany(uint256[] calldata orderIds) external view returns (Order[] memory) {\r\n        uint256 length = orderIds.length;\r\n        Order[] memory _orders = new Order[](length);\r\n\r\n        for (uint256 i = 0; i < length; i++) {\r\n            _orders[i] = orders[orderIds[i]];\r\n        }\r\n\r\n        return _orders;\r\n    }\r\n\r\n    /// @notice Returns market orders\r\n    /// @param length Amount of market orders to return\r\n    function getMarketOrders(uint256 length) external view returns (Order[] memory) {\r\n        uint256 _length = marketOrderIds.length;\r\n        if (length > _length) length = _length;\r\n\r\n        Order[] memory _orders = new Order[](length);\r\n\r\n        for (uint256 i = 0; i < length; i++) {\r\n     //       _orders[i] = orders[marketOrderIds.at(i)];\r\n        }\r\n\r\n        return _orders;\r\n    }\r\n\r\n    /// @notice Returns trigger orders\r\n    /// @param length Amount of trigger orders to return\r\n    /// @param offset Offset to start\r\n    function getTriggerOrders(uint256 length, uint256 offset) external view returns (Order[] memory) {\r\n        uint256 _length = triggerOrderIds.length;\r\n        if (length > _length) length = _length;\r\n\r\n        Order[] memory _orders = new Order[](length);\r\n\r\n        for (uint256 i = offset; i < length + offset; i++) {\r\n        //    _orders[i] = orders[triggerOrderIds.at(i)];\r\n        }\r\n\r\n        return _orders;\r\n    }\r\n\r\n    /// @notice Returns orders of `user`\r\n    function getUserOrders(address user) external view returns (Order[] memory) {\r\n        uint256 length = userOrderIds[user].length;\r\n        Order[] memory _orders = new Order[](length);\r\n\r\n        for (uint256 i = 0; i < length; i++) {\r\n          //  _orders[i] = orders[userOrderIds[user].at(i)];\r\n        }\r\n\r\n        return _orders;\r\n    }\r\n\r\n    /// @notice Returns amount of market orders\r\n    function getMarketOrderCount() external view returns (uint256) {\r\n        return marketOrderIds.length;\r\n    }\r\n\r\n    /// @notice Returns amount of trigger orders\r\n    function getTriggerOrderCount() external view returns (uint256) {\r\n        return triggerOrderIds.length;\r\n    }\r\n\r\n    /// @notice Returns order amount of `user`\r\n    function getUserOrderCount(address user) external view returns (uint256) {\r\n        return userOrderIds[user].length;\r\n    }\r\n\r\n    /// @notice Returns true if order is from `user`\r\n    /// @param orderId order to check\r\n    /// @param user user to check\r\n    function isUserOrder(uint256 orderId, address user) external view returns (bool) {\r\n        return false;//userOrderIds[user].contains(orderId);\r\n    }\r\n}\r\n\r\n",
  "sourcePath": "C:\\Users\\envis\\Desktop\\Projectes\\Regular Solids\\Y\\Landing\\contracts\\OrderStore.sol",
  "compiler": {
    "name": "solc",
    "version": "0.8.1+commit.df193b15.Emscripten.clang"
  },
  "schemaVersion": "3.4.15",
  "updatedAt": "2023-10-04T16:06:38.515Z",
  "networkType": "ethereum",
  "devdoc": {
    "kind": "dev",
    "methods": {
      "add((uint256,uint256,address,address,string,uint256,uint256,uint256,uint256,bool,uint8,bool,uint256,uint256,uint256))": {
        "details": "Only callable by other protocol contracts"
      },
      "get(uint256)": {
        "params": {
          "orderId": "Order to get"
        }
      },
      "getMany(uint256[])": {
        "params": {
          "orderIds": "Orders to get, e.g. [1, 2, 5]"
        }
      },
      "getMarketOrders(uint256)": {
        "params": {
          "length": "Amount of market orders to return"
        }
      },
      "getTriggerOrders(uint256,uint256)": {
        "params": {
          "length": "Amount of trigger orders to return",
          "offset": "Offset to start"
        }
      },
      "isUserOrder(uint256,address)": {
        "params": {
          "orderId": "order to check",
          "user": "user to check"
        }
      },
      "remove(uint256)": {
        "details": "Only callable by other protocol contracts",
        "params": {
          "orderId": "Order to remove"
        }
      },
      "setAreNewOrdersPaused(bool)": {
        "details": "Only callable by governance"
      },
      "setChainlinkCooldown(uint256)": {
        "details": "Only callable by governance",
        "params": {
          "amount": "Duration in seconds"
        }
      },
      "setIsProcessingPaused(bool)": {
        "details": "Only callable by governance"
      },
      "setMaxMarketOrderTTL(uint256)": {
        "details": "Only callable by governance",
        "params": {
          "amount": "Duration in seconds"
        }
      },
      "setMaxTriggerOrderTTL(uint256)": {
        "details": "Only callable by governance",
        "params": {
          "amount": "Duration in seconds"
        }
      },
      "updateCancelOrderId(uint256,uint256)": {
        "details": "Only callable by other protocol contracts",
        "params": {
          "cancelOrderId": "Order to cancel when `orderId` executes",
          "orderId": "Order which cancels `cancelOrderId` on execution"
        }
      }
    },
    "title": "OrderStore",
    "version": 1
  },
  "userdoc": {
    "kind": "user",
    "methods": {
      "add((uint256,uint256,address,address,string,uint256,uint256,uint256,uint256,bool,uint8,bool,uint256,uint256,uint256))": {
        "notice": "Adds order to storage"
      },
      "get(uint256)": {
        "notice": "Returns a single order"
      },
      "getMany(uint256[])": {
        "notice": "Returns many orders"
      },
      "getMarketOrderCount()": {
        "notice": "Returns amount of market orders"
      },
      "getMarketOrders(uint256)": {
        "notice": "Returns market orders"
      },
      "getTriggerOrderCount()": {
        "notice": "Returns amount of trigger orders"
      },
      "getTriggerOrders(uint256,uint256)": {
        "notice": "Returns trigger orders"
      },
      "getUserOrderCount(address)": {
        "notice": "Returns order amount of `user`"
      },
      "getUserOrders(address)": {
        "notice": "Returns orders of `user`"
      },
      "isUserOrder(uint256,address)": {
        "notice": "Returns true if order is from `user`"
      },
      "remove(uint256)": {
        "notice": "Removes order from store"
      },
      "setAreNewOrdersPaused(bool)": {
        "notice": "Disable submitting new orders"
      },
      "setChainlinkCooldown(uint256)": {
        "notice": "Set duration after orders can be executed with chainlink"
      },
      "setIsProcessingPaused(bool)": {
        "notice": "Disable processing new orders"
      },
      "setMaxMarketOrderTTL(uint256)": {
        "notice": "Set duration until market orders expire"
      },
      "setMaxTriggerOrderTTL(uint256)": {
        "notice": "Set duration until trigger orders expire"
      },
      "updateCancelOrderId(uint256,uint256)": {
        "notice": "Updates `cancelOrderId` of `orderId`, e.g. TP order cancels a SL order and vice versa"
      }
    },
    "notice": "Persistent storage for Orders.sol",
    "version": 1
  }
}