{
  "contractName": "Orders",
  "abi": [
    {
      "inputs": [
        {
          "internalType": "address",
          "name": "_orderStore",
          "type": "address"
        }
      ],
      "stateMutability": "nonpayable",
      "type": "constructor"
    },
    {
      "anonymous": false,
      "inputs": [
        {
          "indexed": true,
          "internalType": "uint256",
          "name": "orderId",
          "type": "uint256"
        },
        {
          "indexed": true,
          "internalType": "address",
          "name": "user",
          "type": "address"
        },
        {
          "indexed": false,
          "internalType": "string",
          "name": "reason",
          "type": "string"
        }
      ],
      "name": "OrderCancelled",
      "type": "event"
    },
    {
      "anonymous": false,
      "inputs": [
        {
          "indexed": true,
          "internalType": "uint256",
          "name": "orderId",
          "type": "uint256"
        },
        {
          "indexed": true,
          "internalType": "address",
          "name": "user",
          "type": "address"
        },
        {
          "indexed": true,
          "internalType": "address",
          "name": "asset",
          "type": "address"
        },
        {
          "indexed": false,
          "internalType": "string",
          "name": "market",
          "type": "string"
        },
        {
          "indexed": false,
          "internalType": "uint256",
          "name": "margin",
          "type": "uint256"
        },
        {
          "indexed": false,
          "internalType": "uint256",
          "name": "size",
          "type": "uint256"
        },
        {
          "indexed": false,
          "internalType": "uint256",
          "name": "price",
          "type": "uint256"
        },
        {
          "indexed": false,
          "internalType": "uint256",
          "name": "fee",
          "type": "uint256"
        },
        {
          "indexed": false,
          "internalType": "bool",
          "name": "isLong",
          "type": "bool"
        },
        {
          "indexed": false,
          "internalType": "uint8",
          "name": "orderType",
          "type": "uint8"
        },
        {
          "indexed": false,
          "internalType": "bool",
          "name": "isReduceOnly",
          "type": "bool"
        },
        {
          "indexed": false,
          "internalType": "uint256",
          "name": "expiry",
          "type": "uint256"
        },
        {
          "indexed": false,
          "internalType": "uint256",
          "name": "cancelOrderId",
          "type": "uint256"
        }
      ],
      "name": "OrderCreated",
      "type": "event"
    },
    {
      "inputs": [],
      "name": "BPS_DIVIDER",
      "outputs": [
        {
          "internalType": "uint256",
          "name": "",
          "type": "uint256"
        }
      ],
      "stateMutability": "view",
      "type": "function"
    },
    {
      "inputs": [],
      "name": "UNIT",
      "outputs": [
        {
          "internalType": "uint256",
          "name": "",
          "type": "uint256"
        }
      ],
      "stateMutability": "view",
      "type": "function"
    },
    {
      "inputs": [],
      "name": "orderStore",
      "outputs": [
        {
          "internalType": "contract OrderStore",
          "name": "",
          "type": "address"
        }
      ],
      "stateMutability": "view",
      "type": "function"
    },
    {
      "inputs": [],
      "name": "link",
      "outputs": [],
      "stateMutability": "nonpayable",
      "type": "function"
    },
    {
      "inputs": [
        {
          "components": [
            {
              "internalType": "uint256",
              "name": "orderId",
              "type": "uint256"
            },
            {
              "internalType": "address",
              "name": "user",
              "type": "address"
            },
            {
              "internalType": "address",
              "name": "asset",
              "type": "address"
            },
            {
              "internalType": "string",
              "name": "market",
              "type": "string"
            },
            {
              "internalType": "uint256",
              "name": "margin",
              "type": "uint256"
            },
            {
              "internalType": "uint256",
              "name": "size",
              "type": "uint256"
            },
            {
              "internalType": "uint256",
              "name": "price",
              "type": "uint256"
            },
            {
              "internalType": "uint256",
              "name": "fee",
              "type": "uint256"
            },
            {
              "internalType": "bool",
              "name": "isLong",
              "type": "bool"
            },
            {
              "internalType": "uint8",
              "name": "orderType",
              "type": "uint8"
            },
            {
              "internalType": "bool",
              "name": "isReduceOnly",
              "type": "bool"
            },
            {
              "internalType": "uint256",
              "name": "timestamp",
              "type": "uint256"
            },
            {
              "internalType": "uint256",
              "name": "expiry",
              "type": "uint256"
            },
            {
              "internalType": "uint256",
              "name": "cancelOrderId",
              "type": "uint256"
            }
          ],
          "internalType": "struct OrderStore.Order",
          "name": "params",
          "type": "tuple"
        },
        {
          "internalType": "uint256",
          "name": "tpPrice",
          "type": "uint256"
        },
        {
          "internalType": "uint256",
          "name": "slPrice",
          "type": "uint256"
        }
      ],
      "name": "submitOrder",
      "outputs": [],
      "stateMutability": "payable",
      "type": "function"
    },
    {
      "inputs": [
        {
          "internalType": "uint256",
          "name": "orderId",
          "type": "uint256"
        }
      ],
      "name": "cancelOrder",
      "outputs": [],
      "stateMutability": "nonpayable",
      "type": "function"
    },
    {
      "inputs": [
        {
          "internalType": "uint256",
          "name": "orderId",
          "type": "uint256"
        },
        {
          "internalType": "string",
          "name": "reason",
          "type": "string"
        }
      ],
      "name": "cancelOrder",
      "outputs": [],
      "stateMutability": "nonpayable",
      "type": "function"
    },
    {
      "inputs": [
        {
          "internalType": "uint256[]",
          "name": "orderIds",
          "type": "uint256[]"
        },
        {
          "internalType": "string[]",
          "name": "reasons",
          "type": "string[]"
        }
      ],
      "name": "cancelOrders",
      "outputs": [],
      "stateMutability": "nonpayable",
      "type": "function"
    },
    {
      "inputs": [
        {
          "internalType": "uint256[]",
          "name": "orderIds",
          "type": "uint256[]"
        }
      ],
      "name": "cancelOrders",
      "outputs": [],
      "stateMutability": "nonpayable",
      "type": "function"
    }
  ],
  "bytecode": "0x60806040523480156200001157600080fd5b506040516200181138038062001811833981810160405281019062000037919062000095565b806000806101000a81548173ffffffffffffffffffffffffffffffffffffffff021916908373ffffffffffffffffffffffffffffffffffffffff160217905550506200010f565b6000815190506200008f81620000f5565b92915050565b600060208284031215620000a857600080fd5b6000620000b8848285016200007e565b91505092915050565b6000620000ce82620000d5565b9050919050565b600073ffffffffffffffffffffffffffffffffffffffff82169050919050565b6200010081620000c1565b81146200010c57600080fd5b50565b6116f2806200011f6000396000f3fe6080604052600436106100865760003560e01c80639d8e2177116100595780639d8e2177146101215780639fa9ff581461014c578063ad7e218114610175578063b55fb5741461019e578063b60d8029146101c757610086565b80631c4695f41461008b5780632ac38dbd146100a2578063514fcac7146100cd5780637c4283bc146100f6575b600080fd5b34801561009757600080fd5b506100a06101e3565b005b3480156100ae57600080fd5b506100b76101e5565b6040516100c49190611255565b60405180910390f35b3480156100d957600080fd5b506100f460048036038101906100ef9190610f4d565b610209565b005b34801561010257600080fd5b5061010b6103b8565b6040516101189190611375565b60405180910390f35b34801561012d57600080fd5b506101366103be565b6040516101439190611375565b60405180910390f35b34801561015857600080fd5b50610173600480360381019061016e9190610e30565b6103ca565b005b34801561018157600080fd5b5061019c60048036038101906101979190610f9f565b6104c8565b005b3480156101aa57600080fd5b506101c560048036038101906101c09190610deb565b61051b565b005b6101e160048036038101906101dc9190610ee6565b6106fb565b005b565b60008054906101000a900473ffffffffffffffffffffffffffffffffffffffff1681565b60008060009054906101000a900473ffffffffffffffffffffffffffffffffffffffff1673ffffffffffffffffffffffffffffffffffffffff16639507d39a836040518263ffffffff1660e01b81526004016102659190611375565b60006040518083038186803b15801561027d57600080fd5b505afa158015610291573d6000803e3d6000fd5b505050506040513d6000823e3d601f19601f820116820180604052508101906102ba9190610ea5565b905060008160a0015111610303576040517f08c379a00000000000000000000000000000000000000000000000000000000081526004016102fa90611333565b60405180910390fd5b3373ffffffffffffffffffffffffffffffffffffffff16816020015173ffffffffffffffffffffffffffffffffffffffff1614610375576040517f08c379a000000000000000000000000000000000000000000000000000000000815260040161036c90611313565b60405180910390fd5b6103b4826040518060400160405280600781526020017f62792d7573657200000000000000000000000000000000000000000000000000815250610712565b5050565b61271081565b670de0b6b3a764000081565b60005b848490508110156104c1576104ae858583818110610414577f4e487b7100000000000000000000000000000000000000000000000000000000600052603260045260246000fd5b90506020020135848484818110610454577f4e487b7100000000000000000000000000000000000000000000000000000000600052603260045260246000fd5b90506020028101906104669190611390565b8080601f016020809104026020016040519081016040528093929190818152602001838380828437600081840152601f19601f82011690508083019250505050505050610712565b80806104b990611556565b9150506103cd565b5050505050565b6105168383838080601f016020809104026020016040519081016040528093929190818152602001838380828437600081840152601f19601f82011690508083019250505050505050610712565b505050565b60005b828290508110156106f65760008060009054906101000a900473ffffffffffffffffffffffffffffffffffffffff1673ffffffffffffffffffffffffffffffffffffffff16639507d39a8585858181106105a1577f4e487b7100000000000000000000000000000000000000000000000000000000600052603260045260246000fd5b905060200201356040518263ffffffff1660e01b81526004016105c49190611375565b60006040518083038186803b1580156105dc57600080fd5b505afa1580156105f0573d6000803e3d6000fd5b505050506040513d6000823e3d601f19601f820116820180604052508101906106199190610ea5565b905060008160a0015111801561065e57503373ffffffffffffffffffffffffffffffffffffffff16816020015173ffffffffffffffffffffffffffffffffffffffff16145b156106e2576106e184848481811061069f577f4e487b7100000000000000000000000000000000000000000000000000000000600052603260045260246000fd5b905060200201356040518060400160405280600781526020017f62792d7573657200000000000000000000000000000000000000000000000000815250610712565b5b5080806106ee90611556565b91505061051e565b505050565b600061070684610716565b90508091505050505050565b5050565b60008033836020019073ffffffffffffffffffffffffffffffffffffffff16908173ffffffffffffffffffffffffffffffffffffffff1681525050428361016001818152505060008054906101000a900473ffffffffffffffffffffffffffffffffffffffff1673ffffffffffffffffffffffffffffffffffffffff166367637b91846040518263ffffffff1660e01b81526004016107b59190611353565b602060405180830381600087803b1580156107cf57600080fd5b505af11580156107e3573d6000803e3d6000fd5b505050506040513d601f19601f820116820180604052508101906108079190610f76565b836000018181525050826040015173ffffffffffffffffffffffffffffffffffffffff16836020015173ffffffffffffffffffffffffffffffffffffffff1684600001517ff16677e1a8bdc17380bab620246c40b56537138550b3e3e782cb852f463f2464866060015187608001518860a001518960c001518a60e001518b61010001518c61012001518d61014001518e61018001518f6101a001516040516108b99a99989796959493929190611270565b60405180910390a48260000151600191509150915091565b60006108e46108df8461140c565b6113e7565b9050828152602081018484840111156108fc57600080fd5b6109078482856114e3565b509392505050565b600061092261091d8461140c565b6113e7565b90508281526020810184848401111561093a57600080fd5b6109458482856114f2565b509392505050565b60008135905061095c81611660565b92915050565b60008151905061097181611660565b92915050565b60008083601f84011261098957600080fd5b8235905067ffffffffffffffff8111156109a257600080fd5b6020830191508360208202830111156109ba57600080fd5b9250929050565b60008083601f8401126109d357600080fd5b8235905067ffffffffffffffff8111156109ec57600080fd5b602083019150836020820283011115610a0457600080fd5b9250929050565b600081359050610a1a81611677565b92915050565b600081519050610a2f81611677565b92915050565b60008083601f840112610a4757600080fd5b8235905067ffffffffffffffff811115610a6057600080fd5b602083019150836001820283011115610a7857600080fd5b9250929050565b600082601f830112610a9057600080fd5b8135610aa08482602086016108d1565b91505092915050565b600082601f830112610aba57600080fd5b8151610aca84826020860161090f565b91505092915050565b60006101c08284031215610ae657600080fd5b610af16101c06113e7565b90506000610b0184828501610d97565b6000830152506020610b158482850161094d565b6020830152506040610b298482850161094d565b604083015250606082013567ffffffffffffffff811115610b4957600080fd5b610b5584828501610a7f565b6060830152506080610b6984828501610d97565b60808301525060a0610b7d84828501610d97565b60a08301525060c0610b9184828501610d97565b60c08301525060e0610ba584828501610d97565b60e083015250610100610bba84828501610a0b565b61010083015250610120610bd084828501610dc1565b61012083015250610140610be684828501610a0b565b61014083015250610160610bfc84828501610d97565b61016083015250610180610c1284828501610d97565b610180830152506101a0610c2884828501610d97565b6101a08301525092915050565b60006101c08284031215610c4857600080fd5b610c536101c06113e7565b90506000610c6384828501610dac565b6000830152506020610c7784828501610962565b6020830152506040610c8b84828501610962565b604083015250606082015167ffffffffffffffff811115610cab57600080fd5b610cb784828501610aa9565b6060830152506080610ccb84828501610dac565b60808301525060a0610cdf84828501610dac565b60a08301525060c0610cf384828501610dac565b60c08301525060e0610d0784828501610dac565b60e083015250610100610d1c84828501610a20565b61010083015250610120610d3284828501610dd6565b61012083015250610140610d4884828501610a20565b61014083015250610160610d5e84828501610dac565b61016083015250610180610d7484828501610dac565b610180830152506101a0610d8a84828501610dac565b6101a08301525092915050565b600081359050610da68161168e565b92915050565b600081519050610dbb8161168e565b92915050565b600081359050610dd0816116a5565b92915050565b600081519050610de5816116a5565b92915050565b60008060208385031215610dfe57600080fd5b600083013567ffffffffffffffff811115610e1857600080fd5b610e24858286016109c1565b92509250509250929050565b60008060008060408587031215610e4657600080fd5b600085013567ffffffffffffffff811115610e6057600080fd5b610e6c878288016109c1565b9450945050602085013567ffffffffffffffff811115610e8b57600080fd5b610e9787828801610977565b925092505092959194509250565b600060208284031215610eb757600080fd5b600082015167ffffffffffffffff811115610ed157600080fd5b610edd84828501610c35565b91505092915050565b600080600060608486031215610efb57600080fd5b600084013567ffffffffffffffff811115610f1557600080fd5b610f2186828701610ad3565b9350506020610f3286828701610d97565b9250506040610f4386828701610d97565b9150509250925092565b600060208284031215610f5f57600080fd5b6000610f6d84828501610d97565b91505092915050565b600060208284031215610f8857600080fd5b6000610f9684828501610dac565b91505092915050565b600080600060408486031215610fb457600080fd5b6000610fc286828701610d97565b935050602084013567ffffffffffffffff811115610fdf57600080fd5b610feb86828701610a35565b92509250509250925092565b6110008161146a565b82525050565b61100f8161147c565b82525050565b61101e8161147c565b82525050565b61102d816114bf565b82525050565b600061103e8261143d565b6110488185611448565b93506110588185602086016114f2565b611061816115fd565b840191505092915050565b60006110778261143d565b6110818185611459565b93506110918185602086016114f2565b61109a816115fd565b840191505092915050565b60006110b2600583611459565b91506110bd8261160e565b602082019050919050565b60006110d5600683611459565b91506110e082611637565b602082019050919050565b60006101c0830160008301516111046000860182611219565b5060208301516111176020860182610ff7565b50604083015161112a6040860182610ff7565b50606083015184820360608601526111428282611033565b91505060808301516111576080860182611219565b5060a083015161116a60a0860182611219565b5060c083015161117d60c0860182611219565b5060e083015161119060e0860182611219565b506101008301516111a5610100860182611006565b506101208301516111ba610120860182611237565b506101408301516111cf610140860182611006565b506101608301516111e4610160860182611219565b506101808301516111f9610180860182611219565b506101a083015161120e6101a0860182611219565b508091505092915050565b611222816114a8565b82525050565b611231816114a8565b82525050565b611240816114b2565b82525050565b61124f816114b2565b82525050565b600060208201905061126a6000830184611024565b92915050565b600061014082019050818103600083015261128b818d61106c565b905061129a602083018c611228565b6112a7604083018b611228565b6112b4606083018a611228565b6112c16080830189611228565b6112ce60a0830188611015565b6112db60c0830187611246565b6112e860e0830186611015565b6112f6610100830185611228565b611304610120830184611228565b9b9a5050505050505050505050565b6000602082019050818103600083015261132c816110a5565b9050919050565b6000602082019050818103600083015261134c816110c8565b9050919050565b6000602082019050818103600083015261136d81846110eb565b905092915050565b600060208201905061138a6000830184611228565b92915050565b600080833560016020038436030381126113a957600080fd5b80840192508235915067ffffffffffffffff8211156113c757600080fd5b6020830192506001820236038313156113df57600080fd5b509250929050565b60006113f1611402565b90506113fd8282611525565b919050565b6000604051905090565b600067ffffffffffffffff821115611427576114266115ce565b5b611430826115fd565b9050602081019050919050565b600081519050919050565b600082825260208201905092915050565b600082825260208201905092915050565b600061147582611488565b9050919050565b60008115159050919050565b600073ffffffffffffffffffffffffffffffffffffffff82169050919050565b6000819050919050565b600060ff82169050919050565b60006114ca826114d1565b9050919050565b60006114dc82611488565b9050919050565b82818337600083830152505050565b60005b838110156115105780820151818401526020810190506114f5565b8381111561151f576000848401525b50505050565b61152e826115fd565b810181811067ffffffffffffffff8211171561154d5761154c6115ce565b5b80604052505050565b6000611561826114a8565b91507fffffffffffffffffffffffffffffffffffffffffffffffffffffffffffffffff8214156115945761159361159f565b5b600182019050919050565b7f4e487b7100000000000000000000000000000000000000000000000000000000600052601160045260246000fd5b7f4e487b7100000000000000000000000000000000000000000000000000000000600052604160045260246000fd5b6000601f19601f8301169050919050565b7f2175736572000000000000000000000000000000000000000000000000000000600082015250565b7f216f726465720000000000000000000000000000000000000000000000000000600082015250565b6116698161146a565b811461167457600080fd5b50565b6116808161147c565b811461168b57600080fd5b50565b611697816114a8565b81146116a257600080fd5b50565b6116ae816114b2565b81146116b957600080fd5b5056fea26469706673582212203a25a4bf400756b67433793d7f81f65362f390bc08de4aad461d4da96d4f46da64736f6c63430008010033",
  "immutableReferences": {},
  "source": "// SPDX-License-Identifier: BUSL-1.1\r\npragma solidity ^0.8.0;\r\n\r\nimport '@openzeppelin/contracts/utils/Address.sol';\r\nimport \"@openzeppelin/contracts/security/ReentrancyGuard.sol\";\r\nimport './OrderStore.sol';\r\n\r\n/**\r\n * @title  Orders\r\n * @notice Implementation of order related logic, i.e. submitting orders / cancelling them\r\n */\r\ncontract Orders {\r\n\r\n    // Libraries\r\n    using Address for address payable;\r\n\r\n    // Constants\r\n    uint256 public constant UNIT = 10 ** 18;\r\n    uint256 public constant BPS_DIVIDER = 10000;\r\n\r\n    // Events\r\n\r\n    // Order of function / event params: id, user, asset, market\r\n    event OrderCreated(\r\n        uint256 indexed orderId,\r\n        address indexed user,\r\n        address indexed asset,\r\n        string market,\r\n        uint256 margin,\r\n        uint256 size,\r\n        uint256 price,\r\n        uint256 fee,\r\n        bool isLong,\r\n        uint8 orderType,\r\n        bool isReduceOnly,\r\n        uint256 expiry,\r\n        uint256 cancelOrderId\r\n    );\r\n\r\n    event OrderCancelled(uint256 indexed orderId, address indexed user, string reason);\r\n\r\n    // Contracts\r\n//    DataStore public DS;\r\n\r\n//   AssetStore public assetStore;\r\n//    FundStore public fundStore;\r\n//    MarketStore public marketStore;\r\n      OrderStore public orderStore;\r\n//    RiskStore public riskStore;\r\n\r\n//    Chainlink public chainlink;\r\n\r\n    /// @dev Initializes DataStore address\r\n    constructor(address _orderStore) {\r\n        orderStore = OrderStore(address(_orderStore));\r\n\r\n    }\r\n\r\n    /// @dev Reverts if new orders are paused\r\n    //modifier ifNotPaused() {\r\n    //    require(!orderStore.areNewOrdersPaused(), '!paused');\r\n    //    _;\r\n    //}\r\n\r\n    /// @notice Initializes protocol contracts\r\n    /// @dev Only callable by governance\r\n    function link() external {\r\n     /*   assetStore = AssetStore(DS.getAddress('AssetStore'));\r\n        fundStore = FundStore(payable(DS.getAddress('FundStore')));\r\n        marketStore = MarketStore(DS.getAddress('MarketStore'));\r\n        orderStore = OrderStore(DS.getAddress('OrderStore'));\r\n        riskStore = RiskStore(DS.getAddress('RiskStore'));\r\n        chainlink = Chainlink(DS.getAddress('Chainlink'));\r\n    */\r\n    }\r\n\r\n    /// @notice Submits a new order\r\n    /// @param params Order to submit\r\n    /// @param tpPrice 18 decimal take profit price\r\n    /// @param slPrice 18 decimal stop loss price\r\n    function submitOrder(\r\n        OrderStore.Order memory params,\r\n        uint256 tpPrice,\r\n        uint256 slPrice\r\n    ) external payable  {\r\n        // order cant be reduce-only if take profit or stop loss order is submitted alongside main order\r\n\r\n        // Submit order\r\n        uint256 valueConsumed;\r\n        (, valueConsumed) = _submitOrder(params);\r\n    /*\r\n        // tp/sl price checks\r\n        if (tpPrice > 0 || slPrice > 0) {\r\n            if (params.price > 0) {\r\n                if (tpPrice > 0) {\r\n                    require(\r\n                        (params.isLong && tpPrice > params.price) || (!params.isLong && tpPrice < params.price),\r\n                        '!tp-invalid'\r\n                    );\r\n                }\r\n                if (slPrice > 0) {\r\n                    require(\r\n                        (params.isLong && slPrice < params.price) || (!params.isLong && slPrice > params.price),\r\n                        '!sl-invalid'\r\n                    );\r\n                }\r\n            }\r\n\r\n            if (tpPrice > 0 && slPrice > 0) {\r\n                require((params.isLong && tpPrice > slPrice) || (!params.isLong && tpPrice < slPrice), '!tpsl-invalid');\r\n            }\r\n\r\n            // tp and sl order ids\r\n            uint256 tpOrderId;\r\n            uint256 slOrderId;\r\n\r\n            // long -> short, short -> long for take profit / stop loss order\r\n            params.isLong = !params.isLong;\r\n\r\n            // reset order expiry for TP/SL orders\r\n            if (params.expiry > 0) params.expiry = 0;\r\n\r\n            // submit take profit order\r\n            if (tpPrice > 0) {\r\n                params.price = tpPrice;\r\n                params.orderType = 1;\r\n                params.isReduceOnly = true;\r\n\r\n                // Order is reduce-only so valueConsumed is always zero\r\n                (tpOrderId, ) = _submitOrder(params);\r\n            }\r\n\r\n            // submit stop loss order\r\n            if (slPrice > 0) {\r\n                params.price = slPrice;\r\n                params.orderType = 2;\r\n                params.isReduceOnly = true;\r\n\r\n                // Order is reduce-only so valueConsumed is always zero\r\n                (slOrderId, ) = _submitOrder(params);\r\n            }\r\n\r\n            // Update orders to cancel each other\r\n            if (tpOrderId > 0 && slOrderId > 0) {\r\n                orderStore.updateCancelOrderId(tpOrderId, slOrderId);\r\n                orderStore.updateCancelOrderId(slOrderId, tpOrderId);\r\n            }\r\n        }\r\n\r\n        // Refund msg.value excess, if any\r\n        if (params.asset == address(0)) {\r\n            uint256 diff = msg.value - valueConsumed;\r\n            if (diff > 0) {\r\n                payable(msg.sender).sendValue(diff);\r\n            }\r\n        }\r\n    */\r\n    }\r\n\r\n    /// @notice Submits a new order\r\n    /// @dev Internal function invoked by {submitOrder}\r\n    function _submitOrder(OrderStore.Order memory params) internal returns (uint256, uint256) {\r\n        // Set user and timestamp\r\n        params.user = msg.sender;\r\n        params.timestamp = block.timestamp;\r\n\r\n/*\r\n        // Validations\r\n        require(params.orderType == 0 || params.orderType == 1 || params.orderType == 2, '!order-type');\r\n\r\n        // execution price of trigger order cant be zero\r\n        if (params.orderType != 0) {\r\n            require(params.price > 0, '!price');\r\n        }\r\n\r\n        // check if base asset is supported and order size is above min size\r\n        AssetStore.Asset memory asset = assetStore.get(params.asset);\r\n        require(asset.minSize > 0, '!asset-exists');\r\n        require(params.size >= asset.minSize, '!min-size');\r\n\r\n        // check if market exists\r\n        MarketStore.Market memory market = marketStore.get(params.market);\r\n        require(market.maxLeverage > 0, '!market-exists');\r\n\r\n        // Order expiry validations\r\n        if (params.expiry > 0) {\r\n            // expiry value cant be in the past\r\n            require(params.expiry >= block.timestamp, '!expiry-value');\r\n\r\n            // params.expiry cant be after default expiry of market and trigger orders\r\n            uint256 ttl = params.expiry - block.timestamp;\r\n            if (params.orderType == 0) require(ttl <= orderStore.maxMarketOrderTTL(), '!max-expiry');\r\n            else require(ttl <= orderStore.maxTriggerOrderTTL(), '!max-expiry');\r\n        }\r\n\r\n        // cant cancel an order of another user\r\n        if (params.cancelOrderId > 0) {\r\n            require(orderStore.isUserOrder(params.cancelOrderId, params.user), '!user-oco');\r\n        }\r\n*/\r\n\r\n      //  params.fee = (params.size * market.fee) / BPS_DIVIDER;\r\n      //  uint256 valueConsumed;\r\n/*\r\n        if (params.isReduceOnly) {\r\n            params.margin = 0;\r\n            // Existing position is checked on execution so TP/SL can be submitted as reduce-only alongside a non-executed order\r\n            // In this case, valueConsumed is zero as margin is zero and fee is taken from the order's margin when position is executed\r\n        } else {\r\n            require(!market.isReduceOnly, '!market-reduce-only');\r\n            require(params.margin > 0, '!margin');\r\n\r\n            uint256 leverage = (UNIT * params.size) / params.margin;\r\n            require(leverage >= UNIT, '!min-leverage');\r\n            require(leverage <= market.maxLeverage * UNIT, '!max-leverage');\r\n\r\n            // Check against max OI if it's not reduce-only. this is not completely fail safe as user can place many\r\n            // consecutive market orders of smaller size and get past the max OI limit here, because OI is not updated until\r\n            // keeper picks up the order. That is why maxOI is checked on processing as well, which is fail safe.\r\n            // This check is more of preemptive for user to not submit an order\r\n            riskStore.checkMaxOI(params.asset, params.market, params.size);\r\n\r\n            // Transfer fee and margin to store\r\n            valueConsumed = params.margin + params.fee;\r\n\r\n            if (params.asset == address(0)) {\r\n                fundStore.transferIn{value: valueConsumed}(params.asset, params.user, valueConsumed);\r\n            } else {\r\n                fundStore.transferIn(params.asset, params.user, valueConsumed);\r\n            }\r\n        }\r\n*/\r\n        // Add order to store and emit event\r\n        params.orderId = orderStore.add(params);\r\n\r\n        emit OrderCreated(\r\n            params.orderId,\r\n            params.user,\r\n            params.asset,\r\n            params.market,\r\n            params.margin,\r\n            params.size,\r\n            params.price,\r\n            params.fee,\r\n            params.isLong,\r\n            params.orderType,\r\n            params.isReduceOnly,\r\n            params.expiry,\r\n            params.cancelOrderId\r\n        );\r\n\r\n        return (params.orderId, 1);\r\n    }\r\n\r\n    /// @notice Cancels order\r\n    /// @param orderId Order to cancel\r\n    function cancelOrder(uint256 orderId) external {\r\n        OrderStore.Order memory order = orderStore.get(orderId);\r\n        require(order.size > 0, '!order');\r\n        require(order.user == msg.sender, '!user');\r\n        _cancelOrder(orderId, 'by-user');\r\n    }\r\n\r\n    /// @notice Cancel several orders\r\n    /// @param orderIds Array of orderIds to cancel\r\n    function cancelOrders(uint256[] calldata orderIds) external {\r\n        for (uint256 i = 0; i < orderIds.length; i++) {\r\n            OrderStore.Order memory order = orderStore.get(orderIds[i]);\r\n            if (order.size > 0 && order.user == msg.sender) {\r\n                _cancelOrder(orderIds[i], 'by-user');\r\n            }\r\n        }\r\n    }\r\n\r\n    /// @notice Cancels order\r\n    /// @dev Only callable by other protocol contracts\r\n    /// @param orderId Order to cancel\r\n    /// @param reason Cancellation reason\r\n    function cancelOrder(uint256 orderId, string calldata reason) external {\r\n        _cancelOrder(orderId, reason);\r\n    }\r\n\r\n    /// @notice Cancel several orders\r\n    /// @dev Only callable by other protocol contracts\r\n    /// @param orderIds Order ids to cancel\r\n    /// @param reasons Cancellation reasons\r\n    function cancelOrders(uint256[] calldata orderIds, string[] calldata reasons) external {\r\n        for (uint256 i = 0; i < orderIds.length; i++) {\r\n            _cancelOrder(orderIds[i], reasons[i]);\r\n        }\r\n    }\r\n\r\n    /// @notice Cancels order\r\n    /// @dev Internal function without access restriction\r\n    /// @param orderId Order to cancel\r\n    /// @param reason Cancellation reason\r\n    function _cancelOrder(uint256 orderId, string memory reason) internal {\r\n        /*OrderStore.Order memory order = orderStore.get(orderId);\r\n        if (order.size == 0) return;\r\n\r\n        orderStore.remove(orderId);\r\n\r\n        if (!order.isReduceOnly) {\r\n        //   fundStore.transferOut(order.asset, order.user, order.margin + order.fee);\r\n        }\r\n\r\n        emit OrderCancelled(orderId, order.user, reason);\r\n        */\r\n    }\r\n}",
  "sourcePath": "C:\\Users\\envis\\Desktop\\Projectes\\Regular Solids\\Y\\Landing\\contracts\\Order.sol",
  "compiler": {
    "name": "solc",
    "version": "0.8.1+commit.df193b15.Emscripten.clang"
  },
  "schemaVersion": "3.4.15",
  "updatedAt": "2023-09-30T22:37:07.739Z",
  "devdoc": {
    "kind": "dev",
    "methods": {
      "cancelOrder(uint256)": {
        "params": {
          "orderId": "Order to cancel"
        }
      },
      "cancelOrder(uint256,string)": {
        "details": "Only callable by other protocol contracts",
        "params": {
          "orderId": "Order to cancel",
          "reason": "Cancellation reason"
        }
      },
      "cancelOrders(uint256[])": {
        "params": {
          "orderIds": "Array of orderIds to cancel"
        }
      },
      "cancelOrders(uint256[],string[])": {
        "details": "Only callable by other protocol contracts",
        "params": {
          "orderIds": "Order ids to cancel",
          "reasons": "Cancellation reasons"
        }
      },
      "constructor": {
        "details": "Initializes DataStore address"
      },
      "link()": {
        "details": "Only callable by governance"
      },
      "submitOrder((uint256,address,address,string,uint256,uint256,uint256,uint256,bool,uint8,bool,uint256,uint256,uint256),uint256,uint256)": {
        "params": {
          "params": "Order to submit",
          "slPrice": "18 decimal stop loss price",
          "tpPrice": "18 decimal take profit price"
        }
      }
    },
    "title": "Orders",
    "version": 1
  },
  "userdoc": {
    "kind": "user",
    "methods": {
      "cancelOrder(uint256)": {
        "notice": "Cancels order"
      },
      "cancelOrder(uint256,string)": {
        "notice": "Cancels order"
      },
      "cancelOrders(uint256[])": {
        "notice": "Cancel several orders"
      },
      "cancelOrders(uint256[],string[])": {
        "notice": "Cancel several orders"
      },
      "link()": {
        "notice": "Initializes protocol contracts"
      },
      "submitOrder((uint256,address,address,string,uint256,uint256,uint256,uint256,bool,uint8,bool,uint256,uint256,uint256),uint256,uint256)": {
        "notice": "Submits a new order"
      }
    },
    "notice": "Implementation of order related logic, i.e. submitting orders / cancelling them",
    "version": 1
  }
}