{
  "contractName": "TimelessNFT",
  "abi": [
    {
      "inputs": [
        {
          "internalType": "string",
          "name": "_name",
          "type": "string"
        },
        {
          "internalType": "string",
          "name": "_symbol",
          "type": "string"
        },
        {
          "internalType": "uint256",
          "name": "_royalityFee",
          "type": "uint256"
        },
        {
          "internalType": "address",
          "name": "_artist",
          "type": "address"
        }
      ],
      "stateMutability": "nonpayable",
      "type": "constructor"
    },
    {
      "anonymous": false,
      "inputs": [
        {
          "indexed": true,
          "internalType": "address",
          "name": "owner",
          "type": "address"
        },
        {
          "indexed": true,
          "internalType": "address",
          "name": "approved",
          "type": "address"
        },
        {
          "indexed": true,
          "internalType": "uint256",
          "name": "tokenId",
          "type": "uint256"
        }
      ],
      "name": "Approval",
      "type": "event"
    },
    {
      "anonymous": false,
      "inputs": [
        {
          "indexed": true,
          "internalType": "address",
          "name": "owner",
          "type": "address"
        },
        {
          "indexed": true,
          "internalType": "address",
          "name": "operator",
          "type": "address"
        },
        {
          "indexed": false,
          "internalType": "bool",
          "name": "approved",
          "type": "bool"
        }
      ],
      "name": "ApprovalForAll",
      "type": "event"
    },
    {
      "anonymous": false,
      "inputs": [
        {
          "indexed": true,
          "internalType": "address",
          "name": "previousOwner",
          "type": "address"
        },
        {
          "indexed": true,
          "internalType": "address",
          "name": "newOwner",
          "type": "address"
        }
      ],
      "name": "OwnershipTransferred",
      "type": "event"
    },
    {
      "anonymous": false,
      "inputs": [
        {
          "indexed": false,
          "internalType": "uint256",
          "name": "id",
          "type": "uint256"
        },
        {
          "indexed": true,
          "internalType": "address",
          "name": "owner",
          "type": "address"
        },
        {
          "indexed": false,
          "internalType": "uint256",
          "name": "cost",
          "type": "uint256"
        },
        {
          "indexed": false,
          "internalType": "string",
          "name": "metadataURI",
          "type": "string"
        },
        {
          "indexed": false,
          "internalType": "uint256",
          "name": "timestamp",
          "type": "uint256"
        }
      ],
      "name": "Sale",
      "type": "event"
    },
    {
      "anonymous": false,
      "inputs": [
        {
          "indexed": true,
          "internalType": "address",
          "name": "from",
          "type": "address"
        },
        {
          "indexed": true,
          "internalType": "address",
          "name": "to",
          "type": "address"
        },
        {
          "indexed": true,
          "internalType": "uint256",
          "name": "tokenId",
          "type": "uint256"
        }
      ],
      "name": "Transfer",
      "type": "event"
    },
    {
      "inputs": [
        {
          "internalType": "address",
          "name": "to",
          "type": "address"
        },
        {
          "internalType": "uint256",
          "name": "tokenId",
          "type": "uint256"
        }
      ],
      "name": "approve",
      "outputs": [],
      "stateMutability": "nonpayable",
      "type": "function"
    },
    {
      "inputs": [],
      "name": "artist",
      "outputs": [
        {
          "internalType": "address",
          "name": "",
          "type": "address"
        }
      ],
      "stateMutability": "view",
      "type": "function",
      "constant": true
    },
    {
      "inputs": [
        {
          "internalType": "address",
          "name": "owner",
          "type": "address"
        }
      ],
      "name": "balanceOf",
      "outputs": [
        {
          "internalType": "uint256",
          "name": "",
          "type": "uint256"
        }
      ],
      "stateMutability": "view",
      "type": "function",
      "constant": true
    },
    {
      "inputs": [],
      "name": "cost",
      "outputs": [
        {
          "internalType": "uint256",
          "name": "",
          "type": "uint256"
        }
      ],
      "stateMutability": "view",
      "type": "function",
      "constant": true
    },
    {
      "inputs": [
        {
          "internalType": "uint256",
          "name": "tokenId",
          "type": "uint256"
        }
      ],
      "name": "getApproved",
      "outputs": [
        {
          "internalType": "address",
          "name": "",
          "type": "address"
        }
      ],
      "stateMutability": "view",
      "type": "function",
      "constant": true
    },
    {
      "inputs": [
        {
          "internalType": "uint256",
          "name": "",
          "type": "uint256"
        }
      ],
      "name": "holderOf",
      "outputs": [
        {
          "internalType": "address",
          "name": "",
          "type": "address"
        }
      ],
      "stateMutability": "view",
      "type": "function",
      "constant": true
    },
    {
      "inputs": [
        {
          "internalType": "address",
          "name": "owner",
          "type": "address"
        },
        {
          "internalType": "address",
          "name": "operator",
          "type": "address"
        }
      ],
      "name": "isApprovedForAll",
      "outputs": [
        {
          "internalType": "bool",
          "name": "",
          "type": "bool"
        }
      ],
      "stateMutability": "view",
      "type": "function",
      "constant": true
    },
    {
      "inputs": [],
      "name": "mpOwner",
      "outputs": [
        {
          "internalType": "address",
          "name": "",
          "type": "address"
        }
      ],
      "stateMutability": "view",
      "type": "function",
      "constant": true
    },
    {
      "inputs": [],
      "name": "name",
      "outputs": [
        {
          "internalType": "string",
          "name": "",
          "type": "string"
        }
      ],
      "stateMutability": "view",
      "type": "function",
      "constant": true
    },
    {
      "inputs": [],
      "name": "owner",
      "outputs": [
        {
          "internalType": "address",
          "name": "",
          "type": "address"
        }
      ],
      "stateMutability": "view",
      "type": "function",
      "constant": true
    },
    {
      "inputs": [
        {
          "internalType": "uint256",
          "name": "tokenId",
          "type": "uint256"
        }
      ],
      "name": "ownerOf",
      "outputs": [
        {
          "internalType": "address",
          "name": "",
          "type": "address"
        }
      ],
      "stateMutability": "view",
      "type": "function",
      "constant": true
    },
    {
      "inputs": [],
      "name": "renounceOwnership",
      "outputs": [],
      "stateMutability": "nonpayable",
      "type": "function"
    },
    {
      "inputs": [],
      "name": "royalityFee",
      "outputs": [
        {
          "internalType": "uint256",
          "name": "",
          "type": "uint256"
        }
      ],
      "stateMutability": "view",
      "type": "function",
      "constant": true
    },
    {
      "inputs": [
        {
          "internalType": "address",
          "name": "from",
          "type": "address"
        },
        {
          "internalType": "address",
          "name": "to",
          "type": "address"
        },
        {
          "internalType": "uint256",
          "name": "tokenId",
          "type": "uint256"
        }
      ],
      "name": "safeTransferFrom",
      "outputs": [],
      "stateMutability": "payable",
      "type": "function",
      "payable": true
    },
    {
      "inputs": [
        {
          "internalType": "address",
          "name": "from",
          "type": "address"
        },
        {
          "internalType": "address",
          "name": "to",
          "type": "address"
        },
        {
          "internalType": "uint256",
          "name": "tokenId",
          "type": "uint256"
        },
        {
          "internalType": "bytes",
          "name": "_data",
          "type": "bytes"
        }
      ],
      "name": "safeTransferFrom",
      "outputs": [],
      "stateMutability": "payable",
      "type": "function",
      "payable": true
    },
    {
      "inputs": [
        {
          "internalType": "address",
          "name": "operator",
          "type": "address"
        },
        {
          "internalType": "bool",
          "name": "approved",
          "type": "bool"
        }
      ],
      "name": "setApprovalForAll",
      "outputs": [],
      "stateMutability": "nonpayable",
      "type": "function"
    },
    {
      "inputs": [],
      "name": "supply",
      "outputs": [
        {
          "internalType": "uint256",
          "name": "",
          "type": "uint256"
        }
      ],
      "stateMutability": "view",
      "type": "function",
      "constant": true
    },
    {
      "inputs": [
        {
          "internalType": "bytes4",
          "name": "interfaceId",
          "type": "bytes4"
        }
      ],
      "name": "supportsInterface",
      "outputs": [
        {
          "internalType": "bool",
          "name": "",
          "type": "bool"
        }
      ],
      "stateMutability": "view",
      "type": "function",
      "constant": true
    },
    {
      "inputs": [],
      "name": "symbol",
      "outputs": [
        {
          "internalType": "string",
          "name": "",
          "type": "string"
        }
      ],
      "stateMutability": "view",
      "type": "function",
      "constant": true
    },
    {
      "inputs": [
        {
          "internalType": "uint256",
          "name": "index",
          "type": "uint256"
        }
      ],
      "name": "tokenByIndex",
      "outputs": [
        {
          "internalType": "uint256",
          "name": "",
          "type": "uint256"
        }
      ],
      "stateMutability": "view",
      "type": "function",
      "constant": true
    },
    {
      "inputs": [
        {
          "internalType": "address",
          "name": "owner",
          "type": "address"
        },
        {
          "internalType": "uint256",
          "name": "index",
          "type": "uint256"
        }
      ],
      "name": "tokenOfOwnerByIndex",
      "outputs": [
        {
          "internalType": "uint256",
          "name": "",
          "type": "uint256"
        }
      ],
      "stateMutability": "view",
      "type": "function",
      "constant": true
    },
    {
      "inputs": [
        {
          "internalType": "uint256",
          "name": "tokenId",
          "type": "uint256"
        }
      ],
      "name": "tokenURI",
      "outputs": [
        {
          "internalType": "string",
          "name": "",
          "type": "string"
        }
      ],
      "stateMutability": "view",
      "type": "function",
      "constant": true
    },
    {
      "inputs": [],
      "name": "totalSupply",
      "outputs": [
        {
          "internalType": "uint256",
          "name": "",
          "type": "uint256"
        }
      ],
      "stateMutability": "view",
      "type": "function",
      "constant": true
    },
    {
      "inputs": [],
      "name": "totalTx",
      "outputs": [
        {
          "internalType": "uint256",
          "name": "",
          "type": "uint256"
        }
      ],
      "stateMutability": "view",
      "type": "function",
      "constant": true
    },
    {
      "inputs": [
        {
          "internalType": "address",
          "name": "from",
          "type": "address"
        },
        {
          "internalType": "address",
          "name": "to",
          "type": "address"
        },
        {
          "internalType": "uint256",
          "name": "tokenId",
          "type": "uint256"
        }
      ],
      "name": "transferFrom",
      "outputs": [],
      "stateMutability": "payable",
      "type": "function",
      "payable": true
    },
    {
      "inputs": [
        {
          "internalType": "address",
          "name": "newOwner",
          "type": "address"
        }
      ],
      "name": "transferOwnership",
      "outputs": [],
      "stateMutability": "nonpayable",
      "type": "function"
    },
    {
      "inputs": [
        {
          "internalType": "string",
          "name": "title",
          "type": "string"
        },
        {
          "internalType": "string",
          "name": "description",
          "type": "string"
        },
        {
          "internalType": "string",
          "name": "metadataURI",
          "type": "string"
        },
        {
          "internalType": "uint256",
          "name": "salesPrice",
          "type": "uint256"
        }
      ],
      "name": "payToMint",
      "outputs": [],
      "stateMutability": "payable",
      "type": "function",
      "payable": true
    },
    {
      "inputs": [
        {
          "internalType": "uint256",
          "name": "id",
          "type": "uint256"
        }
      ],
      "name": "payToBuy",
      "outputs": [],
      "stateMutability": "payable",
      "type": "function",
      "payable": true
    },
    {
      "inputs": [
        {
          "internalType": "uint256",
          "name": "id",
          "type": "uint256"
        },
        {
          "internalType": "uint256",
          "name": "newPrice",
          "type": "uint256"
        }
      ],
      "name": "changePrice",
      "outputs": [
        {
          "internalType": "bool",
          "name": "",
          "type": "bool"
        }
      ],
      "stateMutability": "nonpayable",
      "type": "function"
    },
    {
      "inputs": [],
      "name": "getAllNFTs",
      "outputs": [
        {
          "components": [
            {
              "internalType": "uint256",
              "name": "id",
              "type": "uint256"
            },
            {
              "internalType": "address",
              "name": "owner",
              "type": "address"
            },
            {
              "internalType": "uint256",
              "name": "cost",
              "type": "uint256"
            },
            {
              "internalType": "string",
              "name": "title",
              "type": "string"
            },
            {
              "internalType": "string",
              "name": "description",
              "type": "string"
            },
            {
              "internalType": "string",
              "name": "metadataURI",
              "type": "string"
            },
            {
              "internalType": "uint256",
              "name": "timestamp",
              "type": "uint256"
            }
          ],
          "internalType": "struct TimelessNFT.TransactionStruct[]",
          "name": "",
          "type": "tuple[]"
        }
      ],
      "stateMutability": "view",
      "type": "function",
      "constant": true
    },
    {
      "inputs": [
        {
          "internalType": "uint256",
          "name": "id",
          "type": "uint256"
        }
      ],
      "name": "getNFT",
      "outputs": [
        {
          "components": [
            {
              "internalType": "uint256",
              "name": "id",
              "type": "uint256"
            },
            {
              "internalType": "address",
              "name": "owner",
              "type": "address"
            },
            {
              "internalType": "uint256",
              "name": "cost",
              "type": "uint256"
            },
            {
              "internalType": "string",
              "name": "title",
              "type": "string"
            },
            {
              "internalType": "string",
              "name": "description",
              "type": "string"
            },
            {
              "internalType": "string",
              "name": "metadataURI",
              "type": "string"
            },
            {
              "internalType": "uint256",
              "name": "timestamp",
              "type": "uint256"
            }
          ],
          "internalType": "struct TimelessNFT.TransactionStruct",
          "name": "",
          "type": "tuple"
        }
      ],
      "stateMutability": "view",
      "type": "function",
      "constant": true
    },
    {
      "inputs": [],
      "name": "getAllTransactions",
      "outputs": [
        {
          "components": [
            {
              "internalType": "uint256",
              "name": "id",
              "type": "uint256"
            },
            {
              "internalType": "address",
              "name": "owner",
              "type": "address"
            },
            {
              "internalType": "uint256",
              "name": "cost",
              "type": "uint256"
            },
            {
              "internalType": "string",
              "name": "title",
              "type": "string"
            },
            {
              "internalType": "string",
              "name": "description",
              "type": "string"
            },
            {
              "internalType": "string",
              "name": "metadataURI",
              "type": "string"
            },
            {
              "internalType": "uint256",
              "name": "timestamp",
              "type": "uint256"
            }
          ],
          "internalType": "struct TimelessNFT.TransactionStruct[]",
          "name": "",
          "type": "tuple[]"
        }
      ],
      "stateMutability": "view",
      "type": "function",
      "constant": true
    }
  ],
  "bytecode": "0x608060405260006010556000601155662386f26fc100006012553480156200002657600080fd5b5060405162005af238038062005af283398181016040528101906200004c9190620004f0565b838381600090805190602001906200006692919062000203565b5080600190805190602001906200007f92919062000203565b505050620000a2620000966200013560201b60201c565b6200013d60201b60201c565b81600f8190555080600d60006101000a81548173ffffffffffffffffffffffffffffffffffffffff021916908373ffffffffffffffffffffffffffffffffffffffff16021790555033600e60006101000a81548173ffffffffffffffffffffffffffffffffffffffff021916908373ffffffffffffffffffffffffffffffffffffffff1602179055505050505062000605565b600033905090565b6000600a60009054906101000a900473ffffffffffffffffffffffffffffffffffffffff16905081600a60006101000a81548173ffffffffffffffffffffffffffffffffffffffff021916908373ffffffffffffffffffffffffffffffffffffffff1602179055508173ffffffffffffffffffffffffffffffffffffffff168173ffffffffffffffffffffffffffffffffffffffff167f8be0079c531659141344cd1fd0a4f28419497f9722a3daafe3b4186f6b6457e060405160405180910390a35050565b8280546200021190620005cf565b90600052602060002090601f01602090048101928262000235576000855562000281565b82601f106200025057805160ff191683800117855562000281565b8280016001018555821562000281579182015b828111156200028057825182559160200191906001019062000263565b5b50905062000290919062000294565b5090565b5b80821115620002af57600081600090555060010162000295565b5090565b6000604051905090565b600080fd5b600080fd5b600080fd5b600080fd5b6000601f19601f8301169050919050565b7f4e487b7100000000000000000000000000000000000000000000000000000000600052604160045260246000fd5b6200031c82620002d1565b810181811067ffffffffffffffff821117156200033e576200033d620002e2565b5b80604052505050565b600062000353620002b3565b905062000361828262000311565b919050565b600067ffffffffffffffff821115620003845762000383620002e2565b5b6200038f82620002d1565b9050602081019050919050565b60005b83811015620003bc5780820151818401526020810190506200039f565b83811115620003cc576000848401525b50505050565b6000620003e9620003e38462000366565b62000347565b905082815260208101848484011115620004085762000407620002cc565b5b620004158482856200039c565b509392505050565b600082601f830112620004355762000434620002c7565b5b815162000447848260208601620003d2565b91505092915050565b6000819050919050565b620004658162000450565b81146200047157600080fd5b50565b60008151905062000485816200045a565b92915050565b600073ffffffffffffffffffffffffffffffffffffffff82169050919050565b6000620004b8826200048b565b9050919050565b620004ca81620004ab565b8114620004d657600080fd5b50565b600081519050620004ea81620004bf565b92915050565b600080600080608085870312156200050d576200050c620002bd565b5b600085015167ffffffffffffffff8111156200052e576200052d620002c2565b5b6200053c878288016200041d565b945050602085015167ffffffffffffffff81111562000560576200055f620002c2565b5b6200056e878288016200041d565b9350506040620005818782880162000474565b92505060606200059487828801620004d9565b91505092959194509250565b7f4e487b7100000000000000000000000000000000000000000000000000000000600052602260045260246000fd5b60006002820490506001821680620005e857607f821691505b60208210811415620005ff57620005fe620005a0565b5b50919050565b6154dd80620006156000396000f3fe6080604052600436106101e35760003560e01c80636352211e11610102578063a22cb46511610095578063dbacc23711610064578063dbacc237146106db578063e0391b0914610718578063e985e9c514610743578063f2fde38b14610780576101e3565b8063a22cb4651461061c578063b3de019c14610645578063b88d4fde14610682578063c87b56dd1461069e576101e3565b8063799c0c1e116100d1578063799c0c1e1461058e5780638da5cb5b146105aa57806395d89b41146105d55780639ba4b01714610600576101e3565b80636352211e146104d257806370a082311461050f578063715018a61461054c5780637220cf3914610563576101e3565b806323b872dd1161017a57806342842e0e1161014957806342842e0e1461041157806343bc16121461042d5780634f6ccce714610458578063576f7ea714610495576101e3565b806323b872dd1461036257806327506f531461037e5780632f745c59146103a9578063326bb4ad146103e6576101e3565b8063095ea7b3116101b6578063095ea7b3146102b857806313faede6146102e157806318160ddd1461030c578063221da01f14610337576101e3565b806301ffc9a7146101e8578063047fc9aa1461022557806306fdde0314610250578063081812fc1461027b575b600080fd5b3480156101f457600080fd5b5061020f600480360381019061020a9190613950565b6107a9565b60405161021c9190613998565b60405180910390f35b34801561023157600080fd5b5061023a610823565b60405161024791906139cc565b60405180910390f35b34801561025c57600080fd5b50610265610829565b6040516102729190613a80565b60405180910390f35b34801561028757600080fd5b506102a2600480360381019061029d9190613ace565b6108bb565b6040516102af9190613b3c565b60405180910390f35b3480156102c457600080fd5b506102df60048036038101906102da9190613b83565b610940565b005b3480156102ed57600080fd5b506102f6610a58565b60405161030391906139cc565b60405180910390f35b34801561031857600080fd5b50610321610a5e565b60405161032e91906139cc565b60405180910390f35b34801561034357600080fd5b5061034c610a6b565b6040516103599190613b3c565b60405180910390f35b61037c60048036038101906103779190613bc3565b610a91565b005b34801561038a57600080fd5b50610393610af1565b6040516103a09190613dea565b60405180910390f35b3480156103b557600080fd5b506103d060048036038101906103cb9190613b83565b610d7a565b6040516103dd91906139cc565b60405180910390f35b3480156103f257600080fd5b506103fb610e1f565b60405161040891906139cc565b60405180910390f35b61042b60048036038101906104269190613bc3565b610e25565b005b34801561043957600080fd5b50610442610e45565b60405161044f9190613b3c565b60405180910390f35b34801561046457600080fd5b5061047f600480360381019061047a9190613ace565b610e6b565b60405161048c91906139cc565b60405180910390f35b3480156104a157600080fd5b506104bc60048036038101906104b79190613ace565b610edc565b6040516104c99190613eb6565b60405180910390f35b3480156104de57600080fd5b506104f960048036038101906104f49190613ace565b61114e565b6040516105069190613b3c565b60405180910390f35b34801561051b57600080fd5b5061053660048036038101906105319190613ed8565b611200565b60405161054391906139cc565b60405180910390f35b34801561055857600080fd5b506105616112b8565b005b34801561056f57600080fd5b506105786112cc565b60405161058591906139cc565b60405180910390f35b6105a860048036038101906105a3919061403a565b6112d2565b005b3480156105b657600080fd5b506105bf611719565b6040516105cc9190613b3c565b60405180910390f35b3480156105e157600080fd5b506105ea611743565b6040516105f79190613a80565b60405180910390f35b61061a60048036038101906106159190613ace565b6117d5565b005b34801561062857600080fd5b50610643600480360381019061063e9190614121565b611e2a565b005b34801561065157600080fd5b5061066c60048036038101906106679190614161565b611e40565b6040516106799190613998565b60405180910390f35b61069c60048036038101906106979190614242565b611f83565b005b3480156106aa57600080fd5b506106c560048036038101906106c09190613ace565b611fe5565b6040516106d29190613a80565b60405180910390f35b3480156106e757600080fd5b5061070260048036038101906106fd9190613ace565b61208c565b60405161070f9190613b3c565b60405180910390f35b34801561072457600080fd5b5061072d6120bf565b60405161073a9190613dea565b60405180910390f35b34801561074f57600080fd5b5061076a600480360381019061076591906142c5565b612348565b6040516107779190613998565b60405180910390f35b34801561078c57600080fd5b506107a760048036038101906107a29190613ed8565b6123dc565b005b60007f780e9d63000000000000000000000000000000000000000000000000000000007bffffffffffffffffffffffffffffffffffffffffffffffffffffffff1916827bffffffffffffffffffffffffffffffffffffffffffffffffffffffff1916148061081c575061081b82612460565b5b9050919050565b60105481565b60606000805461083890614334565b80601f016020809104026020016040519081016040528092919081815260200182805461086490614334565b80156108b15780601f10610886576101008083540402835291602001916108b1565b820191906000526020600020905b81548152906001019060200180831161089457829003601f168201915b5050505050905090565b60006108c682612542565b610905576040517f08c379a00000000000000000000000000000000000000000000000000000000081526004016108fc906143d8565b60405180910390fd5b6004600083815260200190815260200160002060009054906101000a900473ffffffffffffffffffffffffffffffffffffffff169050919050565b600061094b8261114e565b90508073ffffffffffffffffffffffffffffffffffffffff168373ffffffffffffffffffffffffffffffffffffffff1614156109bc576040517f08c379a00000000000000000000000000000000000000000000000000000000081526004016109b39061446a565b60405180910390fd5b8073ffffffffffffffffffffffffffffffffffffffff166109db6125ae565b73ffffffffffffffffffffffffffffffffffffffff161480610a0a5750610a0981610a046125ae565b612348565b5b610a49576040517f08c379a0000000000000000000000000000000000000000000000000000000008152600401610a40906144fc565b60405180910390fd5b610a5383836125b6565b505050565b60125481565b6000600880549050905090565b600e60009054906101000a900473ffffffffffffffffffffffffffffffffffffffff1681565b610aa2610a9c6125ae565b8261266f565b610ae1576040517f08c379a0000000000000000000000000000000000000000000000000000000008152600401610ad89061458e565b60405180910390fd5b610aec83838361274d565b505050565b60606013805480602002602001604051908101604052809291908181526020016000905b82821015610d7157838290600052602060002090600702016040518060e0016040529081600082015481526020016001820160009054906101000a900473ffffffffffffffffffffffffffffffffffffffff1673ffffffffffffffffffffffffffffffffffffffff1673ffffffffffffffffffffffffffffffffffffffff16815260200160028201548152602001600382018054610bb290614334565b80601f0160208091040260200160405190810160405280929190818152602001828054610bde90614334565b8015610c2b5780601f10610c0057610100808354040283529160200191610c2b565b820191906000526020600020905b815481529060010190602001808311610c0e57829003601f168201915b50505050508152602001600482018054610c4490614334565b80601f0160208091040260200160405190810160405280929190818152602001828054610c7090614334565b8015610cbd5780601f10610c9257610100808354040283529160200191610cbd565b820191906000526020600020905b815481529060010190602001808311610ca057829003601f168201915b50505050508152602001600582018054610cd690614334565b80601f0160208091040260200160405190810160405280929190818152602001828054610d0290614334565b8015610d4f5780601f10610d2457610100808354040283529160200191610d4f565b820191906000526020600020905b815481529060010190602001808311610d3257829003601f168201915b5050505050815260200160068201548152505081526020019060010190610b15565b50505050905090565b6000610d8583611200565b8210610dc6576040517f08c379a0000000000000000000000000000000000000000000000000000000008152600401610dbd90614620565b60405180910390fd5b600660008473ffffffffffffffffffffffffffffffffffffffff1673ffffffffffffffffffffffffffffffffffffffff168152602001908152602001600020600083815260200190815260200160002054905092915050565b600f5481565b610e4083838360405180602001604052806000815250611f83565b505050565b600d60009054906101000a900473ffffffffffffffffffffffffffffffffffffffff1681565b6000610e75610a5e565b8210610eb6576040517f08c379a0000000000000000000000000000000000000000000000000000000008152600401610ead906146b2565b60405180910390fd5b60088281548110610eca57610ec96146d2565b5b90600052602060002001549050919050565b610ee46137ee565b6014600183610ef39190614730565b81548110610f0457610f036146d2565b5b90600052602060002090600702016040518060e0016040529081600082015481526020016001820160009054906101000a900473ffffffffffffffffffffffffffffffffffffffff1673ffffffffffffffffffffffffffffffffffffffff1673ffffffffffffffffffffffffffffffffffffffff16815260200160028201548152602001600382018054610f9790614334565b80601f0160208091040260200160405190810160405280929190818152602001828054610fc390614334565b80156110105780601f10610fe557610100808354040283529160200191611010565b820191906000526020600020905b815481529060010190602001808311610ff357829003601f168201915b5050505050815260200160048201805461102990614334565b80601f016020809104026020016040519081016040528092919081815260200182805461105590614334565b80156110a25780601f10611077576101008083540402835291602001916110a2565b820191906000526020600020905b81548152906001019060200180831161108557829003601f168201915b505050505081526020016005820180546110bb90614334565b80601f01602080910402602001604051908101604052809291908181526020018280546110e790614334565b80156111345780601f1061110957610100808354040283529160200191611134565b820191906000526020600020905b81548152906001019060200180831161111757829003601f168201915b505050505081526020016006820154815250509050919050565b6000806002600084815260200190815260200160002060009054906101000a900473ffffffffffffffffffffffffffffffffffffffff169050600073ffffffffffffffffffffffffffffffffffffffff168173ffffffffffffffffffffffffffffffffffffffff1614156111f7576040517f08c379a00000000000000000000000000000000000000000000000000000000081526004016111ee906147d6565b60405180910390fd5b80915050919050565b60008073ffffffffffffffffffffffffffffffffffffffff168273ffffffffffffffffffffffffffffffffffffffff161415611271576040517f08c379a000000000000000000000000000000000000000000000000000000000815260040161126890614868565b60405180910390fd5b600360008373ffffffffffffffffffffffffffffffffffffffff1673ffffffffffffffffffffffffffffffffffffffff168152602001908152602001600020549050919050565b6112c06129a9565b6112ca6000612a27565b565b60115481565b600e60009054906101000a900473ffffffffffffffffffffffffffffffffffffffff1673ffffffffffffffffffffffffffffffffffffffff163373ffffffffffffffffffffffffffffffffffffffff1614158061137d5750600d60009054906101000a900473ffffffffffffffffffffffffffffffffffffffff1673ffffffffffffffffffffffffffffffffffffffff163373ffffffffffffffffffffffffffffffffffffffff1614155b6113bc576040517f08c379a00000000000000000000000000000000000000000000000000000000081526004016113b3906148fa565b60405180910390fd5b601254341015611401576040517f08c379a00000000000000000000000000000000000000000000000000000000081526004016113f890614966565b60405180910390fd5b6000600b8360405161141391906149c2565b908152602001604051809103902060009054906101000a900460ff1660ff1614611472576040517f08c379a000000000000000000000000000000000000000000000000000000000815260040161146990614a25565b60405180910390fd5b60006064600f54346114849190614a45565b61148e9190614ace565b90506114bc600d60009054906101000a900473ffffffffffffffffffffffffffffffffffffffff1682612aed565b6114d86114c7611719565b82346114d39190614730565b612aed565b601060008154809291906114eb90614aff565b919050555060146040518060e0016040528060105481526020013373ffffffffffffffffffffffffffffffffffffffff1681526020018481526020018781526020018681526020018581526020014281525090806001815401808255809150506001900390600052602060002090600702016000909190919091506000820151816000015560208201518160010160006101000a81548173ffffffffffffffffffffffffffffffffffffffff021916908373ffffffffffffffffffffffffffffffffffffffff1602179055506040820151816002015560608201518160030190805190602001906115dd929190613841565b5060808201518160040190805190602001906115fa929190613841565b5060a0820151816005019080519060200190611617929190613841565b5060c0820151816006015550503373ffffffffffffffffffffffffffffffffffffffff167fb9508407a6eccb191d8da3286f4173697cf95604e9ea192fe5ab7c862b5221f66010543486426040516116729493929190614b48565b60405180910390a261168633601054612b68565b6001600b8460405161169891906149c2565b908152602001604051809103902060006101000a81548160ff021916908360ff16021790555033600c6000601054815260200190815260200160002060006101000a81548173ffffffffffffffffffffffffffffffffffffffff021916908373ffffffffffffffffffffffffffffffffffffffff1602179055505050505050565b6000600a60009054906101000a900473ffffffffffffffffffffffffffffffffffffffff16905090565b60606001805461175290614334565b80601f016020809104026020016040519081016040528092919081815260200182805461177e90614334565b80156117cb5780601f106117a0576101008083540402835291602001916117cb565b820191906000526020600020905b8154815290600101906020018083116117ae57829003601f168201915b5050505050905090565b60146001826117e49190614730565b815481106117f5576117f46146d2565b5b906000526020600020906007020160020154341015611849576040517f08c379a000000000000000000000000000000000000000000000000000000000815260040161184090614be0565b60405180910390fd5b60146001826118589190614730565b81548110611869576118686146d2565b5b906000526020600020906007020160010160009054906101000a900473ffffffffffffffffffffffffffffffffffffffff1673ffffffffffffffffffffffffffffffffffffffff163373ffffffffffffffffffffffffffffffffffffffff161415611909576040517f08c379a000000000000000000000000000000000000000000000000000000000815260040161190090614c4c565b60405180910390fd5b60006064600f543461191b9190614a45565b6119259190614ace565b9050611953600d60009054906101000a900473ffffffffffffffffffffffffffffffffffffffff1682612aed565b6119b960146001846119659190614730565b81548110611976576119756146d2565b5b906000526020600020906007020160010160009054906101000a900473ffffffffffffffffffffffffffffffffffffffff1682346119b49190614730565b612aed565b601160008154809291906119cc90614aff565b919050555060136040518060e0016040528060115481526020013373ffffffffffffffffffffffffffffffffffffffff1681526020013481526020016014600186611a179190614730565b81548110611a2857611a276146d2565b5b90600052602060002090600702016003018054611a4490614334565b80601f0160208091040260200160405190810160405280929190818152602001828054611a7090614334565b8015611abd5780601f10611a9257610100808354040283529160200191611abd565b820191906000526020600020905b815481529060010190602001808311611aa057829003601f168201915b505050505081526020016014600186611ad69190614730565b81548110611ae757611ae66146d2565b5b90600052602060002090600702016004018054611b0390614334565b80601f0160208091040260200160405190810160405280929190818152602001828054611b2f90614334565b8015611b7c5780601f10611b5157610100808354040283529160200191611b7c565b820191906000526020600020905b815481529060010190602001808311611b5f57829003601f168201915b505050505081526020016014600186611b959190614730565b81548110611ba657611ba56146d2565b5b90600052602060002090600702016005018054611bc290614334565b80601f0160208091040260200160405190810160405280929190818152602001828054611bee90614334565b8015611c3b5780601f10611c1057610100808354040283529160200191611c3b565b820191906000526020600020905b815481529060010190602001808311611c1e57829003601f168201915b505050505081526020014281525090806001815401808255809150506001900390600052602060002090600702016000909190919091506000820151816000015560208201518160010160006101000a81548173ffffffffffffffffffffffffffffffffffffffff021916908373ffffffffffffffffffffffffffffffffffffffff160217905550604082015181600201556060820151816003019080519060200190611ce9929190613841565b506080820151816004019080519060200190611d06929190613841565b5060a0820151816005019080519060200190611d23929190613841565b5060c0820151816006015550503373ffffffffffffffffffffffffffffffffffffffff167fb9508407a6eccb191d8da3286f4173697cf95604e9ea192fe5ab7c862b5221f6601154346014600187611d7b9190614730565b81548110611d8c57611d8b6146d2565b5b906000526020600020906007020160050142604051611dae9493929190614d01565b60405180910390a2336014600184611dc69190614730565b81548110611dd757611dd66146d2565b5b906000526020600020906007020160010160006101000a81548173ffffffffffffffffffffffffffffffffffffffff021916908373ffffffffffffffffffffffffffffffffffffffff1602179055505050565b611e3c611e356125ae565b8383612b86565b5050565b6000808211611e84576040517f08c379a0000000000000000000000000000000000000000000000000000000008152600401611e7b90614d99565b60405180910390fd5b6014600184611e939190614730565b81548110611ea457611ea36146d2565b5b906000526020600020906007020160010160009054906101000a900473ffffffffffffffffffffffffffffffffffffffff1673ffffffffffffffffffffffffffffffffffffffff163373ffffffffffffffffffffffffffffffffffffffff1614611f43576040517f08c379a0000000000000000000000000000000000000000000000000000000008152600401611f3a90614c4c565b60405180910390fd5b816014600185611f539190614730565b81548110611f6457611f636146d2565b5b9060005260206000209060070201600201819055506001905092915050565b611f94611f8e6125ae565b8361266f565b611fd3576040517f08c379a0000000000000000000000000000000000000000000000000000000008152600401611fca9061458e565b60405180910390fd5b611fdf84848484612cf3565b50505050565b6060611ff082612542565b61202f576040517f08c379a000000000000000000000000000000000000000000000000000000000815260040161202690614e2b565b60405180910390fd5b6000612039612d4f565b905060008151116120595760405180602001604052806000815250612084565b8061206384612d66565b604051602001612074929190614e4b565b6040516020818303038152906040525b915050919050565b600c6020528060005260406000206000915054906101000a900473ffffffffffffffffffffffffffffffffffffffff1681565b60606014805480602002602001604051908101604052809291908181526020016000905b8282101561233f57838290600052602060002090600702016040518060e0016040529081600082015481526020016001820160009054906101000a900473ffffffffffffffffffffffffffffffffffffffff1673ffffffffffffffffffffffffffffffffffffffff1673ffffffffffffffffffffffffffffffffffffffff1681526020016002820154815260200160038201805461218090614334565b80601f01602080910402602001604051908101604052809291908181526020018280546121ac90614334565b80156121f95780601f106121ce576101008083540402835291602001916121f9565b820191906000526020600020905b8154815290600101906020018083116121dc57829003601f168201915b5050505050815260200160048201805461221290614334565b80601f016020809104026020016040519081016040528092919081815260200182805461223e90614334565b801561228b5780601f106122605761010080835404028352916020019161228b565b820191906000526020600020905b81548152906001019060200180831161226e57829003601f168201915b505050505081526020016005820180546122a490614334565b80601f01602080910402602001604051908101604052809291908181526020018280546122d090614334565b801561231d5780601f106122f25761010080835404028352916020019161231d565b820191906000526020600020905b81548152906001019060200180831161230057829003601f168201915b50505050508152602001600682015481525050815260200190600101906120e3565b50505050905090565b6000600560008473ffffffffffffffffffffffffffffffffffffffff1673ffffffffffffffffffffffffffffffffffffffff16815260200190815260200160002060008373ffffffffffffffffffffffffffffffffffffffff1673ffffffffffffffffffffffffffffffffffffffff16815260200190815260200160002060009054906101000a900460ff16905092915050565b6123e46129a9565b600073ffffffffffffffffffffffffffffffffffffffff168173ffffffffffffffffffffffffffffffffffffffff161415612454576040517f08c379a000000000000000000000000000000000000000000000000000000000815260040161244b90614ee1565b60405180910390fd5b61245d81612a27565b50565b60007f80ac58cd000000000000000000000000000000000000000000000000000000007bffffffffffffffffffffffffffffffffffffffffffffffffffffffff1916827bffffffffffffffffffffffffffffffffffffffffffffffffffffffff1916148061252b57507f5b5e139f000000000000000000000000000000000000000000000000000000007bffffffffffffffffffffffffffffffffffffffffffffffffffffffff1916827bffffffffffffffffffffffffffffffffffffffffffffffffffffffff1916145b8061253b575061253a82612e3e565b5b9050919050565b60008073ffffffffffffffffffffffffffffffffffffffff166002600084815260200190815260200160002060009054906101000a900473ffffffffffffffffffffffffffffffffffffffff1673ffffffffffffffffffffffffffffffffffffffff1614159050919050565b600033905090565b816004600083815260200190815260200160002060006101000a81548173ffffffffffffffffffffffffffffffffffffffff021916908373ffffffffffffffffffffffffffffffffffffffff160217905550808273ffffffffffffffffffffffffffffffffffffffff166126298361114e565b73ffffffffffffffffffffffffffffffffffffffff167f8c5be1e5ebec7d5bd14f71427d1e84f3dd0314c0f7b2291e5b200ac8c7c3b92560405160405180910390a45050565b600061267a82612542565b6126b9576040517f08c379a00000000000000000000000000000000000000000000000000000000081526004016126b090614f73565b60405180910390fd5b60006126c48361114e565b90508073ffffffffffffffffffffffffffffffffffffffff168473ffffffffffffffffffffffffffffffffffffffff16148061273357508373ffffffffffffffffffffffffffffffffffffffff1661271b846108bb565b73ffffffffffffffffffffffffffffffffffffffff16145b8061274457506127438185612348565b5b91505092915050565b8273ffffffffffffffffffffffffffffffffffffffff1661276d8261114e565b73ffffffffffffffffffffffffffffffffffffffff16146127c3576040517f08c379a00000000000000000000000000000000000000000000000000000000081526004016127ba90615005565b60405180910390fd5b600073ffffffffffffffffffffffffffffffffffffffff168273ffffffffffffffffffffffffffffffffffffffff161415612833576040517f08c379a000000000000000000000000000000000000000000000000000000000815260040161282a90615097565b60405180910390fd5b61283e838383612ea8565b6128496000826125b6565b6001600360008573ffffffffffffffffffffffffffffffffffffffff1673ffffffffffffffffffffffffffffffffffffffff16815260200190815260200160002060008282546128999190614730565b925050819055506001600360008473ffffffffffffffffffffffffffffffffffffffff1673ffffffffffffffffffffffffffffffffffffffff16815260200190815260200160002060008282546128f091906150b7565b92505081905550816002600083815260200190815260200160002060006101000a81548173ffffffffffffffffffffffffffffffffffffffff021916908373ffffffffffffffffffffffffffffffffffffffff160217905550808273ffffffffffffffffffffffffffffffffffffffff168473ffffffffffffffffffffffffffffffffffffffff167fddf252ad1be2c89b69c2b068fc378daa952ba7f163c4a11628f55a4df523b3ef60405160405180910390a4505050565b6129b16125ae565b73ffffffffffffffffffffffffffffffffffffffff166129cf611719565b73ffffffffffffffffffffffffffffffffffffffff1614612a25576040517f08c379a0000000000000000000000000000000000000000000000000000000008152600401612a1c90615159565b60405180910390fd5b565b6000600a60009054906101000a900473ffffffffffffffffffffffffffffffffffffffff16905081600a60006101000a81548173ffffffffffffffffffffffffffffffffffffffff021916908373ffffffffffffffffffffffffffffffffffffffff1602179055508173ffffffffffffffffffffffffffffffffffffffff168173ffffffffffffffffffffffffffffffffffffffff167f8be0079c531659141344cd1fd0a4f28419497f9722a3daafe3b4186f6b6457e060405160405180910390a35050565b60008273ffffffffffffffffffffffffffffffffffffffff1682604051612b13906151aa565b60006040518083038185875af1925050503d8060008114612b50576040519150601f19603f3d011682016040523d82523d6000602084013e612b55565b606091505b5050905080612b6357600080fd5b505050565b612b82828260405180602001604052806000815250612fbc565b5050565b8173ffffffffffffffffffffffffffffffffffffffff168373ffffffffffffffffffffffffffffffffffffffff161415612bf5576040517f08c379a0000000000000000000000000000000000000000000000000000000008152600401612bec9061520b565b60405180910390fd5b80600560008573ffffffffffffffffffffffffffffffffffffffff1673ffffffffffffffffffffffffffffffffffffffff16815260200190815260200160002060008473ffffffffffffffffffffffffffffffffffffffff1673ffffffffffffffffffffffffffffffffffffffff16815260200190815260200160002060006101000a81548160ff0219169083151502179055508173ffffffffffffffffffffffffffffffffffffffff168373ffffffffffffffffffffffffffffffffffffffff167f17307eab39ab6107e8899845ad3d59bd9653f200f220920489ca2b5937696c3183604051612ce69190613998565b60405180910390a3505050565b612cfe84848461274d565b612d0a84848484613017565b612d49576040517f08c379a0000000000000000000000000000000000000000000000000000000008152600401612d409061529d565b60405180910390fd5b50505050565b606060405180602001604052806000815250905090565b606060006001612d758461319f565b01905060008167ffffffffffffffff811115612d9457612d93613f0f565b5b6040519080825280601f01601f191660200182016040528015612dc65781602001600182028036833780820191505090505b509050600082602001820190505b600115612e33578080600190039150507f3031323334353637383961626364656600000000000000000000000000000000600a86061a8153600a8581612e1d57612e1c614a9f565b5b0494506000851415612e2e57612e33565b612dd4565b819350505050919050565b60007f01ffc9a7000000000000000000000000000000000000000000000000000000007bffffffffffffffffffffffffffffffffffffffffffffffffffffffff1916827bffffffffffffffffffffffffffffffffffffffffffffffffffffffff1916149050919050565b612eb38383836132f2565b600073ffffffffffffffffffffffffffffffffffffffff168373ffffffffffffffffffffffffffffffffffffffff161415612ef657612ef1816132f7565b612f35565b8173ffffffffffffffffffffffffffffffffffffffff168373ffffffffffffffffffffffffffffffffffffffff1614612f3457612f338382613340565b5b5b600073ffffffffffffffffffffffffffffffffffffffff168273ffffffffffffffffffffffffffffffffffffffff161415612f7857612f73816134ad565b612fb7565b8273ffffffffffffffffffffffffffffffffffffffff168273ffffffffffffffffffffffffffffffffffffffff1614612fb657612fb5828261357e565b5b5b505050565b612fc683836135fd565b612fd36000848484613017565b613012576040517f08c379a00000000000000000000000000000000000000000000000000000000081526004016130099061529d565b60405180910390fd5b505050565b60006130388473ffffffffffffffffffffffffffffffffffffffff166137cb565b15613192578373ffffffffffffffffffffffffffffffffffffffff1663150b7a026130616125ae565b8786866040518563ffffffff1660e01b81526004016130839493929190615312565b6020604051808303816000875af19250505080156130bf57506040513d601f19601f820116820180604052508101906130bc9190615373565b60015b613142573d80600081146130ef576040519150601f19603f3d011682016040523d82523d6000602084013e6130f4565b606091505b5060008151141561313a576040517f08c379a00000000000000000000000000000000000000000000000000000000081526004016131319061529d565b60405180910390fd5b805181602001fd5b63150b7a0260e01b7bffffffffffffffffffffffffffffffffffffffffffffffffffffffff1916817bffffffffffffffffffffffffffffffffffffffffffffffffffffffff191614915050613197565b600190505b949350505050565b600080600090507a184f03e93ff9f4daa797ed6e38ed64bf6a1f01000000000000000083106131fd577a184f03e93ff9f4daa797ed6e38ed64bf6a1f01000000000000000083816131f3576131f2614a9f565b5b0492506040810190505b6d04ee2d6d415b85acef8100000000831061323a576d04ee2d6d415b85acef810000000083816132305761322f614a9f565b5b0492506020810190505b662386f26fc10000831061326957662386f26fc10000838161325f5761325e614a9f565b5b0492506010810190505b6305f5e1008310613292576305f5e100838161328857613287614a9f565b5b0492506008810190505b61271083106132b75761271083816132ad576132ac614a9f565b5b0492506004810190505b606483106132da57606483816132d0576132cf614a9f565b5b0492506002810190505b600a83106132e9576001810190505b80915050919050565b505050565b6008805490506009600083815260200190815260200160002081905550600881908060018154018082558091505060019003906000526020600020016000909190919091505550565b6000600161334d84611200565b6133579190614730565b905060006007600084815260200190815260200160002054905081811461343c576000600660008673ffffffffffffffffffffffffffffffffffffffff1673ffffffffffffffffffffffffffffffffffffffff168152602001908152602001600020600084815260200190815260200160002054905080600660008773ffffffffffffffffffffffffffffffffffffffff1673ffffffffffffffffffffffffffffffffffffffff168152602001908152602001600020600084815260200190815260200160002081905550816007600083815260200190815260200160002081905550505b6007600084815260200190815260200160002060009055600660008573ffffffffffffffffffffffffffffffffffffffff1673ffffffffffffffffffffffffffffffffffffffff16815260200190815260200160002060008381526020019081526020016000206000905550505050565b600060016008805490506134c19190614730565b90506000600960008481526020019081526020016000205490506000600883815481106134f1576134f06146d2565b5b906000526020600020015490508060088381548110613513576135126146d2565b5b906000526020600020018190555081600960008381526020019081526020016000208190555060096000858152602001908152602001600020600090556008805480613562576135616153a0565b5b6001900381819060005260206000200160009055905550505050565b600061358983611200565b905081600660008573ffffffffffffffffffffffffffffffffffffffff1673ffffffffffffffffffffffffffffffffffffffff168152602001908152602001600020600083815260200190815260200160002081905550806007600084815260200190815260200160002081905550505050565b600073ffffffffffffffffffffffffffffffffffffffff168273ffffffffffffffffffffffffffffffffffffffff16141561366d576040517f08c379a00000000000000000000000000000000000000000000000000000000081526004016136649061541b565b60405180910390fd5b61367681612542565b156136b6576040517f08c379a00000000000000000000000000000000000000000000000000000000081526004016136ad90615487565b60405180910390fd5b6136c260008383612ea8565b6001600360008473ffffffffffffffffffffffffffffffffffffffff1673ffffffffffffffffffffffffffffffffffffffff168152602001908152602001600020600082825461371291906150b7565b92505081905550816002600083815260200190815260200160002060006101000a81548173ffffffffffffffffffffffffffffffffffffffff021916908373ffffffffffffffffffffffffffffffffffffffff160217905550808273ffffffffffffffffffffffffffffffffffffffff16600073ffffffffffffffffffffffffffffffffffffffff167fddf252ad1be2c89b69c2b068fc378daa952ba7f163c4a11628f55a4df523b3ef60405160405180910390a45050565b6000808273ffffffffffffffffffffffffffffffffffffffff163b119050919050565b6040518060e0016040528060008152602001600073ffffffffffffffffffffffffffffffffffffffff16815260200160008152602001606081526020016060815260200160608152602001600081525090565b82805461384d90614334565b90600052602060002090601f01602090048101928261386f57600085556138b6565b82601f1061388857805160ff19168380011785556138b6565b828001600101855582156138b6579182015b828111156138b557825182559160200191906001019061389a565b5b5090506138c391906138c7565b5090565b5b808211156138e05760008160009055506001016138c8565b5090565b6000604051905090565b600080fd5b600080fd5b60007fffffffff0000000000000000000000000000000000000000000000000000000082169050919050565b61392d816138f8565b811461393857600080fd5b50565b60008135905061394a81613924565b92915050565b600060208284031215613966576139656138ee565b5b60006139748482850161393b565b91505092915050565b60008115159050919050565b6139928161397d565b82525050565b60006020820190506139ad6000830184613989565b92915050565b6000819050919050565b6139c6816139b3565b82525050565b60006020820190506139e160008301846139bd565b92915050565b600081519050919050565b600082825260208201905092915050565b60005b83811015613a21578082015181840152602081019050613a06565b83811115613a30576000848401525b50505050565b6000601f19601f8301169050919050565b6000613a52826139e7565b613a5c81856139f2565b9350613a6c818560208601613a03565b613a7581613a36565b840191505092915050565b60006020820190508181036000830152613a9a8184613a47565b905092915050565b613aab816139b3565b8114613ab657600080fd5b50565b600081359050613ac881613aa2565b92915050565b600060208284031215613ae457613ae36138ee565b5b6000613af284828501613ab9565b91505092915050565b600073ffffffffffffffffffffffffffffffffffffffff82169050919050565b6000613b2682613afb565b9050919050565b613b3681613b1b565b82525050565b6000602082019050613b516000830184613b2d565b92915050565b613b6081613b1b565b8114613b6b57600080fd5b50565b600081359050613b7d81613b57565b92915050565b60008060408385031215613b9a57613b996138ee565b5b6000613ba885828601613b6e565b9250506020613bb985828601613ab9565b9150509250929050565b600080600060608486031215613bdc57613bdb6138ee565b5b6000613bea86828701613b6e565b9350506020613bfb86828701613b6e565b9250506040613c0c86828701613ab9565b9150509250925092565b600081519050919050565b600082825260208201905092915050565b6000819050602082019050919050565b613c4b816139b3565b82525050565b613c5a81613b1b565b82525050565b600082825260208201905092915050565b6000613c7c826139e7565b613c868185613c60565b9350613c96818560208601613a03565b613c9f81613a36565b840191505092915050565b600060e083016000830151613cc26000860182613c42565b506020830151613cd56020860182613c51565b506040830151613ce86040860182613c42565b5060608301518482036060860152613d008282613c71565b91505060808301518482036080860152613d1a8282613c71565b91505060a083015184820360a0860152613d348282613c71565b91505060c0830151613d4960c0860182613c42565b508091505092915050565b6000613d608383613caa565b905092915050565b6000602082019050919050565b6000613d8082613c16565b613d8a8185613c21565b935083602082028501613d9c85613c32565b8060005b85811015613dd85784840389528151613db98582613d54565b9450613dc483613d68565b925060208a01995050600181019050613da0565b50829750879550505050505092915050565b60006020820190508181036000830152613e048184613d75565b905092915050565b600060e083016000830151613e246000860182613c42565b506020830151613e376020860182613c51565b506040830151613e4a6040860182613c42565b5060608301518482036060860152613e628282613c71565b91505060808301518482036080860152613e7c8282613c71565b91505060a083015184820360a0860152613e968282613c71565b91505060c0830151613eab60c0860182613c42565b508091505092915050565b60006020820190508181036000830152613ed08184613e0c565b905092915050565b600060208284031215613eee57613eed6138ee565b5b6000613efc84828501613b6e565b91505092915050565b600080fd5b600080fd5b7f4e487b7100000000000000000000000000000000000000000000000000000000600052604160045260246000fd5b613f4782613a36565b810181811067ffffffffffffffff82111715613f6657613f65613f0f565b5b80604052505050565b6000613f796138e4565b9050613f858282613f3e565b919050565b600067ffffffffffffffff821115613fa557613fa4613f0f565b5b613fae82613a36565b9050602081019050919050565b82818337600083830152505050565b6000613fdd613fd884613f8a565b613f6f565b905082815260208101848484011115613ff957613ff8613f0a565b5b614004848285613fbb565b509392505050565b600082601f83011261402157614020613f05565b5b8135614031848260208601613fca565b91505092915050565b60008060008060808587031215614054576140536138ee565b5b600085013567ffffffffffffffff811115614072576140716138f3565b5b61407e8782880161400c565b945050602085013567ffffffffffffffff81111561409f5761409e6138f3565b5b6140ab8782880161400c565b935050604085013567ffffffffffffffff8111156140cc576140cb6138f3565b5b6140d88782880161400c565b92505060606140e987828801613ab9565b91505092959194509250565b6140fe8161397d565b811461410957600080fd5b50565b60008135905061411b816140f5565b92915050565b60008060408385031215614138576141376138ee565b5b600061414685828601613b6e565b92505060206141578582860161410c565b9150509250929050565b60008060408385031215614178576141776138ee565b5b600061418685828601613ab9565b925050602061419785828601613ab9565b9150509250929050565b600067ffffffffffffffff8211156141bc576141bb613f0f565b5b6141c582613a36565b9050602081019050919050565b60006141e56141e0846141a1565b613f6f565b90508281526020810184848401111561420157614200613f0a565b5b61420c848285613fbb565b509392505050565b600082601f83011261422957614228613f05565b5b81356142398482602086016141d2565b91505092915050565b6000806000806080858703121561425c5761425b6138ee565b5b600061426a87828801613b6e565b945050602061427b87828801613b6e565b935050604061428c87828801613ab9565b925050606085013567ffffffffffffffff8111156142ad576142ac6138f3565b5b6142b987828801614214565b91505092959194509250565b600080604083850312156142dc576142db6138ee565b5b60006142ea85828601613b6e565b92505060206142fb85828601613b6e565b9150509250929050565b7f4e487b7100000000000000000000000000000000000000000000000000000000600052602260045260246000fd5b6000600282049050600182168061434c57607f821691505b602082108114156143605761435f614305565b5b50919050565b7f4552433732313a20617070726f76656420717565727920666f72206e6f6e657860008201527f697374656e7420746f6b656e0000000000000000000000000000000000000000602082015250565b60006143c2602c836139f2565b91506143cd82614366565b604082019050919050565b600060208201905081810360008301526143f1816143b5565b9050919050565b7f4552433732313a20617070726f76616c20746f2063757272656e74206f776e6560008201527f7200000000000000000000000000000000000000000000000000000000000000602082015250565b60006144546021836139f2565b915061445f826143f8565b604082019050919050565b6000602082019050818103600083015261448381614447565b9050919050565b7f4552433732313a20617070726f76652063616c6c6572206973206e6f74206f7760008201527f6e6572206e6f7220617070726f76656420666f7220616c6c0000000000000000602082015250565b60006144e66038836139f2565b91506144f18261448a565b604082019050919050565b60006020820190508181036000830152614515816144d9565b9050919050565b7f4552433732313a207472616e736665722063616c6c6572206973206e6f74206f60008201527f776e6572206e6f7220617070726f766564000000000000000000000000000000602082015250565b60006145786031836139f2565b91506145838261451c565b604082019050919050565b600060208201905081810360008301526145a78161456b565b9050919050565b7f455243373231456e756d657261626c653a206f776e657220696e646578206f7560008201527f74206f6620626f756e6473000000000000000000000000000000000000000000602082015250565b600061460a602b836139f2565b9150614615826145ae565b604082019050919050565b60006020820190508181036000830152614639816145fd565b9050919050565b7f455243373231456e756d657261626c653a20676c6f62616c20696e646578206f60008201527f7574206f6620626f756e64730000000000000000000000000000000000000000602082015250565b600061469c602c836139f2565b91506146a782614640565b604082019050919050565b600060208201905081810360008301526146cb8161468f565b9050919050565b7f4e487b7100000000000000000000000000000000000000000000000000000000600052603260045260246000fd5b7f4e487b7100000000000000000000000000000000000000000000000000000000600052601160045260246000fd5b600061473b826139b3565b9150614746836139b3565b92508282101561475957614758614701565b5b828203905092915050565b7f4552433732313a206f776e657220717565727920666f72206e6f6e657869737460008201527f656e7420746f6b656e0000000000000000000000000000000000000000000000602082015250565b60006147c06029836139f2565b91506147cb82614764565b604082019050919050565b600060208201905081810360008301526147ef816147b3565b9050919050565b7f4552433732313a2062616c616e636520717565727920666f7220746865207a6560008201527f726f206164647265737300000000000000000000000000000000000000000000602082015250565b6000614852602a836139f2565b915061485d826147f6565b604082019050919050565b6000602082019050818103600083015261488181614845565b9050919050565b7f596f7520617265206e6f7420616c6c6f77656420746f206d696e74204e46547360008201527f2100000000000000000000000000000000000000000000000000000000000000602082015250565b60006148e46021836139f2565b91506148ef82614888565b604082019050919050565b60006020820190508181036000830152614913816148d7565b9050919050565b7f457468657220746f6f206c6f7720666f72206d696e74696e6721000000000000600082015250565b6000614950601a836139f2565b915061495b8261491a565b602082019050919050565b6000602082019050818103600083015261497f81614943565b9050919050565b600081905092915050565b600061499c826139e7565b6149a68185614986565b93506149b6818560208601613a03565b80840191505092915050565b60006149ce8284614991565b915081905092915050565b7f54686973204e465420697320616c7265616479206d696e746564210000000000600082015250565b6000614a0f601b836139f2565b9150614a1a826149d9565b602082019050919050565b60006020820190508181036000830152614a3e81614a02565b9050919050565b6000614a50826139b3565b9150614a5b836139b3565b9250817fffffffffffffffffffffffffffffffffffffffffffffffffffffffffffffffff0483118215151615614a9457614a93614701565b5b828202905092915050565b7f4e487b7100000000000000000000000000000000000000000000000000000000600052601260045260246000fd5b6000614ad9826139b3565b9150614ae4836139b3565b925082614af457614af3614a9f565b5b828204905092915050565b6000614b0a826139b3565b91507fffffffffffffffffffffffffffffffffffffffffffffffffffffffffffffffff821415614b3d57614b3c614701565b5b600182019050919050565b6000608082019050614b5d60008301876139bd565b614b6a60208301866139bd565b8181036040830152614b7c8185613a47565b9050614b8b60608301846139bd565b95945050505050565b7f457468657220746f6f206c6f7720666f72207075726368617365210000000000600082015250565b6000614bca601b836139f2565b9150614bd582614b94565b602082019050919050565b60006020820190508181036000830152614bf981614bbd565b9050919050565b7f4f7065726174696f6e204e6f7420416c6c6f7765642100000000000000000000600082015250565b6000614c366016836139f2565b9150614c4182614c00565b602082019050919050565b60006020820190508181036000830152614c6581614c29565b9050919050565b60008190508160005260206000209050919050565b60008154614c8e81614334565b614c9881866139f2565b94506001821660008114614cb35760018114614cc557614cf8565b60ff1983168652602086019350614cf8565b614cce85614c6c565b60005b83811015614cf057815481890152600182019150602081019050614cd1565b808801955050505b50505092915050565b6000608082019050614d1660008301876139bd565b614d2360208301866139bd565b8181036040830152614d358185614c81565b9050614d4460608301846139bd565b95945050505050565b7f457468657220746f6f206c6f7721000000000000000000000000000000000000600082015250565b6000614d83600e836139f2565b9150614d8e82614d4d565b602082019050919050565b60006020820190508181036000830152614db281614d76565b9050919050565b7f4552433732314d657461646174613a2055524920717565727920666f72206e6f60008201527f6e6578697374656e7420746f6b656e0000000000000000000000000000000000602082015250565b6000614e15602f836139f2565b9150614e2082614db9565b604082019050919050565b60006020820190508181036000830152614e4481614e08565b9050919050565b6000614e578285614991565b9150614e638284614991565b91508190509392505050565b7f4f776e61626c653a206e6577206f776e657220697320746865207a65726f206160008201527f6464726573730000000000000000000000000000000000000000000000000000602082015250565b6000614ecb6026836139f2565b9150614ed682614e6f565b604082019050919050565b60006020820190508181036000830152614efa81614ebe565b9050919050565b7f4552433732313a206f70657261746f7220717565727920666f72206e6f6e657860008201527f697374656e7420746f6b656e0000000000000000000000000000000000000000602082015250565b6000614f5d602c836139f2565b9150614f6882614f01565b604082019050919050565b60006020820190508181036000830152614f8c81614f50565b9050919050565b7f4552433732313a207472616e73666572206f6620746f6b656e2074686174206960008201527f73206e6f74206f776e0000000000000000000000000000000000000000000000602082015250565b6000614fef6029836139f2565b9150614ffa82614f93565b604082019050919050565b6000602082019050818103600083015261501e81614fe2565b9050919050565b7f4552433732313a207472616e7366657220746f20746865207a65726f2061646460008201527f7265737300000000000000000000000000000000000000000000000000000000602082015250565b60006150816024836139f2565b915061508c82615025565b604082019050919050565b600060208201905081810360008301526150b081615074565b9050919050565b60006150c2826139b3565b91506150cd836139b3565b9250827fffffffffffffffffffffffffffffffffffffffffffffffffffffffffffffffff0382111561510257615101614701565b5b828201905092915050565b7f4f776e61626c653a2063616c6c6572206973206e6f7420746865206f776e6572600082015250565b60006151436020836139f2565b915061514e8261510d565b602082019050919050565b6000602082019050818103600083015261517281615136565b9050919050565b600081905092915050565b50565b6000615194600083615179565b915061519f82615184565b600082019050919050565b60006151b582615187565b9150819050919050565b7f4552433732313a20617070726f766520746f2063616c6c657200000000000000600082015250565b60006151f56019836139f2565b9150615200826151bf565b602082019050919050565b60006020820190508181036000830152615224816151e8565b9050919050565b7f4552433732313a207472616e7366657220746f206e6f6e20455243373231526560008201527f63656976657220696d706c656d656e7465720000000000000000000000000000602082015250565b60006152876032836139f2565b91506152928261522b565b604082019050919050565b600060208201905081810360008301526152b68161527a565b9050919050565b600081519050919050565b600082825260208201905092915050565b60006152e4826152bd565b6152ee81856152c8565b93506152fe818560208601613a03565b61530781613a36565b840191505092915050565b60006080820190506153276000830187613b2d565b6153346020830186613b2d565b61534160408301856139bd565b818103606083015261535381846152d9565b905095945050505050565b60008151905061536d81613924565b92915050565b600060208284031215615389576153886138ee565b5b60006153978482850161535e565b91505092915050565b7f4e487b7100000000000000000000000000000000000000000000000000000000600052603160045260246000fd5b7f4552433732313a206d696e7420746f20746865207a65726f2061646472657373600082015250565b60006154056020836139f2565b9150615410826153cf565b602082019050919050565b60006020820190508181036000830152615434816153f8565b9050919050565b7f4552433732313a20746f6b656e20616c7265616479206d696e74656400000000600082015250565b6000615471601c836139f2565b915061547c8261543b565b602082019050919050565b600060208201905081810360008301526154a081615464565b905091905056fea2646970667358221220a8a1cb94b5a8e44a057d391058e2e1c25f3465367afead91d742f5d374f6c2ce64736f6c634300080b0033",
  "immutableReferences": {},
  "source": "// SPDX-License-Identifier: MIT\npragma solidity >=0.7.0 <0.9.0;\n\nimport \"./ERC721.sol\";\nimport \"./ERC721Enumerable.sol\";\nimport \"@openzeppelin/contracts/access/Ownable.sol\";\n\ncontract TimelessNFT is ERC721Enumerable, Ownable {\n    using Strings for uint256;\n    mapping(string => uint8) existingURIs;\n    mapping(uint256 => address) public holderOf;\n\n    address public artist;\n    address public mpOwner;\n    uint256 public royalityFee;\n    uint256 public supply = 0;\n    uint256 public totalTx = 0;\n    uint256 public cost = 0.01 ether;\n\n    event Sale(\n        uint256 id,\n        address indexed owner,\n        uint256 cost,\n        string metadataURI,\n        uint256 timestamp\n    );\n\n    struct TransactionStruct {\n        uint256 id;\n        address owner;\n        uint256 cost;\n        string title;\n        string description;\n        string metadataURI;\n        uint256 timestamp;\n    }\n\n    TransactionStruct[] transactions;\n    TransactionStruct[] minted;\n\n    constructor(\n        string memory _name,\n        string memory _symbol,\n        uint256 _royalityFee,\n        address _artist\n    ) ERC721(_name, _symbol) {\n        royalityFee = _royalityFee;\n        artist = _artist;\n        mpOwner = msg.sender;\n    }\n\n    function payToMint(\n        string memory title,\n        string memory description,\n        string memory metadataURI,\n        uint256 salesPrice\n\n    ) external payable {\n\n        require(msg.sender != mpOwner || msg.sender != artist, \"You are not allowed to mint NFTs!\");\n        require(msg.value >= cost, \"Ether too low for minting!\");\n        require(existingURIs[metadataURI] == 0, \"This NFT is already minted!\");\n\n        uint256 royality = (msg.value * royalityFee) / 100;\n        payTo(artist, royality);\n        payTo(owner(), (msg.value - royality));\n\n        supply++;\n\n        minted.push(\n            TransactionStruct(\n                supply,\n                msg.sender,\n                salesPrice,\n                title,\n                description,\n                metadataURI,\n                block.timestamp\n            )\n        );\n\n        emit Sale(\n            supply,\n            msg.sender,\n            msg.value,\n            metadataURI,\n            block.timestamp\n        );\n\n        _safeMint(msg.sender, supply);\n        existingURIs[metadataURI] = 1;\n        holderOf[supply] = msg.sender;\n    }\n\n    function payToBuy(uint256 id) external payable {\n        require(msg.value >= minted[id - 1].cost, \"Ether too low for purchase!\");\n        require(msg.sender != minted[id - 1].owner, \"Operation Not Allowed!\");\n\n        uint256 royality = (msg.value * royalityFee) / 100;\n        payTo(artist, royality);\n        payTo(minted[id - 1].owner, (msg.value - royality));\n\n        totalTx++;\n\n        transactions.push(\n            TransactionStruct(\n                totalTx,\n                msg.sender,\n                msg.value,\n                minted[id - 1].title,\n                minted[id - 1].description,\n                minted[id - 1].metadataURI,\n                block.timestamp\n            )\n        );\n\n        emit Sale(\n            totalTx,\n            msg.sender,\n            msg.value,\n            minted[id - 1].metadataURI,\n            block.timestamp\n        );\n\n        minted[id - 1].owner = msg.sender;\n    }\n\n    function changePrice(uint256 id, uint256 newPrice) external returns (bool) {\n        require(newPrice > 0 ether, \"Ether too low!\");\n        require(msg.sender == minted[id - 1].owner, \"Operation Not Allowed!\");\n\n        minted[id - 1].cost = newPrice;\n        return true;\n    }\n\n    function payTo(address to, uint256 amount) internal {\n        (bool success, ) = payable(to).call{value: amount}(\"\");\n        require(success);\n    }\n\n    function getAllNFTs() external view returns (TransactionStruct[] memory) {\n        return minted;\n    }\n\n    function getNFT(uint256 id) external view returns (TransactionStruct memory) {\n        return minted[id - 1];\n    }\n\n    function getAllTransactions() external view returns (TransactionStruct[] memory) {\n        return transactions;\n    }\n}",
  "sourcePath": "C:\\Users\\envis\\Desktop\\Bootcamp-main\\timelessNFT-main\\timelessNFT-main\\src\\contracts\\TimelessNFT.sol",
  "compiler": {
    "name": "solc",
    "version": "0.8.11+commit.d7f03943.Emscripten.clang"
  },
  "schemaVersion": "3.4.14",
  "updatedAt": "2023-06-03T16:59:57.237Z",
  "networkType": "ethereum",
  "devdoc": {
    "kind": "dev",
    "methods": {
      "approve(address,uint256)": {
        "details": "See {IERC721-approve}."
      },
      "balanceOf(address)": {
        "details": "See {IERC721-balanceOf}."
      },
      "getApproved(uint256)": {
        "details": "See {IERC721-getApproved}."
      },
      "isApprovedForAll(address,address)": {
        "details": "See {IERC721-isApprovedForAll}."
      },
      "name()": {
        "details": "See {IERC721Metadata-name}."
      },
      "owner()": {
        "details": "Returns the address of the current owner."
      },
      "ownerOf(uint256)": {
        "details": "See {IERC721-ownerOf}."
      },
      "renounceOwnership()": {
        "details": "Leaves the contract without owner. It will not be possible to call `onlyOwner` functions. Can only be called by the current owner. NOTE: Renouncing ownership will leave the contract without an owner, thereby disabling any functionality that is only available to the owner."
      },
      "safeTransferFrom(address,address,uint256)": {
        "details": "See {IERC721-safeTransferFrom}."
      },
      "safeTransferFrom(address,address,uint256,bytes)": {
        "details": "See {IERC721-safeTransferFrom}."
      },
      "setApprovalForAll(address,bool)": {
        "details": "See {IERC721-setApprovalForAll}."
      },
      "supportsInterface(bytes4)": {
        "details": "See {IERC165-supportsInterface}."
      },
      "symbol()": {
        "details": "See {IERC721Metadata-symbol}."
      },
      "tokenByIndex(uint256)": {
        "details": "See {IERC721Enumerable-tokenByIndex}."
      },
      "tokenOfOwnerByIndex(address,uint256)": {
        "details": "See {IERC721Enumerable-tokenOfOwnerByIndex}."
      },
      "tokenURI(uint256)": {
        "details": "See {IERC721Metadata-tokenURI}."
      },
      "totalSupply()": {
        "details": "See {IERC721Enumerable-totalSupply}."
      },
      "transferFrom(address,address,uint256)": {
        "details": "See {IERC721-transferFrom}."
      },
      "transferOwnership(address)": {
        "details": "Transfers ownership of the contract to a new account (`newOwner`). Can only be called by the current owner."
      }
    },
    "version": 1
  },
  "userdoc": {
    "kind": "user",
    "methods": {},
    "version": 1
  }
}