{
  "_format": "hh-sol-artifact-1",
  "contractName": "TimelessNFT",
  "sourceName": "src/contracts/TimelessNFT.sol",
  "abi": [
    {
      "inputs": [
        {
          "internalType": "string",
          "name": "_name",
          "type": "string"
        },
        {
          "internalType": "string",
          "name": "_symbol",
          "type": "string"
        },
        {
          "internalType": "uint256",
          "name": "_royalityFee",
          "type": "uint256"
        },
        {
          "internalType": "address",
          "name": "_artist",
          "type": "address"
        }
      ],
      "stateMutability": "nonpayable",
      "type": "constructor"
    },
    {
      "anonymous": false,
      "inputs": [
        {
          "indexed": true,
          "internalType": "address",
          "name": "owner",
          "type": "address"
        },
        {
          "indexed": true,
          "internalType": "address",
          "name": "approved",
          "type": "address"
        },
        {
          "indexed": true,
          "internalType": "uint256",
          "name": "tokenId",
          "type": "uint256"
        }
      ],
      "name": "Approval",
      "type": "event"
    },
    {
      "anonymous": false,
      "inputs": [
        {
          "indexed": true,
          "internalType": "address",
          "name": "owner",
          "type": "address"
        },
        {
          "indexed": true,
          "internalType": "address",
          "name": "operator",
          "type": "address"
        },
        {
          "indexed": false,
          "internalType": "bool",
          "name": "approved",
          "type": "bool"
        }
      ],
      "name": "ApprovalForAll",
      "type": "event"
    },
    {
      "anonymous": false,
      "inputs": [
        {
          "indexed": true,
          "internalType": "address",
          "name": "previousOwner",
          "type": "address"
        },
        {
          "indexed": true,
          "internalType": "address",
          "name": "newOwner",
          "type": "address"
        }
      ],
      "name": "OwnershipTransferred",
      "type": "event"
    },
    {
      "anonymous": false,
      "inputs": [
        {
          "indexed": false,
          "internalType": "uint256",
          "name": "id",
          "type": "uint256"
        },
        {
          "indexed": true,
          "internalType": "address",
          "name": "owner",
          "type": "address"
        },
        {
          "indexed": false,
          "internalType": "uint256",
          "name": "cost",
          "type": "uint256"
        },
        {
          "indexed": false,
          "internalType": "string",
          "name": "metadataURI",
          "type": "string"
        },
        {
          "indexed": false,
          "internalType": "uint256",
          "name": "timestamp",
          "type": "uint256"
        }
      ],
      "name": "Sale",
      "type": "event"
    },
    {
      "anonymous": false,
      "inputs": [
        {
          "indexed": true,
          "internalType": "address",
          "name": "from",
          "type": "address"
        },
        {
          "indexed": true,
          "internalType": "address",
          "name": "to",
          "type": "address"
        },
        {
          "indexed": true,
          "internalType": "uint256",
          "name": "tokenId",
          "type": "uint256"
        }
      ],
      "name": "Transfer",
      "type": "event"
    },
    {
      "inputs": [
        {
          "internalType": "address",
          "name": "to",
          "type": "address"
        },
        {
          "internalType": "uint256",
          "name": "tokenId",
          "type": "uint256"
        }
      ],
      "name": "approve",
      "outputs": [],
      "stateMutability": "nonpayable",
      "type": "function"
    },
    {
      "inputs": [],
      "name": "artist",
      "outputs": [
        {
          "internalType": "address",
          "name": "",
          "type": "address"
        }
      ],
      "stateMutability": "view",
      "type": "function"
    },
    {
      "inputs": [
        {
          "internalType": "address",
          "name": "owner",
          "type": "address"
        }
      ],
      "name": "balanceOf",
      "outputs": [
        {
          "internalType": "uint256",
          "name": "",
          "type": "uint256"
        }
      ],
      "stateMutability": "view",
      "type": "function"
    },
    {
      "inputs": [
        {
          "internalType": "uint256",
          "name": "id",
          "type": "uint256"
        },
        {
          "internalType": "uint256",
          "name": "newPrice",
          "type": "uint256"
        }
      ],
      "name": "changePrice",
      "outputs": [
        {
          "internalType": "bool",
          "name": "",
          "type": "bool"
        }
      ],
      "stateMutability": "nonpayable",
      "type": "function"
    },
    {
      "inputs": [],
      "name": "cost",
      "outputs": [
        {
          "internalType": "uint256",
          "name": "",
          "type": "uint256"
        }
      ],
      "stateMutability": "view",
      "type": "function"
    },
    {
      "inputs": [],
      "name": "getAllNFTs",
      "outputs": [
        {
          "components": [
            {
              "internalType": "uint256",
              "name": "id",
              "type": "uint256"
            },
            {
              "internalType": "address",
              "name": "owner",
              "type": "address"
            },
            {
              "internalType": "uint256",
              "name": "cost",
              "type": "uint256"
            },
            {
              "internalType": "string",
              "name": "title",
              "type": "string"
            },
            {
              "internalType": "string",
              "name": "description",
              "type": "string"
            },
            {
              "internalType": "string",
              "name": "metadataURI",
              "type": "string"
            },
            {
              "internalType": "uint256",
              "name": "timestamp",
              "type": "uint256"
            }
          ],
          "internalType": "struct TimelessNFT.TransactionStruct[]",
          "name": "",
          "type": "tuple[]"
        }
      ],
      "stateMutability": "view",
      "type": "function"
    },
    {
      "inputs": [],
      "name": "getAllTransactions",
      "outputs": [
        {
          "components": [
            {
              "internalType": "uint256",
              "name": "id",
              "type": "uint256"
            },
            {
              "internalType": "address",
              "name": "owner",
              "type": "address"
            },
            {
              "internalType": "uint256",
              "name": "cost",
              "type": "uint256"
            },
            {
              "internalType": "string",
              "name": "title",
              "type": "string"
            },
            {
              "internalType": "string",
              "name": "description",
              "type": "string"
            },
            {
              "internalType": "string",
              "name": "metadataURI",
              "type": "string"
            },
            {
              "internalType": "uint256",
              "name": "timestamp",
              "type": "uint256"
            }
          ],
          "internalType": "struct TimelessNFT.TransactionStruct[]",
          "name": "",
          "type": "tuple[]"
        }
      ],
      "stateMutability": "view",
      "type": "function"
    },
    {
      "inputs": [
        {
          "internalType": "uint256",
          "name": "tokenId",
          "type": "uint256"
        }
      ],
      "name": "getApproved",
      "outputs": [
        {
          "internalType": "address",
          "name": "",
          "type": "address"
        }
      ],
      "stateMutability": "view",
      "type": "function"
    },
    {
      "inputs": [
        {
          "internalType": "uint256",
          "name": "id",
          "type": "uint256"
        }
      ],
      "name": "getNFT",
      "outputs": [
        {
          "components": [
            {
              "internalType": "uint256",
              "name": "id",
              "type": "uint256"
            },
            {
              "internalType": "address",
              "name": "owner",
              "type": "address"
            },
            {
              "internalType": "uint256",
              "name": "cost",
              "type": "uint256"
            },
            {
              "internalType": "string",
              "name": "title",
              "type": "string"
            },
            {
              "internalType": "string",
              "name": "description",
              "type": "string"
            },
            {
              "internalType": "string",
              "name": "metadataURI",
              "type": "string"
            },
            {
              "internalType": "uint256",
              "name": "timestamp",
              "type": "uint256"
            }
          ],
          "internalType": "struct TimelessNFT.TransactionStruct",
          "name": "",
          "type": "tuple"
        }
      ],
      "stateMutability": "view",
      "type": "function"
    },
    {
      "inputs": [
        {
          "internalType": "uint256",
          "name": "",
          "type": "uint256"
        }
      ],
      "name": "holderOf",
      "outputs": [
        {
          "internalType": "address",
          "name": "",
          "type": "address"
        }
      ],
      "stateMutability": "view",
      "type": "function"
    },
    {
      "inputs": [
        {
          "internalType": "address",
          "name": "owner",
          "type": "address"
        },
        {
          "internalType": "address",
          "name": "operator",
          "type": "address"
        }
      ],
      "name": "isApprovedForAll",
      "outputs": [
        {
          "internalType": "bool",
          "name": "",
          "type": "bool"
        }
      ],
      "stateMutability": "view",
      "type": "function"
    },
    {
      "inputs": [],
      "name": "name",
      "outputs": [
        {
          "internalType": "string",
          "name": "",
          "type": "string"
        }
      ],
      "stateMutability": "view",
      "type": "function"
    },
    {
      "inputs": [],
      "name": "owner",
      "outputs": [
        {
          "internalType": "address",
          "name": "",
          "type": "address"
        }
      ],
      "stateMutability": "view",
      "type": "function"
    },
    {
      "inputs": [
        {
          "internalType": "uint256",
          "name": "tokenId",
          "type": "uint256"
        }
      ],
      "name": "ownerOf",
      "outputs": [
        {
          "internalType": "address",
          "name": "",
          "type": "address"
        }
      ],
      "stateMutability": "view",
      "type": "function"
    },
    {
      "inputs": [
        {
          "internalType": "uint256",
          "name": "id",
          "type": "uint256"
        }
      ],
      "name": "payToBuy",
      "outputs": [],
      "stateMutability": "payable",
      "type": "function"
    },
    {
      "inputs": [
        {
          "internalType": "string",
          "name": "title",
          "type": "string"
        },
        {
          "internalType": "string",
          "name": "description",
          "type": "string"
        },
        {
          "internalType": "string",
          "name": "metadataURI",
          "type": "string"
        },
        {
          "internalType": "uint256",
          "name": "salesPrice",
          "type": "uint256"
        }
      ],
      "name": "payToMint",
      "outputs": [],
      "stateMutability": "payable",
      "type": "function"
    },
    {
      "inputs": [],
      "name": "renounceOwnership",
      "outputs": [],
      "stateMutability": "nonpayable",
      "type": "function"
    },
    {
      "inputs": [],
      "name": "royalityFee",
      "outputs": [
        {
          "internalType": "uint256",
          "name": "",
          "type": "uint256"
        }
      ],
      "stateMutability": "view",
      "type": "function"
    },
    {
      "inputs": [
        {
          "internalType": "address",
          "name": "from",
          "type": "address"
        },
        {
          "internalType": "address",
          "name": "to",
          "type": "address"
        },
        {
          "internalType": "uint256",
          "name": "tokenId",
          "type": "uint256"
        }
      ],
      "name": "safeTransferFrom",
      "outputs": [],
      "stateMutability": "payable",
      "type": "function"
    },
    {
      "inputs": [
        {
          "internalType": "address",
          "name": "from",
          "type": "address"
        },
        {
          "internalType": "address",
          "name": "to",
          "type": "address"
        },
        {
          "internalType": "uint256",
          "name": "tokenId",
          "type": "uint256"
        },
        {
          "internalType": "bytes",
          "name": "_data",
          "type": "bytes"
        }
      ],
      "name": "safeTransferFrom",
      "outputs": [],
      "stateMutability": "payable",
      "type": "function"
    },
    {
      "inputs": [
        {
          "internalType": "address",
          "name": "operator",
          "type": "address"
        },
        {
          "internalType": "bool",
          "name": "approved",
          "type": "bool"
        }
      ],
      "name": "setApprovalForAll",
      "outputs": [],
      "stateMutability": "nonpayable",
      "type": "function"
    },
    {
      "inputs": [],
      "name": "supply",
      "outputs": [
        {
          "internalType": "uint256",
          "name": "",
          "type": "uint256"
        }
      ],
      "stateMutability": "view",
      "type": "function"
    },
    {
      "inputs": [
        {
          "internalType": "bytes4",
          "name": "interfaceId",
          "type": "bytes4"
        }
      ],
      "name": "supportsInterface",
      "outputs": [
        {
          "internalType": "bool",
          "name": "",
          "type": "bool"
        }
      ],
      "stateMutability": "view",
      "type": "function"
    },
    {
      "inputs": [],
      "name": "symbol",
      "outputs": [
        {
          "internalType": "string",
          "name": "",
          "type": "string"
        }
      ],
      "stateMutability": "view",
      "type": "function"
    },
    {
      "inputs": [
        {
          "internalType": "uint256",
          "name": "index",
          "type": "uint256"
        }
      ],
      "name": "tokenByIndex",
      "outputs": [
        {
          "internalType": "uint256",
          "name": "",
          "type": "uint256"
        }
      ],
      "stateMutability": "view",
      "type": "function"
    },
    {
      "inputs": [
        {
          "internalType": "address",
          "name": "owner",
          "type": "address"
        },
        {
          "internalType": "uint256",
          "name": "index",
          "type": "uint256"
        }
      ],
      "name": "tokenOfOwnerByIndex",
      "outputs": [
        {
          "internalType": "uint256",
          "name": "",
          "type": "uint256"
        }
      ],
      "stateMutability": "view",
      "type": "function"
    },
    {
      "inputs": [
        {
          "internalType": "uint256",
          "name": "tokenId",
          "type": "uint256"
        }
      ],
      "name": "tokenURI",
      "outputs": [
        {
          "internalType": "string",
          "name": "",
          "type": "string"
        }
      ],
      "stateMutability": "view",
      "type": "function"
    },
    {
      "inputs": [],
      "name": "totalSupply",
      "outputs": [
        {
          "internalType": "uint256",
          "name": "",
          "type": "uint256"
        }
      ],
      "stateMutability": "view",
      "type": "function"
    },
    {
      "inputs": [],
      "name": "totalTx",
      "outputs": [
        {
          "internalType": "uint256",
          "name": "",
          "type": "uint256"
        }
      ],
      "stateMutability": "view",
      "type": "function"
    },
    {
      "inputs": [
        {
          "internalType": "address",
          "name": "from",
          "type": "address"
        },
        {
          "internalType": "address",
          "name": "to",
          "type": "address"
        },
        {
          "internalType": "uint256",
          "name": "tokenId",
          "type": "uint256"
        }
      ],
      "name": "transferFrom",
      "outputs": [],
      "stateMutability": "payable",
      "type": "function"
    },
    {
      "inputs": [
        {
          "internalType": "address",
          "name": "newOwner",
          "type": "address"
        }
      ],
      "name": "transferOwnership",
      "outputs": [],
      "stateMutability": "nonpayable",
      "type": "function"
    }
  ],
  "bytecode": "0x60806040526000600f556000601055662386f26fc100006011553480156200002657600080fd5b50604051620035433803806200354383398101604081905262000049916200028c565b8351849084906200006290600090602085019062000119565b5080516200007890600190602084019062000119565b505050620000956200008f620000c360201b60201c565b620000c7565b600e91909155600d80546001600160a01b0319166001600160a01b03909216919091179055506200035e9050565b3390565b600a80546001600160a01b038381166001600160a01b0319831681179093556040519116919082907f8be0079c531659141344cd1fd0a4f28419497f9722a3daafe3b4186f6b6457e090600090a35050565b828054620001279062000321565b90600052602060002090601f0160209004810192826200014b576000855562000196565b82601f106200016657805160ff191683800117855562000196565b8280016001018555821562000196579182015b828111156200019657825182559160200191906001019062000179565b50620001a4929150620001a8565b5090565b5b80821115620001a45760008155600101620001a9565b634e487b7160e01b600052604160045260246000fd5b600082601f830112620001e757600080fd5b81516001600160401b0380821115620002045762000204620001bf565b604051601f8301601f19908116603f011681019082821181831017156200022f576200022f620001bf565b816040528381526020925086838588010111156200024c57600080fd5b600091505b8382101562000270578582018301518183018401529082019062000251565b83821115620002825760008385830101525b9695505050505050565b60008060008060808587031215620002a357600080fd5b84516001600160401b0380821115620002bb57600080fd5b620002c988838901620001d5565b95506020870151915080821115620002e057600080fd5b50620002ef87828801620001d5565b60408701516060880151919550935090506001600160a01b03811681146200031657600080fd5b939692955090935050565b600181811c908216806200033657607f821691505b602082108114156200035857634e487b7160e01b600052602260045260246000fd5b50919050565b6131d5806200036e6000396000f3fe6080604052600436106101d85760003560e01c80636352211e11610102578063a22cb46511610095578063dbacc23711610064578063dbacc237146104ff578063e0391b0914610535578063e985e9c51461054a578063f2fde38b1461059357600080fd5b8063a22cb4651461048c578063b3de019c146104ac578063b88d4fde146104cc578063c87b56dd146104df57600080fd5b8063799c0c1e116100d1578063799c0c1e146104335780638da5cb5b1461044657806395d89b41146104645780639ba4b0171461047957600080fd5b80636352211e146103c857806370a08231146103e8578063715018a6146104085780637220cf391461041d57600080fd5b806323b872dd1161017a57806342842e0e1161014957806342842e0e1461034857806343bc16121461035b5780634f6ccce71461037b578063576f7ea71461039b57600080fd5b806323b872dd146102dd57806327506f53146102f05780632f745c5914610312578063326bb4ad1461033257600080fd5b8063081812fc116101b6578063081812fc14610258578063095ea7b31461029057806313faede6146102b257806318160ddd146102c857600080fd5b806301ffc9a7146101dd578063047fc9aa1461021257806306fdde0314610236575b600080fd5b3480156101e957600080fd5b506101fd6101f83660046129dd565b6105b3565b60405190151581526020015b60405180910390f35b34801561021e57600080fd5b50610228600f5481565b604051908152602001610209565b34801561024257600080fd5b5061024b6105de565b6040516102099190612a52565b34801561026457600080fd5b50610278610273366004612a65565b610670565b6040516001600160a01b039091168152602001610209565b34801561029c57600080fd5b506102b06102ab366004612a9a565b61070a565b005b3480156102be57600080fd5b5061022860115481565b3480156102d457600080fd5b50600854610228565b6102b06102eb366004612ac4565b610820565b3480156102fc57600080fd5b50610305610851565b6040516102099190612b85565b34801561031e57600080fd5b5061022861032d366004612a9a565b610a9b565b34801561033e57600080fd5b50610228600e5481565b6102b0610356366004612ac4565b610b31565b34801561036757600080fd5b50600d54610278906001600160a01b031681565b34801561038757600080fd5b50610228610396366004612a65565b610b4c565b3480156103a757600080fd5b506103bb6103b6366004612a65565b610bdf565b6040516102099190612be7565b3480156103d457600080fd5b506102786103e3366004612a65565b610e68565b3480156103f457600080fd5b50610228610403366004612bfa565b610edf565b34801561041457600080fd5b506102b0610f66565b34801561042957600080fd5b5061022860105481565b6102b0610441366004612cc1565b610f7a565b34801561045257600080fd5b50600a546001600160a01b0316610278565b34801561047057600080fd5b5061024b61130a565b6102b0610487366004612a65565b611319565b34801561049857600080fd5b506102b06104a7366004612d51565b611883565b3480156104b857600080fd5b506101fd6104c7366004612d8d565b611892565b6102b06104da366004612daf565b611990565b3480156104eb57600080fd5b5061024b6104fa366004612a65565b6119c8565b34801561050b57600080fd5b5061027861051a366004612a65565b600c602052600090815260409020546001600160a01b031681565b34801561054157600080fd5b50610305611ab0565b34801561055657600080fd5b506101fd610565366004612e2b565b6001600160a01b03918216600090815260056020908152604080832093909416825291909152205460ff1690565b34801561059f57600080fd5b506102b06105ae366004612bfa565b611cf1565b60006001600160e01b0319821663780e9d6360e01b14806105d857506105d882611d6a565b92915050565b6060600080546105ed90612e5e565b80601f016020809104026020016040519081016040528092919081815260200182805461061990612e5e565b80156106665780601f1061063b57610100808354040283529160200191610666565b820191906000526020600020905b81548152906001019060200180831161064957829003601f168201915b5050505050905090565b6000818152600260205260408120546001600160a01b03166106ee5760405162461bcd60e51b815260206004820152602c60248201527f4552433732313a20617070726f76656420717565727920666f72206e6f6e657860448201526b34b9ba32b73a103a37b5b2b760a11b60648201526084015b60405180910390fd5b506000908152600460205260409020546001600160a01b031690565b600061071582610e68565b9050806001600160a01b0316836001600160a01b031614156107835760405162461bcd60e51b815260206004820152602160248201527f4552433732313a20617070726f76616c20746f2063757272656e74206f776e656044820152603960f91b60648201526084016106e5565b336001600160a01b038216148061079f575061079f8133610565565b6108115760405162461bcd60e51b815260206004820152603860248201527f4552433732313a20617070726f76652063616c6c6572206973206e6f74206f7760448201527f6e6572206e6f7220617070726f76656420666f7220616c6c000000000000000060648201526084016106e5565b61081b8383611dba565b505050565b61082a3382611e28565b6108465760405162461bcd60e51b81526004016106e590612e99565b61081b838383611f1f565b60606012805480602002602001604051908101604052809291908181526020016000905b82821015610a925760008481526020908190206040805160e081018252600786029092018054835260018101546001600160a01b0316938301939093526002830154908201526003820180549192916060840191906108d390612e5e565b80601f01602080910402602001604051908101604052809291908181526020018280546108ff90612e5e565b801561094c5780601f106109215761010080835404028352916020019161094c565b820191906000526020600020905b81548152906001019060200180831161092f57829003601f168201915b5050505050815260200160048201805461096590612e5e565b80601f016020809104026020016040519081016040528092919081815260200182805461099190612e5e565b80156109de5780601f106109b3576101008083540402835291602001916109de565b820191906000526020600020905b8154815290600101906020018083116109c157829003601f168201915b505050505081526020016005820180546109f790612e5e565b80601f0160208091040260200160405190810160405280929190818152602001828054610a2390612e5e565b8015610a705780601f10610a4557610100808354040283529160200191610a70565b820191906000526020600020905b815481529060010190602001808311610a5357829003601f168201915b5050505050815260200160068201548152505081526020019060010190610875565b50505050905090565b6000610aa683610edf565b8210610b085760405162461bcd60e51b815260206004820152602b60248201527f455243373231456e756d657261626c653a206f776e657220696e646578206f7560448201526a74206f6620626f756e647360a81b60648201526084016106e5565b506001600160a01b03919091166000908152600660209081526040808320938352929052205490565b61081b83838360405180602001604052806000815250611990565b6000610b5760085490565b8210610bba5760405162461bcd60e51b815260206004820152602c60248201527f455243373231456e756d657261626c653a20676c6f62616c20696e646578206f60448201526b7574206f6620626f756e647360a01b60648201526084016106e5565b60088281548110610bcd57610bcd612eea565b90600052602060002001549050919050565b610c286040518060e001604052806000815260200160006001600160a01b0316815260200160008152602001606081526020016060815260200160608152602001600081525090565b6013610c35600184612f16565b81548110610c4557610c45612eea565b90600052602060002090600702016040518060e0016040529081600082015481526020016001820160009054906101000a90046001600160a01b03166001600160a01b03166001600160a01b0316815260200160028201548152602001600382018054610cb190612e5e565b80601f0160208091040260200160405190810160405280929190818152602001828054610cdd90612e5e565b8015610d2a5780601f10610cff57610100808354040283529160200191610d2a565b820191906000526020600020905b815481529060010190602001808311610d0d57829003601f168201915b50505050508152602001600482018054610d4390612e5e565b80601f0160208091040260200160405190810160405280929190818152602001828054610d6f90612e5e565b8015610dbc5780601f10610d9157610100808354040283529160200191610dbc565b820191906000526020600020905b815481529060010190602001808311610d9f57829003601f168201915b50505050508152602001600582018054610dd590612e5e565b80601f0160208091040260200160405190810160405280929190818152602001828054610e0190612e5e565b8015610e4e5780601f10610e2357610100808354040283529160200191610e4e565b820191906000526020600020905b815481529060010190602001808311610e3157829003601f168201915b505050505081526020016006820154815250509050919050565b6000818152600260205260408120546001600160a01b0316806105d85760405162461bcd60e51b815260206004820152602960248201527f4552433732313a206f776e657220717565727920666f72206e6f6e657869737460448201526832b73a103a37b5b2b760b91b60648201526084016106e5565b60006001600160a01b038216610f4a5760405162461bcd60e51b815260206004820152602a60248201527f4552433732313a2062616c616e636520717565727920666f7220746865207a65604482015269726f206164647265737360b01b60648201526084016106e5565b506001600160a01b031660009081526003602052604090205490565b610f6e6120ca565b610f786000612124565b565b601154341015610fcc5760405162461bcd60e51b815260206004820152601a60248201527f457468657220746f6f206c6f7720666f72206d696e74696e672100000000000060448201526064016106e5565b600b82604051610fdc9190612f2d565b9081526040519081900360200190205460ff161561103c5760405162461bcd60e51b815260206004820152601b60248201527f54686973204e465420697320616c7265616479206d696e74656421000000000060448201526064016106e5565b600a546001600160a01b031633141561108c5760405162461bcd60e51b815260206004820152601260248201527153616c6573206e6f7420616c6c6f7765642160701b60448201526064016106e5565b60006064600e543461109e9190612f49565b6110a89190612f68565b600d549091506110c1906001600160a01b031682612176565b6110e56110d6600a546001600160a01b031690565b6110e08334612f16565b612176565b600f80549060006110f583612f8a565b90915550506040805160e081018252600f548152336020808301918252928201858152606083018981526080840189905260a084018890524260c085015260138054600181018255600091909152845160079091027f66de8ffda797e3de9c05e8fc57b3bf0ec28a930d40b0d285d93c06501cf6a090810191825593517f66de8ffda797e3de9c05e8fc57b3bf0ec28a930d40b0d285d93c06501cf6a091850180546001600160a01b03929092166001600160a01b031990921691909117905591517f66de8ffda797e3de9c05e8fc57b3bf0ec28a930d40b0d285d93c06501cf6a09284015551805193949193611213937f66de8ffda797e3de9c05e8fc57b3bf0ec28a930d40b0d285d93c06501cf6a0930192919091019061292e565b506080820151805161122f91600484019160209091019061292e565b5060a0820151805161124b91600584019160209091019061292e565b5060c082015181600601555050336001600160a01b03167fb9508407a6eccb191d8da3286f4173697cf95604e9ea192fe5ab7c862b5221f6600f543486426040516112999493929190612fa5565b60405180910390a26112ad33600f546121d6565b6001600b846040516112bf9190612f2d565b9081526040805160209281900383019020805460ff191660ff9490941693909317909255600f546000908152600c909152208054336001600160a01b03199091161790555050505050565b6060600180546105ed90612e5e565b6013611326600183612f16565b8154811061133657611336612eea565b9060005260206000209060070201600201543410156113975760405162461bcd60e51b815260206004820152601b60248201527f457468657220746f6f206c6f7720666f7220707572636861736521000000000060448201526064016106e5565b60136113a4600183612f16565b815481106113b4576113b4612eea565b60009182526020909120600790910201600101546001600160a01b03163314156114195760405162461bcd60e51b81526020600482015260166024820152754f7065726174696f6e204e6f7420416c6c6f7765642160501b60448201526064016106e5565b60006064600e543461142b9190612f49565b6114359190612f68565b600d5490915061144e906001600160a01b031682612176565b611495601361145e600185612f16565b8154811061146e5761146e612eea565b60009182526020909120600160079092020101546001600160a01b03166110e08334612f16565b601080549060006114a583612f8a565b919050555060126040518060e001604052806010548152602001336001600160a01b0316815260200134815260200160136001866114e39190612f16565b815481106114f3576114f3612eea565b9060005260206000209060070201600301805461150f90612e5e565b80601f016020809104026020016040519081016040528092919081815260200182805461153b90612e5e565b80156115885780601f1061155d57610100808354040283529160200191611588565b820191906000526020600020905b81548152906001019060200180831161156b57829003601f168201915b505050918352505060200160136115a0600187612f16565b815481106115b0576115b0612eea565b906000526020600020906007020160040180546115cc90612e5e565b80601f01602080910402602001604051908101604052809291908181526020018280546115f890612e5e565b80156116455780601f1061161a57610100808354040283529160200191611645565b820191906000526020600020905b81548152906001019060200180831161162857829003601f168201915b5050509183525050602001601361165d600187612f16565b8154811061166d5761166d612eea565b9060005260206000209060070201600501805461168990612e5e565b80601f01602080910402602001604051908101604052809291908181526020018280546116b590612e5e565b80156117025780601f106116d757610100808354040283529160200191611702565b820191906000526020600020905b8154815290600101906020018083116116e557829003601f168201915b50505091835250504260209182015282546001808201855560009485529382902083516007909202019081558282015193810180546001600160a01b0319166001600160a01b03909516949094179093556040820151600284015560608201518051929392611777926003850192019061292e565b506080820151805161179391600484019160209091019061292e565b5060a082015180516117af91600584019160209091019061292e565b5060c0919091015160069091015560105433907fb9508407a6eccb191d8da3286f4173697cf95604e9ea192fe5ab7c862b5221f6903460136117f2600188612f16565b8154811061180257611802612eea565b9060005260206000209060070201600501426040516118249493929190612fd5565b60405180910390a233601361183a600185612f16565b8154811061184a5761184a612eea565b906000526020600020906007020160010160006101000a8154816001600160a01b0302191690836001600160a01b031602179055505050565b61188e3383836121f0565b5050565b60008082116118d45760405162461bcd60e51b815260206004820152600e60248201526d457468657220746f6f206c6f772160901b60448201526064016106e5565b60136118e1600185612f16565b815481106118f1576118f1612eea565b60009182526020909120600790910201600101546001600160a01b031633146119555760405162461bcd60e51b81526020600482015260166024820152754f7065726174696f6e204e6f7420416c6c6f7765642160501b60448201526064016106e5565b816013611963600186612f16565b8154811061197357611973612eea565b600091825260209091206002600790920201015550600192915050565b61199a3383611e28565b6119b65760405162461bcd60e51b81526004016106e590612e99565b6119c2848484846122bf565b50505050565b6000818152600260205260409020546060906001600160a01b0316611a475760405162461bcd60e51b815260206004820152602f60248201527f4552433732314d657461646174613a2055524920717565727920666f72206e6f60448201526e3732bc34b9ba32b73a103a37b5b2b760891b60648201526084016106e5565b6000611a5e60408051602081019091526000815290565b90506000815111611a7e5760405180602001604052806000815250611aa9565b80611a88846122f2565b604051602001611a99929190613096565b6040516020818303038152906040525b9392505050565b60606013805480602002602001604051908101604052809291908181526020016000905b82821015610a925760008481526020908190206040805160e081018252600786029092018054835260018101546001600160a01b031693830193909352600283015490820152600382018054919291606084019190611b3290612e5e565b80601f0160208091040260200160405190810160405280929190818152602001828054611b5e90612e5e565b8015611bab5780601f10611b8057610100808354040283529160200191611bab565b820191906000526020600020905b815481529060010190602001808311611b8e57829003601f168201915b50505050508152602001600482018054611bc490612e5e565b80601f0160208091040260200160405190810160405280929190818152602001828054611bf090612e5e565b8015611c3d5780601f10611c1257610100808354040283529160200191611c3d565b820191906000526020600020905b815481529060010190602001808311611c2057829003601f168201915b50505050508152602001600582018054611c5690612e5e565b80601f0160208091040260200160405190810160405280929190818152602001828054611c8290612e5e565b8015611ccf5780601f10611ca457610100808354040283529160200191611ccf565b820191906000526020600020905b815481529060010190602001808311611cb257829003601f168201915b5050505050815260200160068201548152505081526020019060010190611ad4565b611cf96120ca565b6001600160a01b038116611d5e5760405162461bcd60e51b815260206004820152602660248201527f4f776e61626c653a206e6577206f776e657220697320746865207a65726f206160448201526564647265737360d01b60648201526084016106e5565b611d6781612124565b50565b60006001600160e01b031982166380ac58cd60e01b1480611d9b57506001600160e01b03198216635b5e139f60e01b145b806105d857506301ffc9a760e01b6001600160e01b03198316146105d8565b600081815260046020526040902080546001600160a01b0319166001600160a01b0384169081179091558190611def82610e68565b6001600160a01b03167f8c5be1e5ebec7d5bd14f71427d1e84f3dd0314c0f7b2291e5b200ac8c7c3b92560405160405180910390a45050565b6000818152600260205260408120546001600160a01b0316611ea15760405162461bcd60e51b815260206004820152602c60248201527f4552433732313a206f70657261746f7220717565727920666f72206e6f6e657860448201526b34b9ba32b73a103a37b5b2b760a11b60648201526084016106e5565b6000611eac83610e68565b9050806001600160a01b0316846001600160a01b03161480611ee75750836001600160a01b0316611edc84610670565b6001600160a01b0316145b80611f1757506001600160a01b0380821660009081526005602090815260408083209388168352929052205460ff165b949350505050565b826001600160a01b0316611f3282610e68565b6001600160a01b031614611f9a5760405162461bcd60e51b815260206004820152602960248201527f4552433732313a207472616e73666572206f6620746f6b656e2074686174206960448201526839903737ba1037bbb760b91b60648201526084016106e5565b6001600160a01b038216611ffc5760405162461bcd60e51b8152602060048201526024808201527f4552433732313a207472616e7366657220746f20746865207a65726f206164646044820152637265737360e01b60648201526084016106e5565b61200783838361238f565b612012600082611dba565b6001600160a01b038316600090815260036020526040812080546001929061203b908490612f16565b90915550506001600160a01b03821660009081526003602052604081208054600192906120699084906130c5565b909155505060008181526002602052604080822080546001600160a01b0319166001600160a01b0386811691821790925591518493918716917fddf252ad1be2c89b69c2b068fc378daa952ba7f163c4a11628f55a4df523b3ef91a4505050565b600a546001600160a01b03163314610f785760405162461bcd60e51b815260206004820181905260248201527f4f776e61626c653a2063616c6c6572206973206e6f7420746865206f776e657260448201526064016106e5565b600a80546001600160a01b038381166001600160a01b0319831681179093556040519116919082907f8be0079c531659141344cd1fd0a4f28419497f9722a3daafe3b4186f6b6457e090600090a35050565b6000826001600160a01b03168260405160006040518083038185875af1925050503d80600081146121c3576040519150601f19603f3d011682016040523d82523d6000602084013e6121c8565b606091505b505090508061081b57600080fd5b61188e828260405180602001604052806000815250612447565b816001600160a01b0316836001600160a01b031614156122525760405162461bcd60e51b815260206004820152601960248201527f4552433732313a20617070726f766520746f2063616c6c65720000000000000060448201526064016106e5565b6001600160a01b03838116600081815260056020908152604080832094871680845294825291829020805460ff191686151590811790915591519182527f17307eab39ab6107e8899845ad3d59bd9653f200f220920489ca2b5937696c31910160405180910390a3505050565b6122ca848484611f1f565b6122d68484848461247a565b6119c25760405162461bcd60e51b81526004016106e5906130dd565b606060006122ff83612578565b600101905060008167ffffffffffffffff81111561231f5761231f612c15565b6040519080825280601f01601f191660200182016040528015612349576020820181803683370190505b5090508181016020015b600019016f181899199a1a9b1b9c1cb0b131b232b360811b600a86061a8153600a850494508461238257612387565b612353565b509392505050565b6001600160a01b0383166123ea576123e581600880546000838152600960205260408120829055600182018355919091527ff3f7a9fe364faab93b216da50a3214154f22a0a2b415b23a84c8169e8b636ee30155565b61240d565b816001600160a01b0316836001600160a01b03161461240d5761240d8382612650565b6001600160a01b0382166124245761081b816126ed565b826001600160a01b0316826001600160a01b03161461081b5761081b828261279c565b61245183836127e0565b61245e600084848461247a565b61081b5760405162461bcd60e51b81526004016106e5906130dd565b60006001600160a01b0384163b1561256d57604051630a85bd0160e11b81526001600160a01b0385169063150b7a02906124be90339089908890889060040161312f565b6020604051808303816000875af19250505080156124f9575060408051601f3d908101601f191682019092526124f69181019061316c565b60015b612553573d808015612527576040519150601f19603f3d011682016040523d82523d6000602084013e61252c565b606091505b50805161254b5760405162461bcd60e51b81526004016106e5906130dd565b805181602001fd5b6001600160e01b031916630a85bd0160e11b149050611f17565b506001949350505050565b60008072184f03e93ff9f4daa797ed6e38ed64bf6a1f0160401b83106125b75772184f03e93ff9f4daa797ed6e38ed64bf6a1f0160401b830492506040015b6d04ee2d6d415b85acef810000000083106125e3576d04ee2d6d415b85acef8100000000830492506020015b662386f26fc10000831061260157662386f26fc10000830492506010015b6305f5e1008310612619576305f5e100830492506008015b612710831061262d57612710830492506004015b6064831061263f576064830492506002015b600a83106105d85760010192915050565b6000600161265d84610edf565b6126679190612f16565b6000838152600760205260409020549091508082146126ba576001600160a01b03841660009081526006602090815260408083208584528252808320548484528184208190558352600790915290208190555b5060009182526007602090815260408084208490556001600160a01b039094168352600681528383209183525290812055565b6008546000906126ff90600190612f16565b6000838152600960205260408120546008805493945090928490811061272757612727612eea565b90600052602060002001549050806008838154811061274857612748612eea565b600091825260208083209091019290925582815260099091526040808220849055858252812055600880548061278057612780613189565b6001900381819060005260206000200160009055905550505050565b60006127a783610edf565b6001600160a01b039093166000908152600660209081526040808320868452825280832085905593825260079052919091209190915550565b6001600160a01b0382166128365760405162461bcd60e51b815260206004820181905260248201527f4552433732313a206d696e7420746f20746865207a65726f206164647265737360448201526064016106e5565b6000818152600260205260409020546001600160a01b03161561289b5760405162461bcd60e51b815260206004820152601c60248201527f4552433732313a20746f6b656e20616c7265616479206d696e7465640000000060448201526064016106e5565b6128a76000838361238f565b6001600160a01b03821660009081526003602052604081208054600192906128d09084906130c5565b909155505060008181526002602052604080822080546001600160a01b0319166001600160a01b03861690811790915590518392907fddf252ad1be2c89b69c2b068fc378daa952ba7f163c4a11628f55a4df523b3ef908290a45050565b82805461293a90612e5e565b90600052602060002090601f01602090048101928261295c57600085556129a2565b82601f1061297557805160ff19168380011785556129a2565b828001600101855582156129a2579182015b828111156129a2578251825591602001919060010190612987565b506129ae9291506129b2565b5090565b5b808211156129ae57600081556001016129b3565b6001600160e01b031981168114611d6757600080fd5b6000602082840312156129ef57600080fd5b8135611aa9816129c7565b60005b83811015612a155781810151838201526020016129fd565b838111156119c25750506000910152565b60008151808452612a3e8160208601602086016129fa565b601f01601f19169290920160200192915050565b602081526000611aa96020830184612a26565b600060208284031215612a7757600080fd5b5035919050565b80356001600160a01b0381168114612a9557600080fd5b919050565b60008060408385031215612aad57600080fd5b612ab683612a7e565b946020939093013593505050565b600080600060608486031215612ad957600080fd5b612ae284612a7e565b9250612af060208501612a7e565b9150604084013590509250925092565b8051825260018060a01b036020820151166020830152604081015160408301526000606082015160e06060850152612b3b60e0850182612a26565b905060808301518482036080860152612b548282612a26565b91505060a083015184820360a0860152612b6e8282612a26565b91505060c083015160c08501528091505092915050565b6000602080830181845280855180835260408601915060408160051b870101925083870160005b82811015612bda57603f19888603018452612bc8858351612b00565b94509285019290850190600101612bac565b5092979650505050505050565b602081526000611aa96020830184612b00565b600060208284031215612c0c57600080fd5b611aa982612a7e565b634e487b7160e01b600052604160045260246000fd5b600067ffffffffffffffff80841115612c4657612c46612c15565b604051601f8501601f19908116603f01168101908282118183101715612c6e57612c6e612c15565b81604052809350858152868686011115612c8757600080fd5b858560208301376000602087830101525050509392505050565b600082601f830112612cb257600080fd5b611aa983833560208501612c2b565b60008060008060808587031215612cd757600080fd5b843567ffffffffffffffff80821115612cef57600080fd5b612cfb88838901612ca1565b95506020870135915080821115612d1157600080fd5b612d1d88838901612ca1565b94506040870135915080821115612d3357600080fd5b50612d4087828801612ca1565b949793965093946060013593505050565b60008060408385031215612d6457600080fd5b612d6d83612a7e565b915060208301358015158114612d8257600080fd5b809150509250929050565b60008060408385031215612da057600080fd5b50508035926020909101359150565b60008060008060808587031215612dc557600080fd5b612dce85612a7e565b9350612ddc60208601612a7e565b925060408501359150606085013567ffffffffffffffff811115612dff57600080fd5b8501601f81018713612e1057600080fd5b612e1f87823560208401612c2b565b91505092959194509250565b60008060408385031215612e3e57600080fd5b612e4783612a7e565b9150612e5560208401612a7e565b90509250929050565b600181811c90821680612e7257607f821691505b60208210811415612e9357634e487b7160e01b600052602260045260246000fd5b50919050565b60208082526031908201527f4552433732313a207472616e736665722063616c6c6572206973206e6f74206f6040820152701ddb995c881b9bdc88185c1c1c9bdd9959607a1b606082015260800190565b634e487b7160e01b600052603260045260246000fd5b634e487b7160e01b600052601160045260246000fd5b600082821015612f2857612f28612f00565b500390565b60008251612f3f8184602087016129fa565b9190910192915050565b6000816000190483118215151615612f6357612f63612f00565b500290565b600082612f8557634e487b7160e01b600052601260045260246000fd5b500490565b6000600019821415612f9e57612f9e612f00565b5060010190565b848152836020820152608060408201526000612fc46080830185612a26565b905082606083015295945050505050565b848152600060208581840152608060408401526000855481600182811c91508083168061300357607f831692505b85831081141561302157634e487b7160e01b85526022600452602485fd5b6080880183905260a0880181801561304057600181146130515761307c565b60ff1986168252878201965061307c565b60008c81526020902060005b868110156130765781548482015290850190890161305d565b83019750505b505050505050809250505082606083015295945050505050565b600083516130a88184602088016129fa565b8351908301906130bc8183602088016129fa565b01949350505050565b600082198211156130d8576130d8612f00565b500190565b60208082526032908201527f4552433732313a207472616e7366657220746f206e6f6e20455243373231526560408201527131b2b4bb32b91034b6b83632b6b2b73a32b960711b606082015260800190565b6001600160a01b038581168252841660208201526040810183905260806060820181905260009061316290830184612a26565b9695505050505050565b60006020828403121561317e57600080fd5b8151611aa9816129c7565b634e487b7160e01b600052603160045260246000fdfea2646970667358221220090117848f2e24cc6ab019db6d56f2e88a284bd3eda0ffd1c3b7c5ff6025d75364736f6c634300080b0033",
  "linkReferences": {},
  "deployedLinkReferences": {}
}